:1000000000800020BD010000759000002D900000D0
:100010002D9000002D9000002D9000002D900000EC
:100020002D9000002D9000002D9000007590000094
:10003000759000002D900000759000001D9000004C
:10004000759000007590000075900000759000009C
:10005000759000007590000075900000759000008C
:10006000759000007590000075900000759000007C
:10007000759000007590000075900000759000006C
:10008000759000007590000075900000759000005C
:10009000759000007590000075900000759000004C
:1000A000354900004149000075900000759000003E
:1000B000759000007590000075900000759000002C
:1000C000759000007590000075900000759000001C
:1000D000759000007590000075900000759000000C
:1000E00075900000759000007590000075900000FC
:1000F0007590000031AF00007590000059B4000009
:100100007590000089B8000075900000759000009F
:1001100075900000759000007590000075900000CB
:1001200075900000759000007590000075900000BB
:1001300075900000759000007590000075900000AB
:10014000759000007590000075900000759000009B
:1001500079A7000091A70000A9A70000C1A700008F
:1001600075900000C1970000759000007590000028
:10017000759000007590000075900000759000006B
:10018000759000007590000075900000759000005B
:10019000759000007590000075900000759000004B
:1001A000759000007590000075900000759000003B
:1001B0007590000075900000D5A50000574B4CF2DB
:1001C000205210B51A804DF628121A8000BF00BFC9
:1001D00008F054FF524B4FF010621A60514A9A6077
:1001E000514ADA60A3F53043203B1A6812F480725A
:1001F00004D14E490A604FF4A8521A604C4B1A7849
:10020000110703D51A7842F008021A70494B4A4C7C
:100210004A482A221A704A4A00239918A14203D256
:10022000195899500433F8E7464B474900228B424E
:1002300002D243F8042BFAE74448454900235A58B0
:100240001A500433B3F5DE7FF9D1424B424A802184
:1002500003F8011B9342FBD1404B3C4A1A60404BD0
:100260000A221A70A3F5805324225A70A0221A7011
:100270009A799207FCD59A79D406FCD4394A9379B5
:1002800003F00C03082B374BF9D103221A714622D5
:100290005A719A799006FCD5324A9179314B4906C8
:1002A000FBD5314A4FF08271116009215160202243
:1002B0001A709A7902F00C020C2AFAD12B4B2C4AB4
:1002C0001A602C4B2C4A1A6000225A60072243F80D
:1002D000042C2A4AC3F80C2D62B609F02FF9134BEF
:1002E0001B68DA0705D5264809F0ACF8254B264AE5
:1002F0001A60264B1B785B0609D5224C224A2368DC
:10030000934204D11E4809F09DF8002323600CF0AD
:1003100015FF08F0B9FE0AF00FFBFEE70E200540BE
:1003200030800440823F04000100002B14D00340C1
:1003300002D0074000E00740FCBBFF1F082301007C
:1003400060ADFF1FFCBBFF1F94F4FF1F00A8FF1F41
:100350000000000000E400E05FE400E008ED00E0E1
:1003600000500640004006404480044004800440A1
:10037000C010050014E000E0BFD401000000202000
:10038000B4503D561CE00340A5C3945A00F007400A
:10039000FFFFFFFFFFFFFFFFFFFFFFFFFFFFFFFF6D
:1003A000FFFFFFFFFFFFFFFFFFFFFFFFFFFFFFFF5D
:1003B000FFFFFFFFFFFFFFFFFFFFFFFFFFFFFFFF4D
:1003C000FFFFFFFFFFFFFFFFFFFFFFFFFFFFFFFF3D
:1003D000FFFFFFFFFFFFFFFFFFFFFFFFFFFFFFFF2D
:1003E000FFFFFFFFFFFFFFFFFFFFFFFFFFFFFFFF1D
:1003F000FFFFFFFFFFFFFFFFFFFFFFFFFFFFFFFF0D
:10040000FFFFFFFFFFFFFFFFFFFFFFFFFEFFFFFFFD
:1004100010B5054C237833B9044B13B10448AFF33E
:1004200000800123237010BDFCBBFF1F00000000F3
:100430000023010008B5064B1BB106480649AFF37F
:1004400000800648036813B1054B03B1984708BD07
:10045000000000000023010000BCFF1FFCBBFF1FC9
:1004600000000000014B01221A70704780C9FF1F75
:10047000014B01221A707047B0ECFF1F014806F0D3
:100480001DB900BF28CAFF1F10B5044A044640F832
:10049000182B04F01BFC204610BD00BF10160100F5
:1004A00010B504460AF03EFA204610BD70B5054668
:1004B0000E4610460B4914460CF020FB30B920467E
:1004C00000210CF0FDFA10B1002400E0054C4FF0C3
:1004D0008F4120460CF056F90CF01AFB063645F811
:1004E000260070BD00FEFF462DE9F0412C4F2D4D3A
:1004F00057F820302C49DE8DB3F8008008EB460811
:100500004FEA48081FFA88F8044655F8280008F111
:1005100001081FFA88F8002202F0A0F855F8280018
:100520002149002202F09AF857F824301F4806F0BB
:100530000102002582F00102DA855D80294606F07D
:1005400003F91B4A57F824001A491B4B126885808F
:1005500021F814501A60E4B9184A194B148001228A
:100560001A80F301174A1848184903EB062603EBD3
:10057000860606441346B72003F8020B3568C2F816
:1005800002507468307A5C60012218720A70BDE80B
:10059000F0810F4A0F4B158001221A80E1E700BF5E
:1005A0000CCDFF1FA4ADFF1FB6B81D0028CAFF1F4A
:1005B0004CF1FF1F6CBCFF1FFCEAFF1F18CDFF1F93
:1005C000F8EAFF1F90ADFF1F8CDDFF1FB8C9FF1FAA
:1005D0003CEBFF1FBAC9FF1F2DE9F047C58D03880B
:1005E0004688ED01ADB2044675B13544164B174A45
:1005F00053F82530E36152F82530236200220123AD
:10060000A285A380BDE8F0875B001FFA83F8104F36
:10061000104B57F8280008F1010A06EB460906EBD3
:100620008909994402F004FB57F82A0002F000FB04
:10063000494657F8280002F027FB57F82A00494698
:1006400002F022FBD1E700BFB8D8FF1F7CD4FF1F08
:10065000D4ADFF1F80BCFF1F002310B4104C4172AB
:10066000026104600372C36041B1194600E002698F
:1006700042F82310427A01339A42F8DC094B1A6897
:100680000AB90BE01A465369002BFBD150610023D5
:1006900043618380C3805DF8044B70471860F6E7C0
:1006A000D81001004CF2FF1F0021164B036010B45C
:1006B00000F1280204240B46447202610172C160F9
:1006C00000E0026942F82310427A01339342F8DBDA
:1006D0000D4B1A680AB913E01A465369002BFBD177
:1006E00050614FF480330022084942618280C28009
:1006F00001608361C361036243625DF8044B70472C
:100700001860EEE7D81001004CF2FF1FF015010051
:1007100011490A6838B50023104D0560044643723C
:1007200003610372C3600AB913E01A465369002BD0
:10073000FBD1546120460023094A6361A380E38012
:1007400040F8182B04F0B4FA204602F01BFA2046B9
:1007500038BD0860EEE700BF4CF2FF1FD810010063
:10076000101601000F490A6838B500230E4D0560C8
:100770000446437203610372C3600AB910E01A466B
:100780005369002BFBD154610023084A6361204662
:10079000A380E380A361226002F0E2FE204638BD20
:1007A0000860F1E74CF2FF1FD8100100201601008D
:1007B00008B5002008F0F4FB422801D0002008BD55
:1007C000012008F0EDFB0D28F8D1022008F0E8FB2D
:1007D0002A28F3D1032008F0E3FBB0F1800358424C
:1007E000584108BD70B5094E0424204608F0D8FBD6
:1007F0000546601C08F0D4FB3319023400EB0520D9
:100800000C2C23F8040CF0D170BD00BF00EBFF1FCF
:1008100008B5054805F076FF18B1034805F084FFD8
:1008200080B200B208BD00BF28CAFF1F1B4B1B6867
:100830005A0610B40CD41A4A1A4B10681968411A97
:10084000642905D912681A6001205DF8044B7047CD
:10085000154B1B689B060FD5144B186810F480309D
:1008600017D10F4A0F4B14681968611A6429ECD923
:1008700012681A600320E8E7094A0A4B10681968F1
:10088000411A6429E8D912681A6002205DF8044B05
:10089000704700205DF8044B704700BFD0F00F4058
:1008A0004CF1FF1F84C9FF1F90F00F4050F00F4024
:1008B000144A154952F8202070B55488D58D134E2E
:1008C00003460B8000222146114826F8132005F02C
:1008D0003BFF04EBC5130F4A0F4C104803EB4301D9
:1008E00003EB810121441346B72403F8024B0D6842
:1008F000C2F802504C68097A5C60012219720270D9
:1009000070BD00BF0CCDFF1F12DDFF1F6CBCFF1FB1
:1009100028CAFF1F90ADFF1F8CDDFF1FB8C9FF1F46
:10092000204A012938B5034622F8101034D026D3C6
:10093000022920D11C4C1D4854F82330D96805F0F9
:1009400003FF1B4B1B491B881B4D54F82300C28D12
:10095000438803EBC21303EB430203EB82020B4613
:100960002A44B72003F8020B14685068127AC1F8C1
:10097000024058601A72114B01221A7038BD0C4A9D
:10098000094B1288094853F82230598805F0DCFEDB
:100990000A4B01221A7038BD034C044854F8233026
:1009A0009968CCE76CBCFF1F0CCDFF1F28CAFF1F46
:1009B00012DDFF1F90ADFF1F8CDDFF1FB8C9FF1FA9
:1009C00038B5164A0388164932F813204280B724F6
:1009D00000220C70C58D8280D3B11248124902806A
:1009E00001220A8003EB45035D00104C104954F8C6
:1009F00025000135002201F031FE00220C4954F897
:100A0000250001F02BFE0B4A0B4B12681A6038BD13
:100A10000A490B4A0B8001211180E3E77CD8FF1FB4
:100A200090ADFF1F3CEBFF1FBAC9FF1FA4ADFF1F16
:100A30001EF404004CF1FF1FFCEAFF1F18CDFF1F3E
:100A4000F8EAFF1F3F4A38B5431E1088032B18D819
:100A5000DFE803F0024424183B4B1B6813F040030B
:100A60004CD13A4D3A4C296822688A1AB2F57A7FFD
:100A700062D91846FFF738FD2B68364A23600423F5
:100A8000138038BD314A324B12681B68D31AB3F554
:100A90007A7FF6D92F4B00221A8038BD2E4B1B6867
:100AA000DB0338D52D4B33F81030002B45D12C4BC0
:100AB0002C4A53F8203032F810105A88914202D054
:100AC0001846FFF77DFF2148214A0068264B106039
:100AD0002049012200201A70088038BD234B1B6872
:100AE0009A0616D4194D1A4C2A682368D31AB3F5FE
:100AF0007A7FC6D90120FFF7F7FCBDE70121FFF798
:100B00000FFF1249124A134B0968116000221A8024
:100B100038BD0221F3E70D4D0D4C29682368CB1A2F
:100B2000B3F57A7FADD900F0010383F001031846D5
:100B30001380FFF7BDFE9FE738BD0021FFF7F0FEF1
:100B4000C1E700BF12DDFF1FD0F00F404CF1FF1FC7
:100B500084C9FF1F8CC9FF1F50F00F406CBCFF1FE2
:100B60000CCDFF1F7CD8FF1FB8C9FF1F90F00F40AE
:100B70004C4A2DE9F0474C4E32F8105056F82030D0
:100B80004A4AB3F82E800127BD420446177037D079
:100B90000AD3022D06D1002973DD642944DCD96013
:100BA000BDE8F087BDE8F087B8F1000F2FD0404ACC
:100BB0001788013FBFB200293EDBB9424FDC8DB23E
:100BC00001EBC81000EB40083A4E3B4A00EB8800AE
:100BD00006EB0008D8F800C0D8F8047098F8086050
:100BE000C2F802C0C2F8067096725B888B420CBFD6
:100BF000B72320231370314B23F81450BDE8F0873E
:100C0000002946DB642907DC9960BDE8F0872C4A9F
:100C10001788013FBFB2CEE764212A4805F094FD52
:100C200056F824306421EFE76421264805F08CFD56
:100C300056F824306421B2E7DFF88C90B9F8003020
:100C4000ABB90FFA87FA51461E4805F07DFD012227
:100C50003D46514656F82430A9F80020B0E700215F
:100C6000184805F071FD56F824300021A8E700214E
:100C7000144805F069FD002156F82430A9F8001049
:100C80009EE739460F4805F05FFD56F82430394697
:100C900085E700210B4805F057FD56F82430002168
:100CA000B2E700BF6CBCFF1F0CCDFF1FB8C9FF1F10
:100CB0000EDDFF1F8CDDFF1F90ADFF1F7CD8FF1FD7
:100CC00078D4FF1F28CAFF1F8CADFF1F10B5044644
:100CD00082B00B4807F096FC05210F2223460848F6
:100CE00007F008FB1922064800920021782307F03C
:100CF00065FB034807F08AFC0028EDD102B010BD67
:100D000014DDFF1F00B585B002460E4902A80CF0A5
:100D1000C3FF0D4807F076FC05210F2202AB0A48FD
:100D200007F0E8FA1922084800920021782307F01A
:100D300045FB054807F06AFC0028EDD105B05DF8D9
:100D400004FB00BFE410010014DDFF1F70B500209C
:100D5000422108F03FF901200D2108F03BF9022063
:100D60002A2108F037F90320802108F033F9134EC7
:100D700004243319124833F8045CFFF7A7FF4FF43B
:100D8000FA7008F0C7FB28B2FFF7BCFF4FF4FA7007
:100D900008F0C0FB2046290A08F01CF9601CE9B2E3
:100DA000023408F017F90C2CE3D10648FFF78EFF48
:100DB0004FF4FA70BDE8704008F0ACBB00EBFF1FC9
:100DC000E8100100F4100100104A114B128811497B
:100DD00053F822004388C28D0F4870B403EBC2134E
:100DE0000E4C03EB430203EB82020B462244B72472
:100DF00003F8024B16685568147AC1F802600122A4
:100E00005D601C72027070BC704700BF12DDFF1F76
:100E10000CCDFF1F90ADFF1FB8C9FF1F8CDDFF1F5A
:100E200010B51048104982B007F0BAFA0D480121F8
:100E300007F01AFC0B4807F0E5FB19240948009459
:100E400005211922782307F0B9FA0648074B052136
:100E50002D2207F04FFA034807F0D8FB0028EDD108
:100E600002B010BD14DDFF1FFC160100FC100100D4
:100E700010B52E4C2E4922888AB002A80CF00CFF27
:100E800062882B4904A80CF007FFA288284906A80D
:100E90000CF002FFE288264908A80CF0FDFE254868
:100EA00007F0B0FB244B23480021082207F022FA68
:100EB0000D2200921F480021782307F07FFA1F4B74
:100EC0001C480521192207F015FA5021192202ABFE
:100ED000184807F00FFA1A4B16480521232207F08D
:100EE00009FA5021232204AB124807F003FA154BEC
:100EF000104805212D2207F0FDF950212D2206ABC7
:100F00000C4807F0F7F9104B0A480521372207F083
:100F1000F1F908485021372208AB07F0EBF90548F2
:100F200007F074FB0028BDD10AB010BD00EBFF1F15
:100F3000E410010014DDFF1F0C1101002411010059
:100F40002C110100341101003C1101002DE9F8437E
:100F50002248234FDFF89C80FFF7B8FE4FF4FA7069
:100F600007F1040908F0D6FA17F8016F0025C82424
:100F7000304607F051FF0BF0B1FB014628460BF05D
:100F8000F9FA013C0546A4B2032008F0C3FA002C8C
:100F9000EED1144928460BF0A9FC0BF0DFFD4F45BC
:100FA00028F8020FE0D1FFF763FF4FF4FA7008F062
:100FB000B1FA002008F05EFA30B1152008F05AFAB4
:100FC0000028F6D1FFF7C2FE0749084A084B096816
:100FD000116001221A70BDE8F88300BF44110100BE
:100FE000DF100100000048434CF1FF1F84C9FF1FC0
:100FF000B8C9FF1FFEEAFF1F2DE9F04F0788B0F8C0
:101000002C808268B0F82EB0B0F910E0B0F80490EF
:10101000294D2A497F00044608EB070A96441FFA27
:101020008AFA4FEA8B06E3690AEB06002EEAEE7EA7
:1010300083B0BEF1630FA8BF4FF0630E03FB0EFC3D
:1010400055F82000C4F814E00122CDF804C001F0E6
:1010500005FBDDF804C0BBF1000F25D06288184BFA
:101060001848803202EB420102EB810119442CF056
:10107000FF0250F82A0002F0B9FA08F0010888F0DF
:10108000010847443E44104955F82600002201F06B
:10109000E5FAB9F1010F14BF03230223A4F82C8051
:1010A000A38003B0BDE8F08F084A4FEA6C2152F8E4
:1010B0002A0001F07DFDE0E7A4ADFF1F5D74D105BE
:1010C00080BCFF1F7CADFF1FB6B81D00D4ADFF1F55
:1010D00010B5134C23889BB25BB1124B1868838800
:1010E000DBB90023104923801048114A09680380A6
:1010F0001160104C23889BB25BB10A4B58688388FF
:1011000043B90023084923800B480C4A096803802F
:10111000116010BDFFF770FFF3E7FFF76DFFE0E729
:10112000ECEBFF1F0CCDFF1F4CF1FF1FF8EAFF1F78
:1011300088C9FF1F10DDFF1FBAC9FF1FD0CCFF1FDA
:1011400070B59D4D9D4B29889D4A0CB2002053F8E7
:1011500024301070D88D1A899E8988B008B18C1CF3
:1011600024B212B2974902A80CF096FD32B295490A
:1011700004A80CF091FD944B53F82420106851689A
:1011800006AB03C3127A1A70FFF7A2FF2A888F4BAF
:1011900033F81230012B00F0B5805AD3022B56D110
:1011A0008B4807F02FFAFFF793FF05210F2206ABBC
:1011B000874807F09FF8FFF78BFF864B8448412153
:1011C0000F2207F097F8FFF783FF1922009280485B
:1011D0000021812307F0F2F8FFF77AFF7E4B7C486D
:1011E00005212D2207F086F8FFF772FF64212D22DA
:1011F00002AB774807F07EF8FFF76AFF1023002163
:10120000322273480093812307F0CCFBFFF760FF85
:101210006F4807F043FAFFF75BFF704B6C480521FE
:101220003C2207F067F8FFF753FF64213C2204AB30
:10123000674807F05FF8FFF74BFF654807F018FABB
:10124000FFF746FF624807F0E1F90028ABD108B08C
:1012500070BD5F4807F0D6F9FFF73AFF1023002171
:1012600004225B480093812307F09CFBFFF730FFCB
:10127000574807F013FAFFF72BFF05210F2206ABA3
:10128000534807F037F8FFF723FF524B50484121EE
:101290000F2207F02FF8FFF71BFF4D4807F0E8F982
:1012A000FFF716FF1922009249480021812307F019
:1012B00085F8FFF70DFF484B454805212D2207F023
:1012C00019F8FFF705FF64212D2202AB404807F013
:1012D00011F8FFF7FDFE414B3D4805213C2207F088
:1012E00009F8FFF7F5FE64213C2204AB384807F00B
:1012F00001F8FFF7EDFE364807F088F90028ABD17A
:1013000008B070BD324807F07DF9FFF7E1FE052116
:101310000F2206AB2E4806F0EDFFFFF7D9FE2D4B4E
:101320002B4841210F2206F0E5FFFFF7D1FE1922DD
:10133000009227480021812307F040F8FFF7C8FEFC
:1013400010230021222222480093812307F02AFB48
:10135000FFF7BEFE1E4807F0A1F9FFF7B9FE1E4BCE
:101360001B4805212D2206F0C5FFFFF7B1FE6421C1
:101370002D2202AB164806F0BDFFFFF7A9FE144868
:1013800007F076F9FFF7A4FE144B114805213C2223
:1013900006F0B0FFFFF79CFE64213C2204AB0C4832
:1013A00006F0A8FFFFF794FE094807F02FF9002880
:1013B000ABD108B070BD00BF12DDFF1F0CCDFF1F09
:1013C000B8C9FF1FE4100100C4ADFF1F6CBCFF1FB4
:1013D00014DDFF1F90ADFF1F5411010060110100CB
:1013E00070B5154A137803F0010383F001031370FD
:1013F00063B9124B1B781BB9114B00221A7070BDD8
:10140000FFF79EFE0E4B00221A7070BD0D4C258812
:10141000FFF7FEF9064655B12846FFF713FB002EED
:10142000EAD0094B31461878FFF7A2FBE4E7FFF753
:10143000FDF92080F3E700BF8CEAFF1FB8C9FF1F4A
:1014400080C9FF1F8CC9FF1F12DDFF1F114B124AFD
:101450001B6811689A6A10B5104C2068411A9142B5
:1014600016D9988DDA8D0E4B0E4900F0010080F0F0
:10147000010000EB8200002253F8200001F0EEF89A
:10148000094B0A490A4A2068186001230B8013801F
:1014900010BD00BF0CCDFF1F88C9FF1F4CF1FF1FFF
:1014A000A4ADFF1FB6B81D0014CDFF1FF8EAFF1F43
:1014B00018CDFF1F114B124A5B6811689A6A10B56C
:1014C000104C2068411A914217D99A8DD88D0E4B35
:1014D0000E4912F0010F14BF0222032202EB80001A
:1014E000002253F8200001F0B9F8094B09490A4AD3
:1014F0002068186001230B80138010BD0CCDFF1FE6
:10150000D0CCFF1F4CF1FF1FA4ADFF1FB6B81D00CC
:1015100088DDFF1FBAC9FF1F3CEBFF1F154B70B5DD
:1015200053F82040B4F91250E268A369154425EA43
:10153000E575632DA8BF6325AB4219D06069236AA6
:10154000A561C0F1640003FB00F00BF0C7F80A4985
:101550000BF018F9064628460BF0C0F80146304655
:101560000BF010F90BF0D4FA0128B8BF0120A062EB
:1015700070BD00BF0CCDFF1F0AD7233C70B51B4CBC
:101580002578022D17D80135EDB2194A194B505D57
:1015900033F8156007F040FC301AC3100133022DF8
:1015A0009BB2154A18D0032D52681BD101205382DB
:1015B000FFF7B4FF0BE00F4B10201D8807F02CFC49
:1015C0000D4B281AC5101B6801351D8200250B4BD9
:1015D000258000221A7070BD126800205382FFF728
:1015E0009DFFF4E701251382F1E700BF0CDDFF1F2B
:1015F000E010010000EBFF1F0CCDFF1FB0ECFF1F40
:1016000010B5164C2368DA8DBAB9154A1549106819
:101610000968411A322911D9998802290FD0124933
:10162000106809689A6A411A6432914284BF0122A3
:101630009A800E4B00221A8010BD10BD10BD9A8DED
:101640000B4B02F0010282F0010253F8220001F07C
:10165000FBFB236801229A80EBE700BF0CCDFF1F44
:101660004CF1FF1F14CDFF1F88C9FF1F18CDFF1FAE
:10167000D4ADFF1F10B5184C6368DA8DBAB9174A9C
:10168000174910680968411A322911D99988022925
:101690000FD01449106809689A6A411A643291425D
:1016A00084BF01229A80104B00221A8010BD10BD09
:1016B00010BD9A8D0D4B12F0010F14BF02220322B0
:1016C00053F8220001F0C0FB636801229A80064BA8
:1016D00000221A8010BD00BF0CCDFF1F4CF1FF1F70
:1016E00088DDFF1FD0CCFF1F3CEBFF1FD4ADFF1FD9
:1016F00010B5FFF7EDFC2A4B1B88002B4AD0FFF7F3
:10170000E7FC284B1B88002B41D0FFF7E1FC264B60
:101710001B78002B38D1FFF7DBFC244B1B78002B08
:101720002FD1FFF7D5FC224B1B883BBBFFF7D0FC2A
:10173000204B1B88FBB9204CFFF7CAFC206883882C
:101740003BB91E4A1E4B12681B68D31AB3F5967F2D
:1017500023D8FFF7BDFC606883883BB9174A184B54
:1017600012681B68D31AB3F5967F00D810BDBDE888
:101770001040FEF731BFFFF77DFFDCE7FFF740FFCA
:10178000D4E7FFF7FBFECCE7FFF72AFEC3E7FFF73E
:1017900091FEBAE7FFF75AFEB1E7FEF71DFFD8E763
:1017A000F8EAFF1FBAC9FF1F80C9FF1FB0ECFF1F77
:1017B00018CDFF1F3CEBFF1F0CCDFF1F4CF1FF1F8F
:1017C000FCEAFF1F08B5FFF793FFFCE7154B2DE977
:1017D000F0010021DFF85880D3F800C0124F134CFD
:1017E0000A46642558F821309A60DD605A619A6192
:1017F00057F82060DE6154F820601E6254F82060C3
:101800001980013105FB06F6022958809A801A8258
:101810005A829E62C3F824C09A85DA85E2D1BDE877
:10182000F0017047A0ADFF1FB8D8FF1F7CD4FF1F89
:101830000CCDFF1F2DE9F0410D46C0B000218046C0
:1018400003F05AFA0023AB60404603F05FFA064605
:10185000A0B923E0934209D2D71A28683A4620A9B2
:10186000184405F067F8AA683A44AA60684620A9B7
:1018700022460BF037FFA8B9361B0FD0802E34BF9D
:1018800034468024A2B26946404603F02FFAAB6882
:101890006A68E1189142DDD82746DEE7012040B0B2
:1018A000BDE8F081002040B0BDE8F0812DE9F04FA7
:1018B000AE4B0522D7B04FF4FA705A8007F02AFEDB
:1018C000AB4B1C88002C00F07F81AA48FFF7FEF983
:1018D0004FF47A7007F01EFEA748FFF7F7F90123CF
:1018E00006A8A649A64A03F0CBFA002301930EA846
:1018F00006A9012203F048FB0EA803F017FA0028FE
:1019000000F0D9800EA803F0E7F9002405462B5D0E
:101910002E2B00F0CE80002B00F0CB800134082C61
:10192000F5D10620284497490CF056FA002800F01B
:10193000B9802B785F2B00F0B5802C44204692496B
:101940000CF04AFA002800F0AD8020468F490CF0D8
:1019500043FA002840F0A2800EA803F0D7F982468F
:10196000284606F081F8002836D0894E8949336828
:1019700022225B68304698470DF15809304608F03E
:10198000FBFF4846294605F0CDFFD9F80030002B73
:1019900040F0AB80336880495B687D4815229847EA
:1019A000D9F804107A480A22002308F0F5FF3368BA
:1019B00077485B68794906229847754808F0DCFF4C
:1019C000336877495B6872481D229847704808F071
:1019D000D3FF284606F08AF828465146002206F032
:1019E00091F8002843D0294602A805F09BFF6D48D6
:1019F000049CFFF76BF94FF4FA7007F08BFD284653
:101A0000FFF764F94FF4FA7007F084FD029B00932E
:101A1000002B00F09C80BAF1000F00F09F80039F24
:101A20005B4E00250DF1580914E0A74207D9BB46CB
:101A30003A1B00984946204405F02AFA5C46326871
:101A40005348D2F804C0584945440122E047AA450A
:101A500040F284804FF480720EA8494603F046F9A4
:101A60000219BA428046E0D893460246E1E7484E62
:101A70004E4933685B68304617229847304608F075
:101A80007BFF4B48FFF722F94FF47A7007F042FDD5
:101A90000EA803F03FF9322007F03CFD0EA803F03A
:101AA00015F924E70EA803F035F90EA803F00EF996
:101AB0001DE7A01E36E7019B002B40D03D48FFF7F5
:101AC00005F94FF4FA7007F025FD0EA803F0FEF8B3
:101AD00006A803F01FF9019B06A81FFA83F803F07C
:101AE000F5F8404657B0BDE8F08F0EA8D9F804408D
:101AF00003F00CF984427FF44DAF33682E495B68E4
:101B0000252230469847304608F036FF0EA8494651
:101B1000FFF790FE002863D0336828495B681822DD
:101B200030469847304608F027FF019B0EA8013346
:101B3000019303F0EFF80EA803F0C8F8D7E62048A9
:101B4000FFF7C4F84FF4FA6007F0E4FCBDE7104E6D
:101B50001C49336830465B6825228EE7019B0C48A0
:101B60000133019308F008FF92E700BF6CBCFF1F30
:101B7000ECC9FF1F841101009411010040EDFF1F0B
:101B8000AC110100DC110100E4110100EC110100B5
:101B900094F2FF1FF4110100CC120100E4120100C5
:101BA0004C1201006C120100A81101007C1201000E
:101BB00094120100D0110100A412010018120100BA
:101BC000C0110100EC1201000A48FFF77FF84FF442
:101BD0007A7007F09FFCA046404657B0BDE8F08FF2
:101BE000336805495B68304615229847304608F04F
:101BF000C3FEE5E6B01101003412010010B5FFF795
:101C000055FE074B002204464FF4FA601A805A80B2
:101C100007F080FC034A044B12681A60204610BD8E
:101C20006CBCFF1F4CF1FF1F84C9FF1F2DE9F0475B
:101C3000364BDFF8F08094B000271F8004AD2846B3
:101C400040216A46BEB206F05FF8002858D08036C0
:101C50004FEA46092B4607CB09EB060E06EB8E0E24
:101C600008EB0E0448F80E001B78616028482373C7
:101C70002946A26001F07AFC0098DFF8ACA0254C60
:101C80000AF028FD24490AF07DFD0AF067FF4AF8B2
:101C900026001F4801F0FAFC00900AF01BFD1E49C7
:101CA0000AF070FD0AF05AFF44F82600184801F0C7
:101CB000E5FC002301A9EA5C2E2AA2F1410413D01D
:101CC000192C98BF20325A540133092BF3D10B46FB
:101CD00003CB124A1C78B14406EB89069319905144
:101CE000013759601C72AAE714AA1344202203F892
:101CF0004C2C03F84B2C03F84A2C03F8492CE6E74C
:101D0000074B30461E8014B0BDE8F087B6EFFF1FCA
:101D100008EBFF1F7CD4FF1F0AD7233C8CDDFF1F7D
:101D20000EDDFF1F80BCFF1FB8D8FF1F2DE9F04755
:101D300094B014AE04A802F0BBFF8D498D4A8E4CBE
:101D40008E4F0CA8012303F09BF856F8133D0E9913
:101D50009DF834909DF83C80D6F804C0D6F808E091
:101D6000139A357BA16084F8049084F80C800CA849
:101D7000C4F80D30C4F811C0C4F815E0E26165760E
:101D800002F0A4FF21460CA8012203F0FDF8306800
:101D9000D6F804C0D6F808E0357B9DF834400E9A9A
:101DA0009DF83C10139BCDF81D000CA8CDF821C068
:101DB000CDF825E08DF829508DF8144006928DF865
:101DC0001C100B9302F082FF04A802F0AFFF002862
:101DD00049D03B887F2B46D804A802F07DFF002421
:101DE00005462B5D2E2B4ED0002B4CD00134082CF9
:101DF000F7D10620284462490BF0EEFF00283ED0C0
:101E00002B785F2B3BD028195E490BF0E5FF044689
:101E100000283AD004A802F07DFF0CA85649012200
:101E200003F0B2F89DF834000E9A9DF83CC0D6F845
:101E300000E07568B468317B139B8DF814000CA822
:101E400006928DF81CC0CDF81DE0CDF82150CDF8DC
:101E500025408DF829100B9302F038FF04A802F0FA
:101E600065FF0028B5D1444803F0EAF8424802F083
:101E700051FF04A802F02AFF14B0BDE8F08701204A
:101E800007F048FBC6E7A01EB4E73B883E49D5F8FB
:101E90000080D5F804C0D5F808E03C48DFF8F89099
:101EA00003EB430203EB82028B1841F80280C3F874
:101EB00004C0C3F808E02A7B1A73294600F062FFC9
:101EC000052007F027FB3148DFF8D08001F00CFA3D
:101ED0000AF000FC2E49B7F800A00AF053FC0AF003
:101EE0003DFE0AF0F7FB2B490AF04CFC0AF036FEE7
:101EF00049F82A00254801F0EBF90AF0EBFB2549E7
:101F0000B7F800900AF03EFC0AF028FE48F82900D5
:101F10001E4800F009FF204601A92B5C2E2BA3F1DF
:101F2000410219D0192A98BF20334354013009289F
:101F3000F3D13A88DFF868E00B4603CB02EB4205A9
:101F400002EB85050EEB050401321B784EF8050007
:101F50003A80616023725DE714AB1844202300F8D7
:101F60004C3C00F84B3C00F84A3C00F8493CE0E7A8
:101F700040EDFF1FAC11010038BCFF1F78D4FF1FDC
:101F800014130100E411010080BCFF1F4CCAFF1FA5
:101F90006666663F0AD7233CB8D8FF1F7CD4FF1F74
:101FA0008CDDFF1F10B5962007F0B4FA002006F074
:101FB000A7FE0A2006F0CAFE202006F0F7FE052044
:101FC000022107F065FA0820022107F061FA1520C6
:101FD000022107F05DFA0D20022107F059FA0020D6
:101FE000022107F055FA0620012107F051FA5D4B56
:101FF0005D4810221A60232108F0D6F95B4B5C493A
:102000001C785C4A5C4844F005041C7006F0E4FA55
:10201000FEF706FF4FF47A7007F07CFA57480A2162
:1020200002F08CFE38B95648FEF750FE4FF47A7035
:1020300007F070FAF7E75349534A544C002306203F
:102040008B61CB610B624B629361D361136253620C
:1020500005F026FB2080152007F00CFA238820B914
:102060003BB1FFF7CBFD2080034613B1FFF7DEFD48
:102070002080FFF75BFE46494648474C43F69722CF
:1020800008F03AFC4549464A464808F035FC3020FD
:102090000BF07CF8206030200BF078F860600020B6
:1020A000FFF794FB05204049022207F061F9082060
:1020B0003E49022207F05CF901203D49042207F065
:1020C00057F902203A49042207F052F9002007F09C
:1020D000D1F908B9FEF73AFFFEF76AFB00283ED1B6
:1020E000344B40F2FF12DA809A805A801A802368BB
:1020F00024485A6A0021FEF7D9F9236821485A6A10
:102100000121FEF7D3F923681E485A6A0221FEF71F
:10211000CDF923681B485A6A0321FEF7C7F96368A3
:1021200019485A6A0021FEF7C1F9636816485A6ACD
:102130000121FEF7BBF9636813485A6A0221FEF7D2
:10214000B5F9636810485A6A0321FEF7AFF94FF4F6
:102150007A7007F0DFF9BDE81040FEF735BEFEF7F4
:1021600041FBC4E7C4F00F400082FF1F76F2FF1F5F
:10217000C8B2FF1FD97D000014DDFF1F40EDFF1F17
:102180001C130100F0C9FF1FD4CCFF1FECC9FF1FB7
:102190007104000058BCFF1F0CCDFF1F6504000038
:1021A0005FE31600E8DCFF1F61ADFF1F6DADFF1F91
:1021B0007D04000000EBFF1F2DE9F84FB14FB24E38
:1021C000B24CDFF858B3DFF858A3B14DDFF85493A1
:1021D000DFF8548306F0AAFE384602F069FD324665
:1021E000AC4938460AF09AFFAB48AC4FFEF790FA7C
:1021F00032462146A8480AF091FFA948FEF788FA1E
:1022000021463246A6480AF089FFA648FEF780FA22
:1022100021463246A3480AF081FFA348FEF778FA28
:1022200021463246A0480AF079FFA048FEF79AFA04
:102230009F48FEF797FA9F48FEF794FA9E48FEF7EC
:1022400091FA0BF1240258460121FEF705FA4FF0EE
:10225000FF340AF1240250460121CBF80050CBF89C
:102260001840FEF7F9F99548CAF8005000F1240229
:102270000121CAF81840FEF7EFF991488F4B00F1A1
:10228000240201211D609C61FEF7E6F98C4B09F1E7
:102290002402484601211D609C61FEF7DDF908F12A
:1022A000240240460121C9F80050C9F81840FEF741
:1022B000D3F98448C8F8005000F124020121C8F87D
:1022C0001840FEF7C9F980487E4B00F12402012135
:1022D0001D609C61FEF7C0F97B4B7C481D609C61D2
:1022E000FEF7E2F97A48FEF7DFF9022107F118025A
:1022F0003846FEF7B1F9774B3B60384600F0B0FB4B
:10230000754A654B0024104682E80808147254721E
:10231000D46008F02DF9714A614B1472104682E8BE
:1023200008045472D46008F023F96D4A5D4B1360C1
:102330001046624B536014725472D46008F018F95E
:10234000684A594B136010465D4B536014725472C7
:10235000D46008F00DF9644A544B1472104682E8B8
:1023600008025472D46008F003F9604A504B1472AA
:10237000104682E808015472D46008F0F9F85C4A0B
:102380004C4B136010464F4B536014725472D46020
:1023900008F0EEF8574A484B136010464A4B53601A
:1023A00014725472D46008F0E3F8534A474BC2F8F1
:1023B00000B01046536014725472D46008F0D8F81C
:1023C0004E4A424BC2F800A00125104653601472D9
:1023D000D460557208F0CCF8494A3C4BC2F80090E2
:1023E0004FF0020A104653601472D46082F809A0BC
:1023F00008F0BEF8434A354BC2F800804FF003099D
:10240000104653601472D46082F8099008F0B0F856
:102410003D4A2A4B136010462D4B53601472547280
:10242000D46008F0A5F8394A254B13601046284BB4
:10243000536014725572D46008F09AF8344A214BF4
:1024400013601046224B5360147282F809A0D460C6
:1024500008F08EF82F4A1C4B136010461C4B53603B
:10246000147282F80990D46008F082F82A4A174B57
:102470001472104682E888005472D46008F078F82C
:1024800054E000BF38BCFF1F78ADFF1F8904000077
:10249000E0150100CD4C00004CCAFF1FB0EAFF1F41
:1024A0001CCDFF1F90CFFF1F04D2FF1F08EBFF1FA3
:1024B00040EBFF1F74EBFF1FA8EBFF1F40ECFF1F5B
:1024C00068ECFF1F90C9FF1F60DDFF1FF0C9FF1FF1
:1024D000D4CCFF1F00160100FCDCFF1FBCC9FF1F8E
:1024E000CCC9FF1FDCC9FF1FDCEBFF1FC8DCFF1FCF
:1024F00070BCFF1FB8DCFF1FA8D8FF1F90EAFF1FAA
:10250000A0EAFF1F3CCAFF1FD8DCFF1FC0CCFF1F83
:1025100090ECFF1F18BCFF1FA0ECFF1FF0EBFF1F8C
:1025200018ECFF1F80D8FF1FD0EAFF1F1049114B86
:102530000C72084681E888004D72CC6008F018F8EB
:1025400029460D4D0D485246802704F099F82C700D
:102550006F7328460A4D0B4932460AF0DFFD6F7350
:10256000324628462C700749BDE8F84F0AF0D6BD20
:1025700028BCFF1FD4CCFF1FE8DCFF1F28CAFF1FA9
:1025800058BCFF1FA10400002DE9F843846981466F
:10259000002C45D0631C4FF000014DD007F0C6FF62
:1025A0008046002841D0D9F81C1099F820002A4E06
:1025B000002306E071453CD20C440233B3F5807F22
:1025C00022D0220E551C36F912E036F9157008EBB0
:1025D0000302C4F30F2505FB07F7C5F580350EFB95
:1025E0000575B2F904702D1405FB07F5ED136FEABC
:1025F000040E95800028DDD1A14218D20233B3F534
:10260000807FC1EB0404DCD14846C9F8184041463C
:10261000002207F065FF4046BDE8F84307F03CBFE5
:10262000214607F077FF0028F6D1BDE8F88304467D
:10263000C3E74FF0FF34C0E707F06CFF0446002803
:10264000F3D048462146002207F04AFF2046BDE865
:10265000F84307F021BF00BFD013010072B68369B1
:102660004BB1013304BF6FF001038361C16180F896
:10267000202062B6704701238361C16180F8202069
:1026800062B6704710B5044608F05AF8204610BDEF
:1026900002480349034A0AF041BD00BFB4ECFF1FE2
:1026A0008526000078ADFF1F02480349034A0AF05F
:1026B00035BD00BFBCECFF1F8526000078ADFF1FB5
:1026C000B2F5803F70B400F5807614D051F8043B29
:1026D00032FB03F532FB13F305F30F0503F30F038E
:1026E000C5EA0343046893FA14F440F8044B8642A5
:1026F000ECD170BC70470023C258CC5892FA14F247
:10270000C250CD18C2186D68546894FA15F4083395
:10271000B3F5807F5460EFD170BC70472DE9F04174
:10272000002480460546264640462146DEB107F095
:10273000F1FE074638B1301D391DAA69FFF7C0FF09
:10274000384607F0A9FE0134042C05F10405EBD14D
:102750002EB340463146002207F0C2FE3046BDE8A7
:10276000F04107F099BE07F0E1FE06460028EAD0E6
:10277000A969B1F5803FE6D0031D00F582771A689C
:1027800031FB02F031FB12F200F30F0002F30F02F3
:10279000C0EA024243F8042B9F42F0D8D3E7BDE8D9
:1027A000F08100BF02480349034A0AF0B7BC00BFEA
:1027B000C4ECFF1F8526000078ADFF1F2DE9F04116
:1027C000344B354D1A68354912681B790B70AA4293
:1027D00016D2334B1B78002B42D0324F324B386825
:1027E0004FF080422C461A6005F5807570B924F8C8
:1027F000040BA54219D924F8040BA542F7D814E01C
:10280000A5F58074274F38680028F0D0274E31880E
:1028100000EB4103043333F8022B24F8042BA542C8
:10282000F9D840317F2929D83180214F3868FE3CC2
:1028300080B1204E318800EB4103043333F8022B82
:1028400024F8042BA542F9D840317F290CD83180D7
:10285000BDE8F08124F8040BA542FBD8BDE8F08167
:102860002C4605F58075CDE70024348007F014FE72
:10287000114B1A683A601C60BDE8F0814FF0000807
:10288000A6F8008007F008FE0C4B1A683A60C3F8FF
:102890000080CAE7D0ECFF1F8CA6FF1F1F800040FE
:1028A000E8ECFF1FE0ECFF1F08E200E0CCECFF1FAC
:1028B000D8ECFF1FDCECFF1FE4ECFF1FECECFF1F6C
:1028C00070B50021054607F025FE034680B172B6BB
:1028D0001B490A68002A29D01A4C206800B31A4EF6
:1028E000086000212360318062B6104607F0D4FDF5
:1028F0002846012107F00EFE88B172B6134A13680C
:10290000CBB113490C6874B1124D146000220860F9
:102910002A8062B61846BDE8704007F0BDBD70BDA4
:10292000236062B6E4E7086062B670BD06480B60DB
:10293000028062B6DCE7074910600B8062B670BDAA
:10294000E0ECFF1FECECFF1FCCECFF1FD8ECFF1FEF
:10295000E4ECFF1FDCECFF1F294B2A4A18682A49C8
:1029600040F400402DE9F00F1860106840F00200BC
:1029700010601A6842F002021A600B68002B3CDB00
:10298000224B1B68002B38DB214E224C2248234D62
:10299000234A244BDFF8B4B0DFF8B4A0DFF8B490DA
:1029A000DFF8B480DFF8B4C04FF08647376047F2F5
:1029B0005406266000240460012028601A4D8D60B2
:1029C0004FF480311160194A1A60194BCBF800306E
:1029D000CAF80040174CC9F80000C8F80040CCF80D
:1029E00000101549154F0A60154E164D164A4FF442
:1029F000C0601360386030602860BDE8F00F704739
:102A00003C8004404080044000F0024080F00240DE
:102A100000F1024004F1024060F0024004F0024084
:102A20000CF0024010F00240030000071B0F0100F1
:102A3000000F0F0F0300004790F0024008B0044061
:102A40000CB0044018B0044094F0024014F002406E
:102A5000E0F0024084F0024088F002408CF0024036
:102A6000F8B5314D0121284607F0F6FD2F4A304BCD
:102A7000002414601C60FFF76FFF2E4B2A792E484C
:102A80002E494FF4C0661E602B681E6818601869D6
:102A9000196102F180424FF48071D88AD98202F51F
:102AA0000432D88BD98302204FF0FF3101266FF01A
:102AB000010C4FF0060E8F275C715C729C72DC7209
:102AC0001C731C755C751C765C769C76DC7683F8D2
:102AD0000DC09E71B3F81CC0DE719973D973187163
:102AE000A3F81CE018721470177007F059FD2B79C9
:102AF000134A1449144C10700B705A112168134872
:102B0000134D920002F1604203F01F0741F01241A1
:102B100002F561421033BE4041F00101216040F8EE
:102B200023501660F8BD00BFD0ECFF1FE0ECFF1F84
:102B3000D8ECFF1F04B004408CA5FF1F20F002401A
:102B4000E8ECFF1F1B80004000F0024000A8FF1FC0
:102B5000BD27000002480349034A0AF0DFBA00BF5C
:102B6000D0ECFF1F8526000078ADFF1F0248034907
:102B7000034A0AF0D3BA00BFF0ECFF1F852600001D
:102B800078ADFF1F38B50446C06D0C23002584F8CE
:102B90006B3284F86C32256510B107F07DFCE56579
:102BA000206E18B107F078FC0023236638BD00BF03
:102BB000F8B500F11806044630460F4602F0B6F8A4
:102BC000054670B9194B1A8822B95E2001F0BEFF84
:102BD0002846F8BD013A92B21A80002AF5D028465C
:102BE000F8BD72B65E2001F097FF104B1A88304690
:102BF000013200211A8002F07FF862B600230C2611
:102C00000121082201377F02142084F86C6284F8C5
:102C10006E1284F86B2284F86A322065C4F87072F0
:102C2000A4F86832A4F866322846F8BDF8ECFF1F15
:102C300070B500F118050446284602F077F800B395
:102C400072B600230C22E06D266E84F86B22E365D9
:102C5000236662B608B107F01FFC16B1304607F0D4
:102C60001BFC284602F056F8064B1A8822B95E2053
:102C7000BDE8704001F06ABF013A92B21A80002AA2
:102C8000F5D070BDF8ECFF1F2DE9F04188B00F467C
:102C90000446FFF7CDFF72B6214D5E2001F03CFFE8
:102CA0002E88204901233A46684601362E8002F0DC
:102CB000E7F808AB9DF8040053F813CD0299D3F858
:102CC00004E09F681E7B9DF80C80079B20772162A3
:102CD000684684F82480C4F825C0C4F829E0C4F804
:102CE0002D7084F83160636301F0F0FF62B604F187
:102CF000180002F01BF8044620B92B8833B95E2077
:102D000001F024FF204608B0BDE8F081013B9BB2F2
:102D10002B80002BF6D15E2001F018FFF2E700BFF8
:102D2000F8ECFF1F40EDFF1F38B5044672B690F86F
:102D30006B320C2B21D000230C22C06D256EE36575
:102D4000236684F86B2262B608B107F0A5FB15B1C3
:102D5000284607F0A1FB04F1180001F0DBFF084B47
:102D60001A8822B95E20BDE8384001F0EFBE013A72
:102D700092B21A80002AF5D038BD62B638BD00BFC5
:102D8000F8ECFF1F2DE9F04188B00F460446FFF72D
:102D9000CBFF72B62A4E5E2001F0BEFE358829496F
:102DA00001233A4668460135358002F069F808ABE0
:102DB0009DF8040053F813CD0299D3F804E09F68FE
:102DC0001D7B9DF80C80079B20772162684684F864
:102DD0002480C4F825C0C4F829E0C4F82D7084F814
:102DE0003150636301F072FF62B604F1180001F024
:102DF0009DFF054640B93388CBB95E2001F0A6FEA1
:102E0000284608B0BDE8F08100230C2014210822D8
:102E1000A4F86832A4F8663284F86A3284F86C0246
:102E2000216584F86B22284608B0BDE8F081013B9B
:102E30009BB23380002BF6D15E2001F087FEDFE7E6
:102E4000F8ECFF1F40EDFF1F10B5034672B690F877
:102E50006B220C2A1DD000220C21C06D1C6EDA657D
:102E60001A6683F86B1262B608B107F015FB14B14D
:102E7000204607F011FB084B1A8822B95E20BDE8F6
:102E8000104001F063BE013A92B21A80002AF5D0D8
:102E900010BD62B610BD00BFF8ECFF1F836B9AB285
:102EA000012A01D000207047C26B4AF644418A4291
:102EB00022D045F222618A421BD042F611318A4269
:102EC000F0D10F4904221B0C012B04D0022BE9D1B5
:102ED000490842F00102B0F84630082B04D0102B0C
:102EE000E0D1490842F00202816580F86C2201209D
:102EF000704704490422E6E703490022E3E700BFE4
:102F000034EE35171AF79A0B8D7BCD052DE9F04F6E
:102F1000B0F86632034483B004460E4603F1660BF4
:102F200000295AD0DFF8D492B24DDFF8D4A2082796
:102F30004FF0000894F86B220C2A00F24481DFE87D
:102F400012F04C004C00FF00D2004C004C004C0032
:102F50004C000D0050008B00BD004C00226D94F819
:102F60006A12964234BFB446944604F13800624671
:102F700008445946CDF800C005F030FDDDF800C02A
:102F800094F86A02B4F86612226D60446144CCEB96
:102F9000020284F86A02A4F866122265EAB9A16BFB
:102FA000A94240F01081216C514540F00C81616CC8
:102FB000914B994240F00781A16CA1F110000828C3
:102FC00000F201810920CCEB0606E344216584F878
:102FD0006A2284F86B02002EACD1002003B0BDE859
:102FE000F08F226D94F86A12964234BFB44694462C
:102FF00004F13800624608445946CDF800C005F097
:10300000EDFCDDF800C094F86A02B4F86612226D97
:1030100060446144CCEB020284F86A02A4F86612B0
:103020002265002AD9D120460192CDF800C0FFF7D1
:1030300035FF019ADDF800C0002800F0C4800A21A5
:10304000CCEB0606E344276584F86A2284F86B1209
:10305000002E7FF46FAFC0E7226D94F86A1296429B
:1030600034BFB446944604F13800624608445946D9
:10307000CDF800C005F0B2FCDDF800C094F86A029B
:10308000B4F86612226D60446144CCEB020284F80D
:103090006A02A4F866122265002A9ED1A16BE06B39
:1030A00020654945E344CCEB060600F0AB800B22DB
:1030B00084F86B22002E7FF43DAF8EE7226D96429E
:1030C000C0F0FD80B4F86602276510440A21B61AE4
:1030D000934484F86A82A4F8660284F86B12002E86
:1030E0007FF428AF79E7226D94F86D12964228BFDD
:1030F0001646921B226500296FD0E16DB4F864007A
:10310000A56B01EB4007BD805D46276E9BF80180F3
:1031100015F802CB431C9BB207EB40007F2B4CEA17
:103120000827A4F86430A6F10206878000F2AC807C
:10313000002E51D1002A57D084F86D6230464DE7F9
:10314000206DE16D864228BF0646801B0BF102050B
:10315000206502E00235002E65D0B4F8642015F831
:10316000027C15F801CC531C9BB201EB420247EAEA
:103170000C277F2BA4F86430A6F102069780E9D9CA
:103180002046002207F0ACF901222046E16D07F04D
:10319000A7F9E06D07F080F9236D206E04F1660257
:1031A0001E44AD1A00232665A4F86652E36510B1EB
:1031B00007F072F9266D16B90C2384F86B320120E2
:1031C00003B0BDE8F08F0C23002084F86C3284F843
:1031D0006B3203B0BDE8F08FAB46023E9BF8005067
:1031E0009BF8017026D18ABB0C2384F86B32002037
:1031F000F4E600BF52494646666D7420646174610E
:103200005741564594F86E1271BB94F86C2284F8BD
:103210006D82D30784F86B2220D4226D6265002E64
:103220007FF488AED9E600287FF4D7AE0C2384F86B
:103230006B32D3E6E16DB4F8640001EB400C45EA73
:1032400007250BF1020BACF804505DE745EA0725B2
:103250000223A563304684F86D32BFE607F0D2F84A
:1032600020660028D9D1B8E6D4F87012019204F192
:10327000180001F041FD206DD4F87012019A84F815
:103280006E22411A2165C0E70022204607F028F986
:103290000027E06D07F000F901222046216EE76566
:1032A00007F01EF9206E07F0F7F8236D276604F18A
:1032B00066021E44AD1A2665A4F866527BE7B4F890
:1032C0006632921B1E442265A4F86662002085E6E1
:1032D00090F86B32072B05D8436D826DA2FB032358
:1032E000184670470020704790F86B32072B94BF48
:1032F000406D0020704700BF2DE9F04190F86B321F
:103300000C2B044600F0998007F07CF8E06500285B
:1033100000F0938094F86B32072B40F290800023EA
:103320002366B4F86812B4F866220023891A994219
:10333000A4F8643005DD2046FFF7E8FD002840F0E2
:10334000928094F86B320C2B27D004F1180630468B
:1033500001F028FC08B304F166074FF000080FE005
:10336000A4F8668294F86B52FFF7D0FD94F86B32A4
:10337000002860D10C2B10D0072D1AD9072B18D894
:10338000394630464FF4007201F0B0FC83B2194662
:103390002046A4F86832002BE2D1374B1A88002A65
:1033A0005BD15E2001F0D2FB0C2384F86C3284F8F0
:1033B0006B32E06D00B3B4F86460CEB17F2E0BD8F1
:1033C00077000023C7F5807700EB46061D46F2180C
:1033D0000233BB429580FAD101460022204607F015
:1033E0007FF894F86B32072B01D8DB073DD5E06DF1
:1033F00007F052F80023E365206EF0B1B4F8646082
:103400009EB17F2E0BD877000023C7F5807700EBA5
:1034100046061D46F2180233BB429580FAD101469A
:103420000122204607F05CF8206E07F035F80023F3
:103430002366BDE8F0810C2BAFD0BDE8F081DA0740
:103440007FF56DAF06F0DEFF206600287FF469AFE0
:10345000E06DBDE8F04107F01FB8013A92B21A8062
:10346000002A9ED0A0E7BDE8F0812046E16D012250
:1034700007F036F8BBE700BFF8ECFF1F90F83030DC
:103480002DE9F04107460BB9BDE8F08106F0BAFF1F
:1034900080460028F8D0F9693B6A99422BD9CC1AAA
:1034A00029D003F58072B8699142184408F10401EB
:1034B00035D2224603F03EFA3B6AFA6A234422449C
:1034C00064087F2C3B62FA620BD86600002308EB8D
:1034D0004405C6F580761C46EA180233B342948050
:1034E000FAD138464146002206F0FAFF4046BDE8D0
:1034F000F04106F0D1BF104B1A8852B95E2001F09E
:1035000025FB002387F830304046BDE8F04106F047
:10351000C3BF013A92B21A80002AEFD0F1E74FF40C
:10352000807203F007FA3B6AFA6A03F5807302F5CA
:1035300080723B62FA62D4E7F8ECFF1F002380F848
:10354000303062B6054B1A881AB1013A92B21A802D
:1035500012B95E2001F0FABA704700BFF8ECFF1F05
:10356000002380F830308362C3627047F0B50E46A6
:1035700085B0044672B690F83030002B31D162B677
:10358000194D5E2001F0C8FA2B8831460133684698
:103590002B8004F0C7F96B4607CB04F118071E888F
:1035A000A061BE817960BA60A06940B10022E36980
:1035B000E2620120A36284F8300005B0F0BD2B88E0
:1035C0002BB95E2001F0C2FA002005B0F0BD013B2E
:1035D0009BB22B80002BF0D15E2001F0B7FA0020C7
:1035E000F3E7FFF7ABFFCBE7F8ECFF1FF0B50F46B3
:1035F00085B01646044672B690F83030002B37D1AD
:1036000062B61D4D5E2001F087FA2B8839460133E2
:1036100068462B8004F086F96B4607CB04F1180C42
:103620001F88A061ACF80C70CCF80410CCF808200E
:10363000A06958B1E369266200229E1B0123E26261
:10364000A662184684F8303005B0F0BD2B882BB93F
:103650005E2001F07BFA002005B0F0BD013B9BB27B
:103660002B80002BF0D15E2001F070FA0020F3E7F0
:10367000FFF764FFC5E700BFF8ECFF1F72B690F8D4
:1036800030300BB1FFF75ABF62B67047826A024B07
:10369000A2FB032318467047C6BDE6020369D3F8B0
:1036A0003801D3F83431C01A704700BF0369D3F82A
:1036B0003411D3F83821914208D2D3F83421991823
:1036C000013291F83000C3F8342170474FF0FF30D9
:1036D000704700BF0369D3F83411D3F83821914201
:1036E0003DBFD3F834219B1893F830004FF0FF30E2
:1036F000704700BF704700BF0369D3F84422B2F59A
:10370000817F10B405D9012303715DF8044B0020BB
:103710007047D3F844229C180132C3F8442284F83D
:103720003C1101205DF8044B704700BF70B4046980
:10373000D4F84432B3F5817F1FD8D4F84452D4F87A
:103740004432C5F5817501352344954203F59E73D6
:1037500002D201262A4606713AB19D1811F8014B92
:1037600003F8014BAB42F9D10469D4F84432134455
:10377000C4F84432104670BC70470123037170BC1A
:103780000020704738B503690A4A026093F848225E
:10379000022A044601D0204638BDD3F86052002DDD
:1037A000F9D0284606F0CCFF284607F0CFF820468F
:1037B00038BD00BF30160100F8B5C3681B789B0602
:1037C00004460D460ED4836880211970C368122107
:1037D000197090F84932012B06D08AB980F8482236
:1037E0000120F8BD0020F8BD1A4675B9394B4FF0DD
:1037F00080711960022A0FD0012084F84802F8BDB8
:10380000531E012BF1D90120F8BD012DF2D1314B0E
:103810004FF000711960EDE7D4F86062002E4BD0D4
:103820003379102B3BD03368DFF8B4C09A8B998B77
:10383000294F2A4992B242F008029A833379002D27
:1038400003F110004FEA631214BF65463D464FEA8C
:10385000820241F8205002F1604202F5614203F019
:103860001F034FF0010000FA03F1336811609A8BD7
:10387000998B92B242F002029A83337903F180432A
:1038800003F504334FF0000214BF972596251A70F4
:1038900002211D7084F8562284F84812F8BD304683
:1038A00006F04EFF304607F051F800230120C4F81F
:1038B000603284F84802F8BD082007F045F8314628
:1038C000074606F0C9FEC4F86072002FABD03E4632
:1038D000A6E700BF00E100E03549000000A8FF1F97
:1038E0004149000010B4984CA142034625D09748A6
:1038F00081422ED09648814237D0964881424CD0A2
:10390000954881423CD09548814255D094488142A7
:1039100000F087819348814200F090819248814273
:1039200000F097815868002101709C690846217059
:1039300083F84C225DF8044B70470D2A00F2928107
:10394000DFE802F05B6074568287656A6F8C79519C
:103950007E450C2A00F28B81DFE802F04F54944A36
:10396000999EA88A8F85A34539000B2A00F284818D
:10397000DFE802F0BAB5B0ABA64D525779A1392DA8
:10398000072A00F29181DFE812F012010D0108010F
:103990000001260121011C011701092A00F275818D
:1039A000DFE812F0B300A700EE00E900E400CC006D
:1039B000C700C200BD00B800052A00F27F81DFE821
:1039C00012F02B01210126011C0117010F0159687A
:1039D000002008700120996904240C705DF8044BE4
:1039E00083F84C2270475968022008700120F2E7E2
:1039F00059684F2008700120EDE759682C200870A5
:103A00000120E8E75968242008700120E3E759689D
:103A1000452008700120DEE759680D20087001205C
:103A2000D9E759680B2008700120D4E74168552078
:103A300008700120CFE74168052008700120CAE71F
:103A4000416801200870C6E741681920087001200C
:103A5000C1E74168132008700120BCE741680620D7
:103A600008700120B7E75968092008700120B2E703
:103A700059680C2008700120ADE759680A200870C9
:103A80000120A8E759681E2008700120A3E75968A3
:103A90001520087001209EE759680F20087001204A
:103AA00099E7596804200870012094E759680E20AE
:103AB000087001208FE759680320087001208AE709
:103AC000596814200870012085E75968852008701E
:103AD000012080E759681C20087001207BE75968A5
:103AE0005A200870012076E75968272008700120C5
:103AF00071E75968552008700120996903240C70FA
:103B00005DF8044B83F84C22704759689520087083
:103B10000120F2E75968002008700120EDE759689C
:103B2000022008700120E8E759680520087001208C
:103B3000E3E759680A2008700120DEE759680C2085
:103B400008700120D9E700BF00879303007E560369
:103B5000006CDC020051250200366E010024F400E6
:103B600000127A0000093D0080841E00596845203B
:103B700008700120C1E75968152008700120BCE7D2
:103B80005968852008700120B7E7596845200870FA
:103B90000120996902240C70CAE659681420087043
:103BA0000120F6E75968852008700120F1E759687F
:103BB0001F2008700120ECE75968002008700120E0
:103BC000E7E75968022008700120E2E759680520FC
:103BD00008700120DDE759680B2008700120D8E744
:103BE0005968002008700120996901240C709FE633
:103BF0005968032008700120F6E759680B20087007
:103C00000120F1E75968142008700120ECE7596899
:103C1000432008700120E7E759681D200870012043
:103C2000E2E7032A45D801A151F822F0053C000043
:103C3000FB3B0000F13B0000E13B00007AB3012AAE
:103C400028D15968002008700120996900240C705F
:103C50006EE6B2B95A6800211170012099690022FC
:103C60000A7065E64268002010700D22B3E65A68BB
:103C7000002010700C22AEE65A68002010700B2253
:103C8000A9E65A6800201070E8E75A680020107012
:103C9000092232E75A68002010700122D5E75968DE
:103CA0000B2008700120D0E75A680020107007220E
:103CB0006FE75A6800201070032295E75A680020C9
:103CC0001070052290E700BFF0B583B004469DF860
:103CD000205035B1C0680078800602D5002003B0BE
:103CE000F0BD002B40F2036740F2646040F203260F
:103CF00084F84B3208BF074608BF4FF41976C1B9A4
:103D0000012A47D05DB1002B58D1194611200193EB
:103D100005F0BEFB019B1946102005F0B9FB334AA4
:103D2000334B002184F84A1216601E60012003B054
:103D3000F0BD0129FAD1042A16D05DB1002B43D180
:103D400019461F20019305F0A3FB019B19461A2079
:103D500005F09EFB274A284B0321012084F84A12D4
:103D600016601E6003B0F0BD5DB1002B38D119465E
:103D70001E20019305F08CFB019B19461D2005F0C8
:103D800087FB1E4A1E4B042184F84A12012017604B
:103D90001F60A4E755B1EBB919461220019305F055
:103DA00077FB019B1946132005F072FB154A164B51
:103DB000012184F84A1216601E60B7E70221112023
:103DC00005F066FB0221A7E702211F2005F060FB3A
:103DD0000221BCE70221122005F05AFB0221E2E792
:103DE00002211E2005F054FB0221C7E70CA004406D
:103DF00008A004402CB0044028B0044000D0044087
:103E000004D0044004A0044000A004402DE9F04187
:103E100082B00D46044611469DF820009DF82420EE
:103E20009DF828E09DF82C709DF83060002D35D16C
:103E3000DFF8E8C0DCF8008048F04008CCF80080EB
:103E40004FF0000C84F8491284F84EC2002937D193
:103E500063692020187023681970E36919700021C4
:103E60007346009120462946FFF72EFF94F84A3208
:103E7000022B0CBF274928493A462046FFF732FD5E
:103E8000294632462046FFF797FC94F849329BB307
:103E9000A368C0221A7002B0BDE8F081012DCFD115
:103EA000DFF878C0DCF8008048F08008CCF80080AB
:103EB0004FF0000C84F8491284F84EC20029C7D094
:103EC000616970B14FF0280C81F800C098422168F8
:103ED00018D95B00DBB20B704000E169C0B208701A
:103EE000BDE74FF0200C81F800C021685B00DBB219
:103EF0000B70E1690870B2E7A36880221A7002B003
:103F0000BDE8F0814000C0B20870E1695800C0B25D
:103F10000870A4E7000E270700879303348004404D
:103F20002DE9F04390F84A32042B83B004460E4644
:103F300047D82549254ACF5C12F80380002F40D08E
:103F4000B8F1000F3DD090F84B32002B14BF022186
:103F50000021384605F09CFA4046012105F084FA1C
:103F60004046012105F094FA384605F083FA0B2506
:103F70004FF0C8096B1EC0B913F0FF0515D00146FC
:103F8000404605F071FA4B46013B7FF4FDAF01213D
:103F9000404605F069FA4B46013B7FF4FDAF3846D9
:103FA00005F068FA6B1E0028E6D0002084F84E0267
:103FB00094F84A2294F84B32009031462046FFF79D
:103FC00083FE03B0BDE8F0835016010048160100DF
:103FD0002DE9F843054688461646994605F078FAD5
:103FE000AB681A789106074609D5B4221A7095F87D
:103FF0004832013B012B42D90120BDE8F883E6B9E4
:10400000EC68247804F0200404F0FF03002CF6D1BF
:10401000AA6885F84932B0231370AB681A78920603
:1040200014D51B7803F0200303F0FF00002BDED132
:10403000042385F84E32BDE8F88305F049FAC01B29
:104040008642DDD8AB681A789206EAD42846414603
:10405000FFF766FFEB681B7803F0200303F0FF0215
:1040600023B9AB6885F84922B0221A70AB681B7877
:1040700003F0200303F0FF00002BB8D1D8E705F0D0
:104080000FF80C4A0C4BB8F1000F14BF114619463B
:1040900009788842B0DC0F2807DDB8F1000F18BF9F
:1040A00013461038C2B21A70A6E7012089F8000042
:1040B000BDE8F88319E400E018E400E00369490072
:1040C00083F83C11036900220121C3F844120271F4
:1040D00083F84E22704700BF2DE9F043054683B0B8
:1040E000D0F8440200248DF807401F46144660B102
:1040F0000BB9D5F86472EB6812221A7028463A465A
:104100000DF10703FFF764FF10B903B0BDE8F083BA
:1041100095F84832B3B19DF807209AB9591E012984
:10412000F3D80126022B85F84E6285F84D42C5F87A
:10413000402261D0AB68F0221A702B6995F83C21BF
:104140001A70E2E705F0C4F9012385F84E32D5F87C
:10415000446285F84D428046E6B100264FF00209E0
:104160004FBBAA192B6992F83C211A70EC68217890
:104170008907FCD584F80090EB681978C9B2CA06A3
:1041800020D4CB072AD4D5F844320136B342E7D83D
:1041900095F84D42D5F84432B3428CBF0423002336
:1041A00085F84E32012CAB680CBF8022B0221A7009
:1041B00003B0BDE8F08305F08BF9C8EB000087423F
:1041C000CFD8E5E7AB688022072185F84E121A7038
:1041D000EB6810221A7095F84D42DBE746B10623D2
:1041E00085F84E32AB6880221A7095F84D42D1E7BF
:1041F000052385F84E32F5E7D5F84432042B99D9DA
:10420000D5F8601285F856620B68D5F84442DA7129
:1042100008681F681E7105F59F771F605A71067246
:1042200042728272C2720B68033CA0B2DE8BD883EA
:1042300009686442DC60CB8AC882D5F860122869BC
:104240000B68B0F1804F9A711C691A7518615A7524
:104250000B6801D39A6832B9002201205A729A720F
:10426000DA7218720B6800221A765A769A76DA7623
:1042700060E700BF036993F84E32043B042B0CD86F
:10428000DFE803F00305070309000420704702205C
:10429000704703207047012070470079003018BF35
:1042A0000120704790F84E32B3B190F84E32052B92
:1042B00012D090F84E32062B0ED090F84E32072BCB
:1042C0000AD090F84E32042B06D090F84E02B0F18E
:1042D00008035842584170470120704770B5154691
:1042E00004460AB9D0F8645205F0F2F806462046B2
:1042F000FFF7D8FF60BB002DF9D005F0E9F8801B6F
:104300008542F4D805F0E4F8801B854222D894F861
:104310004832022B1ED194F85632DBB12046FFF70B
:10432000C1FF0028FAD0042384F84E3294F84E32AC
:10433000012B13D1042384F84E32A023013B7FF4D8
:10434000FDAF94F84E02D0F1010038BF002070BDDF
:10435000002DD7D194F84E32012BEBD094F84E3289
:10436000022BE7D094F84E32032BE6D1E2E700BFF0
:10437000F8B5069C15460E4607461A4608462346DB
:104380002946FFF7A9FE304629462246FFF7A6FF39
:104390003846BDE8F840FFF76DBF00BFF8B5C36809
:1043A000044680681D780178C9B201F02002EDB2A0
:1043B00002F0FF071E4612B3CA0640F1828094F84D
:1043C0005622022A00F0F08094F85622032A00F0C8
:1043D000EB8094F84E32012B00F0C88194F84E32F5
:1043E000DBB2022B00F0108294F84E32042B00F066
:1043F000898180230370E36802221A70F8BDEA06FF
:104400002ED405F0400202F0FF0C6ABB01F010014F
:1044100001F0FF06002940F08C8094F84A2284F8CD
:104420005462002A00F0BE81012A00F01C82032A97
:1044300000F02E82042A00F0828122691178D4F8DB
:104440003821B2F5817FC9B207D8D4F83821A01835
:104450000132C4F8382180F8301002221A70F8BDF9
:1044600010226E061A7028D594F84E320A2B00F0EE
:10447000F38005F0040505F0FF03002D72D0A3685A
:104480000021D022092084F84E02C4F844121A7088
:104490002369D4F85C221978490884F84F120AB1CC
:1044A00090472369D4F84422002A00F0208194F830
:1044B0003C7101221F70C4F84022E36802221A7086
:1044C000F8BD94F85632022B00F09D8094F85632D5
:1044D000032B00F09880D4F83821D4F850320232FF
:1044E0009A4200F03E8194F84E22042A00F0348172
:1044F000D4F8382101329A4280F0D68094F84E32B6
:10450000042B00F0CC80D4F838312269591CC4F84F
:1045100038112344127883F8302094F84E32042B5B
:10452000CBD194F85532002BC7D1012384F85532F2
:10453000C3E715F0010540F0DD80D4F84022D4F83F
:1045400044329A4207D2D4F84032E218013392F84A
:104550003C51C4F8403223691D70A368D0221A7000
:10456000E3687AE794F84A2284F85432002A00F08B
:104570001381012A00F07181032A00F08481042A4A
:1045800000F0E480A368C0220A20002184F84E02D3
:10459000C4F838111A7023691B785B0884F84F320D
:1045A000E36802221A70F8BDD4F860120A68928B90
:1045B000100604D594F85622022A00F0B58094F82B
:1045C0005622032A54D0BE4A0B7912680121994021
:1045D00011423ED0BB4ABC491370D4F86022127914
:1045E0000A700023E90684F8563240F10B81A26874
:1045F0008021072084F84E021170E26812211170A8
:10460000C4F84032F8BDD4F860321A68928B1206B2
:1046100003D594F85622022A7BD094F85622032A16
:1046200000F0C780A64A1B79126801219940114207
:104630000FD0A549A34A0B70D4F860321B791370D0
:10464000A2680023802184F8563284F84E3211701B
:10465000E66802233370F8BDD4F85832002B3FF4DB
:1046600008AF0022C4F83421D4F83801984700E795
:104670001A781706FCD5954B0A791A70002384F82E
:104680005632D4F844222369013AC4F84022D4F8BF
:104690004022224492F83C211A70E668D9E794F847
:1046A0005532002B3FF42FAF94F84E220023042AFA
:1046B00084F8553201D084F84E32A368B0221A70C3
:1046C000D4F83831226994F84D12581CC4F83801D6
:1046D0002344127883F8302001297FF41EAF282369
:1046E000013B7FF4FDAFA36880221A7015E784F8C0
:1046F0003C21DEE6C02303702269E368127884F867
:104700004EC2AAE694F84D32012B42D0B02303707A
:10471000D3E66C4A1B791370A368E8221A7003234E
:10472000E66884F8563294E7664B0A791A70A368F3
:10473000F0221A700323E66884F8563289E71F20B6
:104740006349032204F014FEE36876E61F20604903
:10475000032204F00DFE15E794F85522002A7FF499
:10476000C7AEE8230370D4F85032C1E605F0100359
:1047700003F0FF02002B51D115F001055CD084F845
:104780005622D4F84032002B40F0A680052384F84E
:104790004E328023037090E612204E49032204F02B
:1047A000E7FDEFE612204B49032204F0E1FDE36848
:1047B00043E6464A1B791370002384F8563294F876
:1047C0004E22042A18BF84F84E32A368B0221A7011
:1047D000D4F85032226994F84D12013BC4F83831B4
:1047E000D4F83831581CC4F838012344127883F8BF
:1047F0003020012906D12823013B7FF4FDAFA368B7
:1048000080221A70E66824E7EE0633D4E90745D51E
:104810000522802384F84E2203704EE600230721F0
:10482000802284F8563284F84E120270E268122117
:104830001170C4F84032F8BDD4F840320133C4F8E6
:104840004032D4F8442293424AD394F84D3284F84B
:104850004E52012B7FF45AAF9BE711201D490322D2
:1048600004F086FD8EE611201A49032204F080FD33
:10487000E368E2E50722802384F84E220370E368B0
:1048800012221A70F8BD1E20114904F071FD79E65C
:104890001E200F4904F06CFDE368CEE594F8562223
:1048A000012A29D0D4F85032012B0CBFE823E02391
:1048B000032284F84E22037023691B78FDE500BFB4
:1048C0002C8000401F8000401E8000401C80004063
:1048D0000D4A0000014A0000062384F84E3258E7D2
:1048E00094F85632012B13D0D4F840222369224485
:1048F00092F83C211A70E0E5E12284F85632027009
:10490000D4F860320A4A1B79137023691B78D4E506
:104910000222F12384F856220370D4F86032044A4C
:104920001B791370236994F83D211A70C5E500BF07
:104930001B80004001480021FFF730BDE4ADFF1FA0
:1049400001480121FFF72ABD4CB0FF1F10B5C36815
:104950001B7803F02003044603F0FF02A3B990F88C
:104960004A3280F84E220BB3012B37D0032B39D0BB
:10497000042B3BD0D4F85832BBB10022C4F8342108
:10498000D4F83801984710BD90F854320133DBB2A7
:10499000012B80F854320DD994F84A327BB1012BA7
:1049A00028D0032B15D0042B0ED010BD122004F0FC
:1049B0002FFDDFE790F84932012BEDD110BD122019
:1049C000BDE8104004F024BD1F20BDE8104004F0F5
:1049D0001FBD1E20BDE8104004F01ABD112004F0D8
:1049E00017FDC7E71E2004F013FDC3E71F2004F0E6
:1049F0000FFDBFE71120BDE8104004F009BD00BF66
:104A000001480021FFF7A2BFE4ADFF1F01480121CB
:104A1000FFF79CBF4CB0FF1F2DE9F843134BDFF8A5
:104A20005C80134F134DDFF858901D6000244FF445
:104A30007A7641463A461C711C739E6018465C7338
:104A4000C3F8109008F06AFB0B4B3A46012709F5B2
:104A50001A791C711C735F7341461846C3F8109095
:104A60009E601D60BDE8F84308F058BB10EDFF1FC5
:104A700078ADFF1F30160100FCECFF1F85370000EA
:104A8000E4ADFF1F184A194B19491A48F0B41768CA
:104A9000194E1A4D1A4C47F4805717601E60DD609E
:104AA0001C6118600B78D90718D402F53F521C32EC
:104AB0004FF4107111609A0754BF124A124A5B07F3
:104AC0004FF4007154BF114B114B116054BF4FF4A0
:104AD00010724FF400721A60F0BC70470D4A4FF428
:104AE00000711160E7E700BF3C80044000C0024055
:104AF00076F2FF1F00001F8001401F0001100038E8
:104B0000011000781CB004400CC0044014B00440F4
:104B100004C0044008C004405E2870B410D84309A3
:104B20000849094A51F823501678012400F01F0063
:104B300004FA00F005439C40344341F823501470BC
:104B400070BC704724EDFF1F3CEDFF1F5E2810B4C2
:104B500014D843090B4A00F01F0052F823400121EA
:104B600001FA00F024EA000042F8230030B9064AB6
:104B7000107801FA03F320EA030313705DF8044B85
:104B8000704700BF24EDFF1F3CEDFF1F10B582B042
:104B900002AB026803F8011D546819460122A047C0
:104BA00002B010BDC06938B18169C26847F6FF73B1
:104BB000881A984228BF1846704700BF38B5C369A5
:104BC000044663B100251D7192B2C06901F048FA34
:104BD000E269127912B101232846237138BD0122FE
:104BE0002271184638BD00BF00B5C06983B030B12E
:104BF0000DF10701012200F0D5FF012804D04FF08C
:104C0000FF3003B05DF804FB9DF8070003B05DF8CA
:104C100004FB00BF10B50446C06982B040B10DF17D
:104C20000701012200F0BEFF012803D04FF0FF3042
:104C300002B010BDE0699DF80740C168013901F07C
:104C400089F8204602B010BDC06908B101F0B4B8BF
:104C5000704700BF2DE9F04104464FF47A731348C2
:104C6000A360002320602371237324200D46904607
:104C700008F08CFAE061B0B1074605F1200E286813
:104C80006968AA68EB683E460FC610357545374619
:104C9000F5D128683060414604F10D000C2209F07E
:104CA000D9F9002363762046BDE8F0816016010043
:104CB0004FF47A720449826000220160027102732B
:104CC000C2614273704700BF60160100014B036070
:104CD000704700BF601601000D307047C06920B1F9
:104CE0008079012894BF002001207047C06908B571
:104CF00008B100F057FF08BDC06908B520B101F048
:104D000029F8003018BF012008BD00BFC06900B1FC
:104D10008069704710B50446C06930B100F0B6FE36
:104D2000E06908F03BFA0023E36110BDC06918B1E7
:104D30008079003018BF0120704700BF38B50A469F
:104D40000121044600F03EFB08B9002038BD04F103
:104D5000100528462146012201F014FC40B104F15F
:104D60003800294600F0F6FE003018BF012038BD9B
:104D700002462146284601F005FC0028EFD100201C
:104D800038BD00BF2DE9F04F99B04FF0000A3B4EFF
:104D90008DF81CA00546103106A8934601930446E1
:104DA0008DF81EA08DF840A08DF842A006960F96B3
:104DB000174600F0CFFE0DF13C082F21384608F0D1
:104DC00091FFC7EB000903465FFA89F9394602A84B
:104DD00023B33B782F2B1FD0B9F10C0F28BF4FF016
:104DE0000C094A4609F036F918AB4B44404603F823
:104DF00058AC00F04BFE01234046214602AA01F0C8
:104E000023F903462046002B30D000F03FFE234616
:104E10004F4444469846D0E70137CEE7A369009354
:104E2000019B206994F804A094F8059094F80680FA
:104E3000D4F808C0E268217DCBEB070BC3F800B0C3
:104E4000E769009B246A286128462E6085F804A043
:104E500085F8059085F80680C5F808C0EA602975D0
:104E6000AB61EF612C6219B0BDE8F08F28462B7161
:104E70002E60AB7119B0BDE8F08F00BF8016010045
:104E80002DE9F04F9DB080461D4601A86B461446A3
:104E9000FFF778FF009AA15C1444002944D09DF8E4
:104EA0000A30374E0A9600218DF82C108DF82E10FE
:104EB000002B32D00AA801A922462B4601F0C4F8E3
:104EC00058B301A800F0E2FD15F0060F53D1109B76
:104ED0009DF82CB09DF82DA09DF82EC00D9D9DF83D
:104EE0003CE0119F139622460C9E0E9C199340465F
:104EF000129B8DF850B013A98DF851A08DF852C0B7
:104F00001596169517948DF860E01A971B93FFF786
:104F1000A1FE40461DB0BDE8F08F4046FFF7C8FE39
:104F200040461DB0BDE8F08F9DF80810049E144B5C
:104F30009DF809909DF80AC0039F059D9DF818E013
:104F4000079C8DF8501013931696089B099E0D4AE6
:104F50008DF85190404613A98DF852C015971795BA
:104F60008DF860E019941A931B96FFF773FE404684
:104F70001DB0BDE8F08F0AA8109900F0EBFEA6E77F
:104F800080160100AC1101002DE9F04D80469EB065
:104F90000C461646E06904A900F09AFE002846DD9A
:104FA0009DF81000002842D0E528F3D02E28F1D03B
:104FB0009DF81B0000F0080000F0FF050028E9D173
:104FC00004A869461D4F8DF834508DF836500C9763
:104FD00000F06AFDE16933466A460CA801F034F836
:104FE00028B3139B9DF834B09DF835A09DF836C0CA
:104FF0000F9E109D9DF844E0129C15971C930E9FE8
:10500000149B8DF858B06A46404615A98DF859A0F2
:105010008DF85AC01797189619958DF868E01B946B
:105020001D93FFF717FE40461EB0BDE8F08D4046C9
:10503000FFF73EFE40461EB0BDE8F08D8016010031
:1050400010B50446FFF74AFE18B1E36900229A60E2
:10505000DA6010BD084B094A9A63022100221961E7
:105060005A719A719A721A7383F8302083F83C202F
:1050700083F83E20704700BF40EDFF1F80160100FF
:105080001E4B1F4A30B41A60C2070FD519684FF083
:10509000004441F48061FF221960DC6219465A63C2
:1050A000CB6A164A002BFBDA936B0138052821D90D
:1050B0000321124C134A0023013399426263A0F189
:1050C0000200F9DC50B10D4A0E4D1446D36A13F0BC
:1050D000F00FFBD065630238A36BF7D141B1074AEB
:1050E0001046D36A13F0F00FFBD00139836BF8D16F
:1050F00030BC70474108DCD1E4E700BF00C002408B
:1051000000041F80FFFF009005281DD8DFE800F095
:1051100003030D1217080F4B0F4A1A60FFF7B2BCBA
:105120000C4B0E4A1A60FFF7ADBC0A4B0C4A1A60D2
:10513000FFF7A8BC074B0B4A1A60FFF7A3BC054B4F
:10514000094A1A60FFF79EBC024B084A1A60FFF733
:1051500099BC00BFA0EDFF1F000001B8043000386B
:1051600001100038032000380100023806500138D1
:1051700008B50121007904F077F90E4B1A7802B9CD
:1051800008BD0D4A127800211970002AF8D0D00706
:1051900003D50A490A4B09681960910703D50749E5
:1051A000084B496819605307EAD5044A064B9268D0
:1051B0001A6008BDA4EDFF1F3CEDFF1F30EDFF1F7F
:1051C00000E100E004E100E008E100E038B5044659
:1051D000008940F20123984205D92046FFF7C8FF15
:1051E0000023A37138BDC0F50070023040F20225E3
:1051F000FFF746FF2581F0E770B4204B1A7822B103
:105200000079002170BC04F02FB91D491D4A0C78AB
:10521000126801251D7004B372B60B78DC0707D540
:1052200019491A4C0E682468194D34402C600C60E2
:10523000990707D5174C154926684968144D314020
:10524000216069605B0707D51349104B0D689B68A7
:105250000F4C2B400B60A36062B6104BD968914293
:10526000CED00F4C1C600F49DA6042F080441C61C4
:1052700019600079002170BC04F0F6B8A4EDFF1F9E
:105280003CEDFF1FA0EDFF1F80E100E024EDFF1FBC
:1052900030EDFF1F84E100E088E100E000C0024043
:1052A00001401F0000001F801048114AF0B4076839
:1052B0001646BFB24FF00045FF24136843F48063E5
:1052C0001360D5625463D36A002BFCDAB36BDBB294
:1052D000FF2B07D003689BB2DB1B8B42EDDB00206A
:1052E000F0BC70470120F0BC704700BF4CF1FF1FBD
:1052F00000C002402DE9F041837905460F469046F3
:10530000002B5AD12846FFF777FF4FF496712846B5
:10531000FFF7CAFF2A4B18684FF0004140F4806045
:1053200047F040021860D96218465A63C36A002BDE
:10533000FCDA234C18204FF00042266828FA00F3CC
:1053400046F48066DBB22660E2626363E36A002BA8
:10535000FCDA083810F1080FEFD167B3082F0CBF43
:105360008721FF21164B1A684FF0004042F48062FB
:105370001A60D8621A465963D36A002BFCDA104AC5
:10538000002716464FF00044FF21136843F4806362
:105390001360D4625163D36A002BFCDAB36BD8B2CA
:1053A0001B06E87201D4BDE8F0810137B7F5807FB4
:1053B000EBD1BDE8F0819521D4E7FFF707FFA1E726
:1053C00000C002402DE9F84304460023904E0271CC
:1053D000884610462373A372A37163710121376855
:1053E00004F042F82079012104F052F820790121DB
:1053F00004F03AF8874B1A6842F480521A6006208B
:10540000FFF782FE844B854A1D781268BFB215B340
:1054100072B61978CD070BD58148824DD0F800C0FF
:105420002D68DFF814E20CEA0505CEF8005005609F
:1054300088070BD57C4D7B48D5F800C04068DFF865
:10544000F8E10CEA00002860CEF804004D0700F1F6
:10545000978062B61D78754BD968914207D0744821
:1054600018607449DA6042F08040186119606F4A30
:105470004FF00A094FF00040FF21136843F48063A6
:105480001360D0625163D36A002BFCDA09F1FF3359
:1054900013F0FF09F1D18DB1E80703D5664A674BD8
:1054A00012681A60A90703D5634A654B52681A60EF
:1054B0006A0703D5604A634B92681A602046FFF77B
:1054C0009BFE05E03368DB1B9BB2B3F5FA6F62D835
:1054D00000210A462046FFF70DFF01280546E0722D
:1054E000F0D1204608214FF4D572FFF703FF4307A0
:1054F00023D52573002505E03368DB1B9BB2B3F58C
:10550000FA6F4FD8372100222046FFF7F3FE2046DE
:1055100029212A46FFF7EEFEE0720028ECD1237B1A
:10552000022B41D02046FFF723FE4FF001094046F1
:10553000FFF7EAFD4846BDE8F8833C4A042094465C
:105540004FF0004EFF25136843F480631360C2F8E8
:105550002CE05563D36A002BFCDADCF83810431ECC
:10556000C9B213F0FF00E172EDD1AA294FF0020396
:1055700014D063712046FFF7FBFD4846BDE8F88371
:1055800031482849D0F800E089682B4D0EEA010126
:105590000160A9605DE701236371EBE723734FF0BE
:1055A0008045AFE70823E4E702463A212046FFF7AB
:1055B000A1FE50BB1D4B19684FF0004041F48061C3
:1055C000FF221960D86219465A63CB6A174A002B2A
:1055D000FBDA936B154A03F0C003C02B04BF03230F
:1055E0002373032116464FF00045FF20136843F450
:1055F00080631360D5625063D36A002BFCDA0139F3
:1056000011F0FF01B36BF1D18CE706236371B1E7B1
:105610004CF1FF1F3C8004403CEDFF1FA0EDFF1F3D
:1056200080E100E024EDFF1F84E100E000C00240C3
:1056300001401F0000001F8030EDFF1F00E100E06F
:1056400004E100E008E100E088E100E01649174AC3
:10565000F8B50F681646BFB24FF00045FF24136837
:1056600043F480631360D5625463D36A002BFCDA81
:10567000B36BDBB2FF2BC3720BD10B689BB2DB1B8E
:10568000B3F5967FEBDD0F234371FFF771FD00202B
:10569000F8BDFE2B05D00D234371FFF769FD0020F7
:1056A000F8BD0120F8BD00BF4CF1FF1F00C0024053
:1056B0002DE9F0411E4605461446002B61D01344E7
:1056C000B3F5007F13DC837913B103688B425BD0A1
:1056D0002B7B2960032B18BF49020A46284611215B
:1056E000FFF708FE074600287ED003236B7128468B
:1056F000FFF73EFD0020BDE8F081904617463C4490
:10570000069F069B2744BB421AD24049DFF804C1DA
:1057100008461C46CA6A12F0F00FFBD0C0F834C02D
:10572000836B6370C3F3072323700234A742F1D85D
:10573000069CE3433B4423F0010302331C440694DC
:10574000069A4744BA420ED23049069C0846CA6AB5
:1057500012F0F00FFBD0836B6370C3F30723237049
:105760000234A742F3D82B89AA7A33449BB22B8107
:1057700012B1B3F5007F04D3AB7913B12846FFF71C
:1057800025FD0120BDE8F08103899342A0D8204681
:10579000FFF776FC1D4B1E4A1A60F207344614D5FB
:1057A0001968069C4FF0004041F48061FF221960A7
:1057B000D8621946601C5A63CB6A144A002BFBDA84
:1057C000936B069A06901370741E052C16D94FF031
:1057D00006086FF0050703220C480E490023013329
:1057E00093424163FBDB8AE72846FFF72FFF00283F
:1057F0003FF47DAF01232F81AB71C8E762083FF40E
:105800007CAF57007F424FEA4208E5E700C0024004
:1058100000041F80FFFF009000B583B04FF40073B9
:1058200000920022FFF744FF03B05DF804FB00BFC5
:10583000F8B5314E336843F480654FF0004335606E
:105840003446F3621D467163334602F50077E16A20
:105850000029FCDA1E68117846F480661E60DD625D
:105860005963E16A0029FCDA1E685178023246F475
:105870008066BA421E60DD625963E8D11E49CA6A79
:105880001D4B002AFBDA1A684FF0004442F4806294
:10589000FF211A60DC621A465963D36A1649002B4D
:1058A000FBDA0C684FF0004244F48064FF230C6084
:1058B000CA620C464B63E36A0F4A002BFBDA11689D
:1058C0004FF0004441F48061FF231160D46211461F
:1058D0005363CB6A084A002BFBDA936BDBB203F00D
:1058E0001F02052AC37205D011234371FFF740FC44
:1058F0000020F8BD0120F8BD00C0024070B504468C
:10590000154631B9122343712046FFF731FC0020C0
:1059100070BD037B032B18BF49020A461821FFF70D
:10592000E9FC064630B1042320466371FFF720FCF2
:10593000002070BD2A462046FE21FFF779FF00288F
:10594000E2D020464FF41671FFF7AEFC10B91523D4
:105950006371D9E7324620460D21FFF7CBFCB8B979
:105960000D4B19684FF0004041F48061FF2219602F
:10597000D86219465A63CB6A074A002BFBDA936B4D
:1059800013F0FF0F04D12046FFF7F2FB012070BD9A
:1059900014236371B8E700BF00C00240014B024A04
:1059A0001A607047A0EDFF1F0320003838B590F94A
:1059B0000530002B044603DBBDE8384000F042BC54
:1059C0000069012100F068FCF8B1A379257D0F4A38
:1059D000012B02EB451598BFA3690D4A98BFEB61F7
:1059E000E36912686B831B0CAB8232B105F11800BE
:1059F00005F1160190472B8B6B82637903F07F03CF
:105A00006371BDE8384000F01DBC38BDB4EDFF1F28
:105A1000A8EDFF1F10B500F1080204460121006A3D
:105A200000F020FD50B1E3693BB96279A368E361FE
:105A300062F07F036371012010BD012010BD00BF23
:105A400070B50646FFF7E6FF98B1336AB1681A7C75
:105A50001C795D69023991407CB1013D0D4402E041
:105A600014F0FF0407D0601900F03AFC013C002854
:105A7000F6D1002070BD336A1A7CB3694FF400710F
:105A800001FA02F21344B361012070BD10B58379AD
:105A900004460BB9002010BDFFF788FF0028F9D09D
:105AA0000023A371012010BD002370B41C462E26D4
:105AB000C25C202ADDB204D0082D09D0651C0A552D
:105AC000ECB201330B2BF3D100230B5570BC7047A4
:105AD0000E550134E4B2C25CF0E700BF70B400239D
