:1000000000800020BD0100006D94000025940000D8
:1000100025940000259400002594000025940000FC
:100020002594000025940000259400006D940000A4
:100030006D940000259400006D940000159400005C
:100040006D9400006D9400006D9400006D940000AC
:100050006D9400006D9400006D9400006D9400009C
:100060006D9400006D9400006D9400006D9400008C
:100070006D9400006D9400006D9400006D9400007C
:100080006D9400006D9400006D9400006D9400006C
:100090006D9400006D9400006D9400006D9400005C
:1000A000B17F0000BD7F00006D9400006D940000E2
:1000B0006D9400006D9400006D9400006D9400003C
:1000C0006D9400006D9400006D9400006D9400002C
:1000D0006D9400006D9400006D9400006D9400001C
:1000E0006D9400006D9400006D9400006D9400000C
:1000F0006D9400007DB500006D9400007DBC000093
:100100006D940000A9C100006D9400006D94000082
:100110006D9400006D9400006D9400006D940000DB
:100120006D9400006D9400006D9400006D940000CB
:100130006D9400006D9400006D9400006D940000BB
:100140006D9400006D9400006D9400006D940000AB
:10015000F5AB00000DAC000025AC00003DAC00008C
:100160006D940000299C00006D9400006D940000C7
:100170006D9400006D9400006D9400006D9400007B
:100180006D9400006D9400006D9400006D9400006B
:100190006D9400006D9400006D9400006D9400005B
:1001A0006D9400006D9400006D9400006D9400004B
:1001B0006D9400006D94000051AA0000574B4CF262
:1001C000205210B51A804DF628121A8000BF00BFC9
:1001D00009F050F9524B4FF010621A60514A9A6080
:1001E000514ADA60A3F53043203B1A6812F480725A
:1001F00004D14E490A604FF4A8521A604C4B1A7849
:10020000110703D51A7842F008021A70494B4A4C7C
:100210004A482A221A704A4A00239918A14203D256
:10022000195899500433F8E7464B474900228B424E
:1002300002D243F8042BFAE74448454900235A58B0
:100240001A500433B3F5DE7FF9D1424B424A802184
:1002500003F8011B9342FBD1404B3C4A1A60404BD0
:100260000A221A70A3F5805324225A70A0221A7011
:100270009A799207FCD59A79D406FCD4394A9379B5
:1002800003F00C03082B374BF9D103221A714622D5
:100290005A719A799006FCD5324A9179314B4906C8
:1002A000FBD5314A4FF08271116009215160202243
:1002B0001A709A7902F00C020C2AFAD12B4B2C4AB4
:1002C0001A602C4B2C4A1A6000225A60072243F80D
:1002D000042C2A4AC3F80C2D62B609F063FB134BB9
:1002E0001B68DA0705D5264809F0F2FA254B264A9D
:1002F0001A60264B1B785B0609D5224C224A2368DC
:10030000934204D11E4809F0E3FA002323600DF064
:10031000FFFB09F0B5F80AF0B5FDFEE70E20054039
:1003200030800440823F04000100002B14D00340C1
:1003300002D0074000E00740FCBBFF1F0C2D01006E
:1003400060ADFF1FFCBBFF1FF0FCFF1F00A8FF1FDD
:100350000000000000E400E05FE400E008ED00E0E1
:1003600000500640004006404480044004800440A1
:10037000C010050014E000E0BFD401000000202000
:10038000821237571CE00340A5C3945A00F007407F
:10039000FFFFFFFFFFFFFFFFFFFFFFFFFFFFFFFF6D
:1003A000FFFFFFFFFFFFFFFFFFFFFFFFFFFFFFFF5D
:1003B000FFFFFFFFFFFFFFFFFFFFFFFFFFFFFFFF4D
:1003C000FFFFFFFFFFFFFFFFFFFFFFFFFFFFFFFF3D
:1003D000FFFFFFFFFFFFFFFFFFFFFFFFFFFFFFFF2D
:1003E000FFFFFFFFFFFFFFFFFFFFFFFFFFFFFFFF1D
:1003F000FFFFFFFFFFFFFFFFFFFFFFFFFFFFFFFF0D
:10040000FFFFFFFFFFFFFFFFFFFFFFFFFEFFFFFFFD
:1004100010B5054C237833B9044B13B10448AFF33E
:1004200000800123237010BDFCBBFF1F00000000F3
:10043000042D010008B5064B1BB106480649AFF371
:1004400000800648036813B1054B03B1984708BD07
:1004500000000000042D010000BCFF1FFCBBFF1FBB
:1004600000000000014B01221A70704790C9FF1F65
:10047000014B01221A707047D0F4FF1F014807F0AA
:100480005DBE00BF38CAFF1F10B5044A044640F8DD
:10049000182B03F023FC204610BD00BFD81F01001D
:1004A00010B504460AF07CFC204610BD70B5054628
:1004B0000E4610460B4914460DF00AF830B9204696
:1004C00009490CF0E7FF10B1074C00E0054C4FF074
:1004D0008F4120460CF040FE0DF004F8063645F83A
:1004E000260070BD00FEFF4600FEFFC62DE9F0416C
:1004F0002C4F2D4D57F820302C49DE8DB3F800805D
:1005000008EB46084FEA48081FFA88F8044655F8F1
:10051000280008F101081FFA88F8002202F088FA82
:1005200055F828002149002202F082FA57F82430B9
:100530001F4806F00102002582F00102DA855D8085
:10054000294607F041FE1B4A57F824001A491B4B65
:100550001268858021F814501A60E4B9184A194BC2
:10056000148001221A80F301174A1848184903EB36
:10057000062603EB860606441346B72003F8020B53
:100580003568C2F802507468307A5C6001221872D3
:100590000A70BDE8F0810F4A0F4B158001221A80C6
:1005A000E1E700BF20CFFF1FA4ADFF1FB6B81D00BD
:1005B00038CAFF1F88F9FF1F7CBCFF1F2CE6FF1FF6
:1005C0002CCFFF1F28E6FF1F90ADFF1F6CE6FF1F1B
:1005D000C8C9FF1F6CF3FF1FCAC9FF1F2DE9F047F1
:1005E000C58D03884688ED01ADB2044675B135442A
:1005F000164B174A53F82530E36152F82530236231
:1006000000220123A285A380BDE8F0875B001FFACA
:1006100083F8104F104B57F8280008F1010A06EB39
:10062000460906EB8909994402F03CFD57F82A0077
:1006300002F038FD494657F8280002F0CFFE57F87F
:100640002A00494602F0CAFED1E700BFE4E0FF1FDE
:10065000A8DCFF1FD4ADFF1F90BCFF1F002310B408
:10066000104C4172026104600372C36041B11946CB
:1006700000E0026942F82310427A01339A42F8DC22
:10068000094B1A680AB90BE01A465369002BFBD1D3
:100690005061002343618380C3805DF8044B704741
:1006A0001860F6E7B01A010088FAFF1F0021164B08
:1006B000036010B400F1280204240B464472026166
:1006C0000172C16000E0026942F82310427A0133EE
:1006D0009342F8DB0D4B1A680AB913E01A465369C6
:1006E000002BFBD150614FF4803300220849426156
:1006F0008280C28001608361C361036243625DF8EE
:10070000044B70471860EEE7B01A010088FAFF1F2B
:10071000B81F010011490A6838B50023104D056063
:100720000446437203610372C3600AB913E01A46B8
:100730005369002BFBD1546120460023094A6361B1
:10074000A380E38040F8182B03F0BAFA204602F0A9
:1007500039FC204638BD0860EEE700BF88FAFF1F6D
:10076000B01A0100D81F01000F490A6838B50023EC
:100770000E4D05600446437203610372C3600AB9FB
:1007800010E01A465369002BFBD154610023084A3C
:1007900063612046A380E380A361226003F0DCF85C
:1007A000204638BD0860F1E788FAFF1FB01A010043
:1007B000E81F010008B5002008F0EEFD422801D036
:1007C000002008BD012008F0E7FD0D28F8D1022027
:1007D00008F0E2FD2A28F3D1032008F0DDFDB0F196
:1007E00080035842584108BD70B5094E0424204684
:1007F00008F0D2FD0546601C08F0CEFD3319023426
:1008000000EB05200C2C23F8040CF0D170BD00BFC8
:1008100030E6FF1F08B5054807F0B4FC18B10348DF
:1008200007F0C2FC80B200B208BD00BF38CAFF1F8B
:100830001B4B1B685A0610B40CD41A4A1A4B10688A
:100840001968411A642905D912681A6001205DF8F7
:10085000044B7047154B1B689B060FD5144B18684B
:1008600010F4803017D10F4A0F4B14681968611AC1
:100870006429ECD912681A600320E8E7094A0A4B98
:1008800010681968411A6429E8D912681A600220B0
:100890005DF8044B704700205DF8044B704700BFC3
:1008A000D0F00F4088F9FF1F94C9FF1F90F00F4050
:1008B00050F00F4000F00102F8B582F001021F4E27
:1008C0001F4B16F812501880012D04461D4F2DD0D5
:1008D00025D3022D05D157F824301B48D96807F0DD
:1008E00073FC57F8240019494388C28D184F26F825
:1008F000145003EBC21303EB430203EB82020B46DB
:100900003A44B72403F8024B124816685568147A23
:10091000C1F8026001225D601C720270F8BD57F8D8
:1009200024300948598807F04FFCDAE757F824309B
:100930000548996807F048FCD3E700BF7CBCFF1F5F
:100940008AE5FF1F20CFFF1F38CAFF1F90ADFF1F92
:100950006CE6FF1FC8C9FF1F204A012938B50346AE
:1009600022F8101034D026D3022920D11C4C1D4867
:1009700054F82330D96807F027FC1B4B1B491B8810
:100980001B4D54F82300C28D438803EBC21303EBC5
:10099000430203EB82020B462A44B72003F8020B02
:1009A00014685068127AC1F8024058601A72114BEC
:1009B00001221A7038BD0C4A094B1288094853F8B5
:1009C0002230598807F000FC0A4B01221A7038BD0A
:1009D000034C044854F823309968CCE77CBCFF1FD3
:1009E00020CFFF1F38CAFF1F8AE5FF1F90ADFF1FF2
:1009F0006CE6FF1FC8C9FF1F38B5164A03881649A1
:100A000032F813204280B72400220C70C58D8280FA
:100A1000D3B112481249028001220A8003EB450338
:100A20005D00104C104954F825000135002201F0FA
:100A3000FFFF00220C4954F8250001F0F9FF0B4A92
:100A40000B4B12681A6038BD0A490B4A0B80012112
:100A50001180E3E7A8E0FF1F90ADFF1F6CF3FF1FBD
:100A6000CAC9FF1FA4ADFF1F1EF4040088F9FF1FB1
:100A70002CE6FF1F2CCFFF1F28E6FF1F38B5484B81
:100A800001381B8803280BD8DFE800F0442F0B0245
:100A9000444A454B12681B68D31AB3F57A7F49D88C
:100AA00038BD424A1268D20353D5414C414922789D
:100AB00011F81310012A55D001229142227060D002
:100AC00048D3022906D13C4A3C4852F82330D96821
:100AD00007F07AFB3348344A0068394B10603949D3
:100AE000012200201A70088038BD374B1B68990618
:100AF0002DD42C4D2C4C2A682368D31AB3F57A7F59
:100B0000CED90120FFF7F2FC2B682E4A2360042384
:100B1000138038BD2D4B186810F040000ED0002017
:100B2000FFF7C8FE1F49204A264B096811600022C2
:100B30001A8038BD234B00221A8038BD194D1A4C3B
:100B40002A682368D31AB3F57A7FDBD838BD012031
:100B5000E6E738BD184A194852F82330598807F09B
:100B600033FBB7E7A9B91449194A51F8230032F801
:100B7000132043889A4201D0FFF73EFF00232370E1
:100B8000A8E70D4A0D4852F82330996807F01CFB7E
:100B9000A0E700230948237007F016FB9AE700BF7F
:100BA0008AE5FF1F88F9FF1F94C9FF1F50F00F400F
:100BB000C9C9FF1F7CBCFF1F20CFFF1F38CAFF1F02
:100BC000C8C9FF1F9CC9FF1F90F00F40D0F00F4015
:100BD000A8E0FF1F2DE9F843664B674A1F7832F8FB
:100BE0001050664B0122974204465FFA85F81A704E
:100BF0000E4624D0624F38460AF03CF93B68614902
:100C00005B68384604229847012E21DD0135EDB29C
:100C10006DB225EAE575022DA8BF02252946584880
:100C20000AF028F956480AF0D9F82046A9B2FFF789
:100C300093FE29465448BDE8F84307F0C5BA4FFA79
:100C400088F393424AD0022B39D04BB1BDE8F883E8
:100C5000B8F1020F01D0012ED8D0013DEDB2D7E797
:100C60004A4F57F82000C58D002D46D1484BB3F8A8
:100C7000008008F1FF381FFA88F8002E45DB464552
:100C800055DC1FFA86FC06EBC51101EB4105414A14
:100C9000414B01EB85010A4417685568127AC3F885
:100CA0000270C3F806509A724288B2420CBFB72253
:100CB00020221A70394B23F814C0BDE8F8830029AC
:100CC00045DD642904DD3048642107F07DFA64269F
:100CD0002E4B53F82430DE60BDE8F883002930DB6A
:100CE000642904DD2848642107F06EFA6426274B46
:100CF00053F824309E60BDE8F883294BB3F8008098
:100D000008F1FF381FFA88F8B7E7DFF89890B9F8CC
:100D1000003013BB0FFA88F61B48314607F054FA2F
:100D2000012357F82400A9F80030C446ABE7164861
:100D3000002107F049FA4FF0000C57F824006646EE
:100D4000A1E71148002107F03FFA0026CFE70E483F
:100D5000394607F039FA3E46BAE70B48002107F05A
:100D600033FA00239C4657F82400A9F800301E46A9
:100D700089E700BFC9C9FF1F7CBCFF1FC8C9FF1F8F
:100D8000D0FAFF1FBC1A010038CAFF1F20CFFF1F77
:100D9000A4DCFF1F6CE6FF1F90ADFF1FA8E0FF1F44
:100DA00086E5FF1F8CADFF1F10B5044682B00B48CF
:100DB00007F024FE05210F222346084807F096FC81
:100DC0001922064800920021782307F0F3FC03481B
:100DD00007F018FE0028EDD102B010BDE4E4FF1FBB
:100DE00000B585B002460E4902A80DF03FFC0D4843
:100DF00007F004FE05210F2202AB0A4807F076FC3B
:100E00001922084800920021782307F0D3FC0548F6
:100E100007F0F8FD0028EDD105B05DF804FB00BF38
:100E2000C41A0100E4E4FF1F70B50020422108F05D
:100E3000CDFA01200D2108F0C9FA02202A2108F07C
:100E4000C5FA0320802108F0C1FA134E0424331997
:100E5000124833F8045CFFF7A7FF4FF4FA7008F06C
:100E600085FD28B2FFF7BCFF4FF4FA7008F07EFD55
:100E70002046290A08F0AAFA601CE9B2023408F0F8
:100E8000A5FA0C2CE3D10648FFF78EFF4FF4FA7059
:100E9000BDE8704008F06ABD30E6FF1FC81A0100C7
:100EA000D41A0100104A114B1288114953F822003C
:100EB0004388C28D0F4870B403EBC2130E4C03EB92
:100EC000430203EB82020B462244B72403F8024B91
:100ED00016685568147AC1F8026001225D601C72C0
:100EE000027070BC704700BF8AE5FF1F20CFFF1F54
:100EF00090ADFF1FC8C9FF1F6CE6FF1F10B510485B
:100F0000104982B007F048FC0D48012107F0A8FD08
:100F10000B4807F073FD1924094800940521192294
:100F2000782307F047FC0648074B05212D2207F0E0
:100F3000DDFB034807F066FD0028EDD102B010BDCF
:100F4000E4E4FF1FC4200100DC1A010010B52E4CA0
:100F50002E4922888AB002A80DF088FB62882B49AE
:100F600004A80DF083FBA288284906A80DF07EFB9B
:100F7000E288264908A80DF079FB254807F03EFDD8
:100F8000244B23480021082207F0B0FB0D220092D9
:100F90001F480021782307F00DFC1F4B1C4805213A
:100FA000192207F0A3FB5021192202AB184807F0C1
:100FB0009DFB1A4B16480521232207F097FB502171
:100FC000232204AB124807F091FB154B1048052172
:100FD0002D2207F08BFB50212D2206AB0C4807F089
:100FE00085FB104B0A480521372207F07FFB084894
:100FF0005021372208AB07F079FB054807F002FDC6
:101000000028BDD10AB010BD30E6FF1FC41A010090
:10101000E4E4FF1FEC1A0100041B01000C1B01009B
:10102000141B01001C1B01002DE9F8432248234F2B
:10103000DFF89C80FFF7B8FE4FF4FA7007F104095F
:1010400008F094FC17F8016F0025C824304608F01A
:10105000DFF80CF02DF8014628460BF075FF013C37
:101060000546A4B2032008F081FC002CEED11449FF
:1010700028460CF025F90CF05BFA4F4528F8020FD2
:10108000E0D1FFF763FF4FF4FA7008F06FFC002027
:1010900008F036FC30B1152008F032FC0028F6D1FB
:1010A000FFF7C2FE0749084A084B09681160012290
:1010B0001A70BDE8F88300BF241B0100B71A0100B5
:1010C0000000484388F9FF1F94C9FF1FC8C9FF1FCC
:1010D0002EE6FF1F2DE9F04F0788B0F82C808268BC
:1010E000B0F82EB0B0F910E0B0F80490294D2A49BC
:1010F0007F00044608EB070A96441FFA8AFA4FEA73
:101100008B06E3690AEB06002EEAEE7E83B0BEF1A1
:10111000630FA8BF4FF0630E03FB0EFC55F82000D1
:10112000C4F814E00122CDF804C001F081FCDDF820
:1011300004C0BBF1000F25D06288184B18488032DC
:1011400002EB420102EB810119442CF0FF0250F83E
:101150002A0002F047FC08F0010888F00108474423
:101160003E44104955F82600002201F061FCB9F117
:10117000010F14BF03230223A4F82C80A38003B023
:10118000BDE8F08F084A4FEA6C2152F82A0001F0BE
:1011900035FFE0E7A4ADFF1F5D74D10590BCFF1FD4
:1011A0007CADFF1FB6B81D00D4ADFF1F10B5134CAA
:1011B00023889BB25BB1124B18688388DBB900238C
:1011C000104923801048114A096803801160104CAF
:1011D00023889BB25BB10A4B5868838843B90023CC
:1011E000084923800B480C4A09680380116010BD30
:1011F000FFF770FFF3E7FFF76DFFE0E71CF4FF1F59
:1012000020CFFF1F88F9FF1F28E6FF1F98C9FF1F87
:1012100088E5FF1FCAC9FF1F8CE5FF1F70B5B04DE1
:10122000B04B2988B04A0CB2002053F8243010701B
:10123000D88D1A899E8988B008B18C1C24B212B24C
:10124000AA4902A80DF012FA32B2A84904A80DF07A
:101250000DFAA74B53F824201068516806AB03C35E
:10126000127A1A70FFF7A2FF2A88A24B33F81230C5
:10127000012B00F0CF8068D3022B64D19E489F4C95
:1012800007F0BCFB13E0FFF791FF6421342204ABAD
:10129000994807F02BFAFFF789FF974807F0E4FB1E
:1012A000FFF784FF944807F0ADFB00284BD0FFF711
:1012B0007DFF05210B2206AB8F4807F017FAFFF7D9
:1012C00075FF8F4B8C4841210B2207F00FFAFFF777
:1012D0006DFF1522009288480021812307F06AFAE9
:1012E000FFF764FF874B84480521242207F0FEF9AD
:1012F000FFF75CFF6421242202AB7F4807F0F6F978
:10130000FFF754FF1023002129227B4800938123FB
:1013100007F044FDFFF74AFF774807F0BBFBFFF7F4
:1013200045FF794B74480521342207F0DFF9FFF7B8
:101330003DFF2378002BA6D0744B6F4856213422F2
:1013400007F0D4F99FE708B070BD6B486B4C07F00D
:1013500055FB3CE0FFF72AFF694B674841210B2210
:1013600007F0C4F9FFF722FF634807F07DFBFFF7A2
:101370001DFF1522009260480021812307F01AFA10
:10138000FFF714FF5F4B5C480521242207F0AEF9FC
:10139000FFF70CFF6421242202AB574807F0A6F99F
:1013A000FFF704FF584B54480521342207F09EF9FB
:1013B000FFF7FCFE6421342204AB4F4807F096F996
:1013C000FFF7F4FE4C4807F01DFB0028BBD0FFF7E9
:1013D000EDFE002110230A4647480093812307F0C1
:1013E000DDFCFFF7E3FE444807F054FBFFF7DEFEA9
:1013F00006AB05210B22404807F078F9FFF7D6FE2F
:101400002378002BA6D0414B3B482E210B2207F01E
:101410006DF99FE73848394C07F0F0FA24E0FFF700
:10142000C5FE6421242202AB334807F05FF9FFF7C1
:10143000BDFE314807F018FBFFF7B8FE324B2E48CF
:101440000521342207F052F9FFF7B0FE642134225F
:1014500004AB294807F04AF9FFF7A8FE264807F031
:10146000D1FA00283FF46FAFFFF7A0FE05210B2251
:1014700006AB214807F03AF9FFF798FE204B1E48CB
:1014800041210B2207F032F9FFF790FE152200925E
:1014900019480021812307F08DF9FFF787FE1023FB
:1014A0000021192214480093812307F077FCFFF7ED
:1014B0007DFE114807F0EEFAFFF778FE114B0E485B
:1014C0000521242207F012F9FFF770FE2378002B84
:1014D000A5D00E4B08485621242207F007F99EE7B5
:1014E0008AE5FF1F20CFFF1FC8C9FF1FC41A0100D4
:1014F000C4ADFF1F7CBCFF1FE4E4FF1FC9C9FF1F71
:1015000090ADFF1F381B0100401B0100341B010080
:1015100070B5154A137803F0010383F001031370CB
:1015200063B9124B1B781BB9114B00221A7070BDA6
:10153000FFF774FE0E4B00221A7070BD0D4C25880B
:10154000FFF768F9064655B12846FFF797FA002ECF
:10155000EAD0094B31461878FFF73CFBE4E7FFF788
:1015600067F92080F3E700BFBCE5FF1FC8C9FF1F74
:1015700090C9FF1F9CC9FF1F8AE5FF1F114B124A2C
:101580001B6811689A6A10B5104C2068411A914284
:1015900016D9988DDA8D0E4B0E4900F0010080F0BF
:1015A000010000EB8200002253F8200001F040FA15
:1015B000094B0A490A4A2068186001230B801380EE
:1015C00010BD00BF20CFFF1F98C9FF1F88F9FF1F64
:1015D000A4ADFF1FB6B81D0028CFFF1F28E6FF1FD0
:1015E0002CCFFF1F114B124A5B6811689A6A10B525
:1015F000104C2068411A914217D99A8DD88D0E4B04
:101600000E4912F0010F14BF0222032202EB8000E8
:10161000002253F8200001F00BFA094B09490A4A4D
:101620002068186001230B80138010BD20CFFF1F9E
:101630008CE5FF1F88F9FF1FA4ADFF1FB6B81D0082
:10164000B8E5FF1FCAC9FF1F6CF3FF1F154B70B52C
:1016500053F82040B4F91250E268A369154425EA12
:10166000E575632DA8BF6325AB4219D06069236A75
:10167000A561C0F1640003FB00F00BF019FD0A49FD
:101680000BF06AFD064628460BF012FD0146304677
:101690000BF062FD0BF026FF0128B8BF0120A0620D
:1016A00070BD00BF20CFFF1F0AD7233C70B51B4C75
:1016B0002578022D17D80135EDB2194A194B505D26
:1016C00033F8156007F0A4FD301AC3100133022D62
:1016D0009BB2154A18D0032D52681BD101205382AA
:1016E000FFF7B4FF0BE00F4B10201D8807F090FDB3
:1016F0000D4B281AC5101B6801351D8200250B4BA8
:10170000258000221A7070BD126800205382FFF7F6
:101710009DFFF4E701251382F1E700BF84E5FF1F79
:10172000B81A010030E6FF1F20CFFF1FD0F4FF1FC3
:1017300010B5164C2368DA8DBAB9154A15491068E8
:101740000968411A322911D9998802290FD0124902
:10175000106809689A6A411A6432914284BF012272
:101760009A800E4B00221A8010BD10BD10BD9A8DBC
:101770000B4B02F0010282F0010253F8220001F04B
:10178000F3FC236801229A80EBE700BF20CFFF1F04
:1017900088F9FF1F28CFFF1F98C9FF1F2CCFFF1FFD
:1017A000D4ADFF1F10B5184C6368DA8DBAB9174A6B
:1017B000174910680968411A322911D999880229F4
:1017C0000FD01449106809689A6A411A643291422C
:1017D00084BF01229A80104B00221A8010BD10BDD8
:1017E00010BD9A8D0D4B12F0010F14BF022203227F
:1017F00053F8220001F0B8FC636801229A80064B7E
:1018000000221A8010BD00BF20CFFF1F88F9FF1FE4
:10181000B8E5FF1F8CE5FF1F6CF3FF1FD4ADFF1F62
:1018200010B5FFF7C3FC2A4B1B88002B4AD0FFF7EB
:10183000BDFC284B1B88002B41D0FFF7B7FC264B83
:101840001B78002B38D1FFF7B1FC244B1B78002B01
:101850002FD1FFF7ABFC224B1B883BBBFFF7A6FC4D
:10186000204B1B88FBB9204CFFF7A0FC2068838825
:101870003BB91E4A1E4B12681B68D31AB3F5967FFC
:1018800023D8FFF793FC606883883BB9174A184B4D
:1018900012681B68D31AB3F5967F00D810BDBDE857
:1018A0001040FEF79BBEFFF77DFFDCE7FFF740FF30
:1018B000D4E7FFF7FBFECCE7FFF72AFEC3E7FFF70D
:1018C00091FEBAE7FFF75AFEB1E7FEF787FED8E7C9
:1018D00028E6FF1FCAC9FF1F90C9FF1FD0F4FF1FD2
:1018E0002CCFFF1F6CF3FF1F20CFFF1F88F9FF1FB6
:1018F0002CE6FF1F08B5FFF793FFFCE7174BDFF857
:1019000068C02DE9F00300211F68154E154C0A46EA
:101910004FF032094FF064085CF821309A60C3F848
:101920000C905A619A6156F82050DD6154F82050AD
:101930001D6254F82050198008FB05F501316D082F
:10194000022958809A801A825A829D625F629A8523
:10195000DA85E1D1BDE8F003704700BFA0ADFF1FFD
:10196000E4E0FF1FA8DCFF1F20CFFF1F2DE9F84F89
:10197000314C32492368DFF8D8905B680122204659
:101980009847204609F02AFAB9F80030002B3AD0DF
:101990000025DFF8C080DFF8C0B0DFF8C0A02E4619
:1019A0000BEB050738460DF00FF823680246394661
:1019B0005B6821489847236821495B681E480522D7
:1019C0000AEB0507984738460CF0FEFF23680246ED
:1019D0005B6819483946984723681A495B68164876
:1019E00003229847002358F8041F13480A2209F0DD
:1019F00005FA114809F0F2F9B9F800300136B3429E
:101A000005F10D05CCDC23680F495B680A4800220C
:101A10009847094809F0E2F923680C495B680648D1
:101A200009229847B9F80010034809F023FA024840
:101A3000BDE8F84F09F0D2B9D0FAFF1F501D0100E0
:101A4000541B01005C1B0100C01A0100481B01006F
:101A5000A4DCFF1FA4DCFF1F6CE6FF1F90BCFF1F70
:101A60002DE9F0410D46C0B00021804602F04CF94E
:101A70000023AB60404602F051F90646A0B923E0CE
:101A8000934209D2D71A28683A4620A9184403F08D
:101A9000F1FEAA683A44AA60684620A922460CF0E2
:101AA0000BFBA8B9361B0FD0802E34BF34468024E0
:101AB000A2B26946404602F021F9AB686A68E118B3
:101AC0009142DDD82746DEE7012040B0BDE8F08135
:101AD000002040B0BDE8F0812DE9F04FAE4B05226B
:101AE000D7B04FF4FA705A8007F040FFAB4B1C8818
:101AF000002C00F07F81AA48FFF756F94FF47A7066
:101B000007F034FFA748FFF74FF9012306A8A649BD
:101B1000A64A02F0BDF9002301930EA806A90122EE
:101B200002F03AFA0EA802F009F9002800F0D98074
:101B30000EA802F0D9F8002405462B5D2E2B00F0EC
:101B4000CE80002B00F0CB800134082CF5D106208C
:101B5000284497490CF02AFE002800F0B9802B7821
:101B60005F2B00F0B5802C44204692490CF01EFEFD
:101B7000002800F0AD8020468F490CF017FE0028A9
:101B800040F0A2800EA802F0C9F88246284604F070
:101B90000BFF002836D0894E8949336822225B68C2
:101BA000304698470DF15809304609F017F9484674
:101BB000294604F057FED9F80030002B40F0AB80E6
:101BC000336880495B687D4815229847D9F804102E
:101BD0007A480A22002309F011F9336877485B68D4
:101BE000794906229847754809F0F8F8336877492B
:101BF0005B6872481D229847704809F0EFF8284644
:101C000004F014FF28465146002204F01BFF002870
:101C100043D0294602A804F025FE6D48049CFFF736
:101C2000C3F84FF4FA7007F0A1FE2846FFF7BCF89E
:101C30004FF4FA7007F09AFE029B0093002B00F01D
:101C40009C80BAF1000F00F09F80039F5B4E00253F
:101C50000DF1580914E0A74207D9BB463A1B00987A
:101C60004946204404F0B4F85C4632685348D2F840
:101C700004C0584945440122E047AA4540F2848007
:101C80004FF480720EA8494602F038F80219BA42A1
:101C90008046E0D893460246E1E7484E4E49336815
:101CA0005B68304617229847304609F097F84B4852
:101CB000FFF77AF84FF47A7007F058FE0EA802F09A
:101CC00031F8322007F052FE0EA802F007F824E7A0
:101CD0000EA802F027F80EA802F000F81DE7A01EDB
:101CE00036E7019B002B40D03D48FFF75DF84FF4ED
:101CF000FA7007F03BFE0EA801F0F0FF06A802F014
:101D000011F8019B06A81FFA83F801F0E7FF40468F
:101D100057B0BDE8F08F0EA8D9F8044001F0FEFFDF
:101D200084427FF44DAF33682E495B6825223046EC
:101D30009847304609F052F80EA84946FFF790FE42
:101D4000002863D0336828495B68182230469847DA
:101D5000304609F043F8019B0EA80133019301F0CE
:101D6000E1FF0EA801F0BAFFD7E62048FFF71CF804
:101D70004FF4FA6007F0FAFDBDE7104E1C493368D6
:101D800030465B6825228EE7019B0C4801330193A6
:101D900009F024F892E700BF7CBCFF1FFCC9FF1FBD
:101DA000601B0100701B010050F5FF1F881B010024
:101DB000B81B0100C01B0100C81B0100D0FAFF1FA7
:101DC000D01B0100A81C0100C01C0100281C010040
:101DD000481C0100841B0100581C0100701C0100FC
:101DE000AC1B0100801C0100F41B01009C1B0100C6
:101DF000C81C01000A48FEF7D7FF4FF47A7007F0BD
:101E0000B5FDA046404657B0BDE8F08F33680549A0
:101E10005B68304615229847304608F0DFFFE5E65C
:101E20008C1B0100101C010010B5FFF755FE074B7D
:101E3000002204464FF4FA601A805A8007F096FD9B
:101E4000034A044B12681A60204610BD7CBCFF1F79
:101E500088F9FF1F94C9FF1F2DE9F047364BDFF8C3
:101E6000F08094B000271F8004AD284640216A46C8
:101E7000BEB204F0E9FE002858D080364FEA460989
:101E80002B4607CB09EB060E06EB8E0E08EB0E0475
:101E900048F80E001B786160284823732946A26029
:101EA00001F060FD0098DFF8ACA0254C0BF0FCF8C9
:101EB00024490BF051F90BF03BFB4AF826001F4870
:101EC00001F0E0FD00900BF0EFF81E490BF044F933
:101ED0000BF02EFB44F82600184801F0CBFD002340
:101EE00001A9EA5C2E2AA2F1410413D0192C98BF53
:101EF00020325A540133092BF3D10B4603CB124A3B
:101F00001C78B14406EB890693199051013759604A
:101F10001C72AAE714AA1344202203F84C2C03F8DD
:101F20004B2C03F84A2C03F8492CE6E7074B3046C4
:101F30001E8014B0BDE8F087C6F7FF1F38E6FF1F0C
:101F4000A8DCFF1F0AD7233C6CE6FF1F86E5FF1FB6
:101F500090BCFF1FE4E0FF1F2DE9F04794B014AEE2
:101F600004A801F0ADFE8F498F4A904C904F0CA809
:101F7000012301F08DFF56F8133D0E999DF8349022
:101F80009DF83C80D6F804C0D6F808E0139A357B5B
:101F9000A16084F8049084F80C800CA8C4F80D307B
:101FA000C4F811C0C4F815E0E261657601F096FE50
:101FB00021460CA8012201F0EFFF3068D6F804C0DA
:101FC000D6F808E0357B9DF834400E9A9DF83C1019
:101FD000139BCDF81D000CA8CDF821C0CDF825E04D
:101FE0008DF829508DF8144006928DF81C100B9333
:101FF00001F074FE04A801F0A1FE002849D03B883E
:102000007F2B46D804A801F06FFE002405462B5D07
:102010002E2B4ED0002B4CD00134082CF7D10620AB
:10202000284464490CF0C2FB00283ED02B785F2B7B
:102030003BD0281960490CF0B9FB044600283AD07F
:1020400004A801F06FFE0CA85849012201F0A4FF7A
:102050009DF834000E9A9DF83CC0D6F800E07568F3
:10206000B468317B139B8DF814000CA806928DF890
:102070001CC0CDF81DE0CDF82150CDF825408DF8DD
:1020800029100B9301F02AFE04A801F057FE002846
:10209000B5D1464801F0DCFF444801F043FE04A8F6
:1020A00001F01CFE14B0BDE8F087012007F05EFCD3
:1020B000C6E7A01EB4E73B884049D5F80080D5F8B4
:1020C00004C0D5F808E03E48DFF8009103EB430276
:1020D00003EB82028B1841F80280C3F804C0C3F8F6
:1020E00008E02A7B1A73294601F078F92146344822
:1020F000DFF8DC8000F082FF042007F037FC304876
:1021000001F0CEFA0AF0D0FF2E49B7F800A00BF08C
:1021100023F80BF00DFA0AF0C7FF2B490BF01CF85F
:102120000BF006FA49F82A00254801F0ADFA0AF04A
:10213000BBFF2549B7F800900BF00EF80BF0F8F94B
:1021400048F829001E4800F0DDFF204601A92B5C5D
:102150002E2BA3F1410219D0192A98BF20334354E2
:1021600001300928F3D13A88DFF868E00B4603CB49
:1021700002EB420502EB85050EEB050401321B78EC
:102180004EF805003A806160237259E714AB184499
:10219000202300F84C3C00F84B3C00F84A3C00F887
:1021A000493CE0E750F5FF1F881B010048BCFF1FBA
:1021B000A4DCFF1FF01C0100C01B010090BCFF1F2E
:1021C0005CCAFF1F6666663F0AD7233CE4E0FF1F38
:1021D000A8DCFF1F6CE6FF1F10B5962007F0C6FBBA
:1021E000002006F089FF0A2006F0ACFF202006F050
:1021F000D9FF0520022107F091FB0820022107F0FA
:102200008DFB1520022107F089FB0D20022107F02C
:1022100085FB0020022107F081FB0620012107F049
:102220007DFB5E4B5E4810221A60232108F0FAFA0B
:102230005C4B5D491C785D4A5D4844F005041C70A8
:1022400006F0C6FBFEF75AFE4FF47A7007F08EFBDD
:1022500058480A2101F07AFD38B95748FEF7A4FD25
:102260004FF47A7007F082FBF7E75449544A554C13
:10227000002306208B61CB610B624B629361D361BB
:102280001362536204F0ACF92080152007F038FB8C
:10229000238820B93BB1FFF7C7FD2080034613B167
:1022A000FFF7DAFD2080FFF757FE47494748484CC3
:1022B00043F6972208F05EFD4649474A474808F032
:1022C00059FD30200BF04CFC206030200BF048FC16
:1022D00060600020FFF712FB05204149022207F051
:1022E0008DFA08203F49022207F088FA01203E4972
:1022F000042207F083FA02203B49042207F07EFA09
:10230000002007F0FDFA08B9FEF78EFEFEF752FA3C
:10231000002840D1354B40F2FF12DA809A805A8073
:102320001A80236825485A6A0021FEF7BFF82368FF
:1023300022485A6A0121FEF7B9F823681F485A6AF1
:102340000221FEF7B3F823681C485A6A0321FEF7FE
:10235000ADF863681A485A6A0021FEF7A7F8636867
:1023600017485A6A0121FEF7A1F8636814485A6AAF
:102370000221FEF79BF8636811485A6A0321FEF7B1
:1023800095F84FF47A7007F0F1FAFFF7EFFABDE82D
:102390001040FEF787BDFEF727FAC2E7C4F00F40F2
:1023A0000082FF1FCCFAFF1FC8B2FF1FD1810000BF
:1023B000E4E4FF1F50F5FF1FF81C010000CAFF1FD7
:1023C000E8CEFF1FFCC9FF1F7104000068BCFF1F9F
:1023D00020CFFF1F650400005FE3160060E5FF1FCC
:1023E00061ADFF1F6DADFF1F7D04000030E6FF1FD4
:1023F0002DE9F84FB14FB24EB24CDFF858B3DFF8C9
:1024000058A3B14DDFF85493DFF8548306F08AFFE8
:10241000384601F055FC3246AC4938460BF068FBB3
:10242000AB48AC4FFEF776F932462146A8480BF090
:102430005FFBA948FEF76EF921463246A6480BF02D
:1024400057FBA648FEF766F921463246A3480BF033
:102450004FFBA348FEF75EF921463246A0480BF039
:1024600047FBA048FEF780F99F48FEF77DF99F489B
:10247000FEF77AF99E48FEF777F90BF124025846E9
:102480000121FEF7EBF84FF0FF340AF12402504629
:102490000121CBF80050CBF81840FEF7DFF8954843
:1024A000CAF8005000F124020121CAF81840FEF7D2
:1024B000D5F891488F4B00F1240201211D609C61E9
:1024C000FEF7CCF88C4B09F12402484601211D602F
:1024D0009C61FEF7C3F808F1240240460121C9F8C7
:1024E0000050C9F81840FEF7B9F88448C8F8005001
:1024F00000F124020121C8F81840FEF7AFF8804827
:102500007E4B00F1240201211D609C61FEF7A6F8BC
:102510007B4B7C481D609C61FEF7C8F87A48FEF74B
:10252000C5F8022107F118023846FEF797F8774BF5
:102530003B60384600F09CFC754A654B0024104611
:1025400082E8080814725472D46008F04FFA714A95
:10255000614B1472104682E808045472D46008F08B
:1025600045FA6D4A5D4B13601046624B536014721E
:102570005472D46008F03AFA684A594B1360104616
:102580005D4B536014725472D46008F02FFA644AA1
:10259000544B1472104682E808025472D46008F05A
:1025A00025FA604A504B1472104682E808015472B2
:1025B000D46008F01BFA5C4A4C4B136010464F4B3A
:1025C000536014725472D46008F010FA574A484BA2
:1025D000136010464A4B536014725472D46008F072
:1025E00005FA534A474BC2F800B0104653601472C4
:1025F0005472D46008F0FAF94E4A424BC2F800A077
:102600000125104653601472D460557208F0EEF93B
:10261000494A3C4BC2F800904FF0020A1046536002
:102620001472D46082F809A008F0E0F9434A354BEF
:10263000C2F800804FF00309104653601472D46052
:1026400082F8099008F0D2F93D4A2A4B13601046EF
:102650002D4B536014725472D46008F0C7F9394A94
:10266000254B13601046284B536014725572D4608A
:1026700008F0BCF9344A214B13601046224B5360DA
:10268000147282F809A0D46008F0B0F92F4A1C4BEC
:10269000136010461C4B5360147282F80990D4608A
:1026A00008F0A4F92A4A174B1472104682E88800F1
:1026B0005472D46008F09AF954E000BF48BCFF1F80
:1026C00078ADFF1F89040000A81F0100DD3C000059
:1026D0005CCAFF1FE0E5FF1F30CFFF1FACD3FF1F19
:1026E00028D8FF1F38E6FF1F70F3FF1FA4F3FF1F5A
:1026F000D8F3FF1F70F4FF1F98F4FF1FA0C9FF1F3E
:1027000090E5FF1F00CAFF1FE8CEFF1FC81F010092
:1027100074E5FF1FCCC9FF1FDCC9FF1FECC9FF1FF9
:102720000CF4FF1F40E5FF1F80BCFF1F30E5FF1FBB
:10273000D4E0FF1FC0E5FF1FD0E5FF1F4CCAFF1FFD
:1027400050E5FF1FD8CEFF1FC0F4FF1F18BCFF1FAE
:1027500038BCFF1F20F4FF1F48F4FF1FACE0FF1F31
:1027600000E6FF1F1049114B0C72084681E88800F3
:102770004D72CC6008F03AF929460D4D0D4852468D
:10278000802705F0BDFC2C706F7328460A4D0B495D
:1027900032460BF0ADF96F73324628462C7007496C
:1027A000BDE8F84F0BF0A4B928BCFF1FE8CEFF1F0F
:1027B00060E5FF1F38CAFF1F68BCFF1FA1040000AF
:1027C0002DE9F04F00F5807EB1E8A00AB2E840158F
:1027D000C5EA0643C6EA2544C7EA0845C8EA2746CB
:1027E000C9EA0A47CAEA2948CBEA0C49CCEA2B4A8B
:1027F000A0E8F807B1E8A00AB2E84015C5EA064328
:10280000C6EA2544C7EA0845C8EA2746C9EA0A478E
:10281000CAEA2948CBEA0C49CCEA2B4AA0E8F807D7
:1028200086457FF4D1AFBDE8F04F70472DE9F00F3A
:102830004FF0000200F5807CB1E8A00AC5EA02036F
:10284000C2EA2544C7EA0205C2EA2746C9EA0207E6
:10285000C2EA2948CBEA0209C2EA2B4AA0E8F807F3
:10286000B1E8A00AC5EA0203C2EA2544C7EA0205A4
:10287000C2EA2746C9EA0207C2EA2948CBEA0209A6
:10288000C2EA2B4AA0E8F80784457FF4D5AFBDE83B
:10289000F00F70472DE9F00F4FF0000200F5807C3B
:1028A000B1E8A00AC2EA0543C2EA0504C2EA074544
:1028B000C2EA0706C2EA0947C2EA0908C2EA0B49A6
:1028C000C2EA0B0AA0E8F807B1E8A00AC2EA054389
:1028D000C2EA0504C2EA0745C2EA0706C2EA094796
:1028E000C2EA0908C2EA0B49C2EA0B0AA0E8F807E3
:1028F00084457FF4D5AFBDE8F00F70472DE9F00FA8
:10290000089C00F5007B00BF51F8045B53F8046B92
:10291000C5EA0647C6EA254952F8045B54F8046B39
:10292000C5EA0648C6EA254AA0E8800751F8045BD4
:1029300053F8046BC5EA0647C6EA254952F8045B1A
:1029400054F8046BC5EA0648C6EA254AA0E88007A1
:1029500083457FF4D9AFBDE8F00F70472DE9F84308
:1029600084698146002C45D0631C4FF000014DD096
:1029700008F01AF88046002841D0D9F81C1099F8C0
:1029800020002A4E002306E071453CD20C4402335D
:10299000B3F5807F22D0220E551C36F912E036F9AD
:1029A000157008EB0302C4F30F2505FB07F7C5F507
:1029B00080350EFB0575B2F904702D1405FB07F583
:1029C000ED136FEA040E95800028DDD1A14218D2E4
:1029D0000233B3F5807FC1EB0404DCD14846C9F86B
:1029E00018404146002207F0B9FF4046BDE8F843D1
:1029F00007F090BF214607F0CBFF0028F6D1BDE8D5
:102A0000F8830446C3E74FF0FF34C0E707F0C0FF88
:102A100004460028F3D048462146002207F09EFFD6
:102A20002046BDE8F84307F075BF00BF9C1D0100BC
:102A300072B683694BB1013304BF6FF00103836148
:102A4000C16180F8202062B6704701238361C161B3
:102A500080F8202062B6704710B5044608F0AEF842
:102A6000204610BD02480349034A0BF041B800BF9D
:102A7000D4F4FF1F592A000078ADFF1F0248034914
:102A8000034A0BF035B800BFDCF4FF1F592A0000E1
:102A900078ADFF1F02480349034A0BF029B800BF75
:102AA000E4F4FF1F592A000078ADFF1F2DE9F0471D
:102AB0004FF0000A80460746D14640465146B9F1DC
:102AC000000F4FD007F064FFF0B1BC69B4F5803F50
:102AD00009F1040300F1040509F5827E28D055F8B8
:102AE000042B34FB02F134FB12F201F30F0102F369
:102AF0000F02C1EA02421E6892FA16F643F8046B0E
:102B00009E45ECD807F006FF0AF1010ABAF1040F5E
:102B100007F10407D1D1B9F1000F3FD04046494633
:102B2000002207F01BFF4846BDE8F04707F0F2BE61
:102B300009F10C0500F10C0455F8082C54F8081C98
:102B400092FA11F245F8082C5A6854F8041C92FACB
:102B500011F25A6008339E4505F1080504F1080496
:102B6000EAD8CFE707F020FF81460028CCD0B9692A
:102B7000B1F5803FC8D0031D00F582741A6831FB9F
:102B800002F031FB12F200F30F0002F30F02C0EA71
:102B9000024243F8042B9C42F0D8B5E7BDE8F08729
:102BA00002480349034A0AF0A3BF00BFECF4FF1F29
:102BB000592A000078ADFF1F2DE9F84F334B3448F8
:102BC0001A68344912681B790B70824229D2324B41
:102BD0001B784BBBDFF8D0B0DFF8D0A0DFF8D08097
:102BE000DFF8D090DBF80060DAF80070B8F8004049
:102BF000B9F80050002E3AD006EB440197B307EB2A
:102C0000450204310432FFF7DBFD403440357F2CB0
:102C10001CD8A8F800407F2D0BD8A9F80050BDE8BB
:102C2000F88FA0F58070D5E71C4B4FF080421A60FA
:102C3000D0E700243846A9F8004007F06BFE184B97
:102C40001A68CAF800201C60BDE8F88F00243046DE
:102C5000A8F8004007F05EFE124B1A68CBF800207F
:102C60001C60D8E70431FFF7E1FD4034CFE737B10E
:102C700007EB45010431FFF70DFE4035C7E7394644
:102C80004FF48072BDE8F84F0BF0AABAF8F4FF1FBA
:102C90008CA6FF1F1F80004010F5FF1F08E200E018
:102CA0000CF5FF1F14F5FF1F08F5FF1F00F5FF1FB0
:102CB000F4F4FF1F04F5FF1F70B50021054607F06F
:102CC00067FE034680B172B61B490A68002A29D004
:102CD0001A4C206800B31A4E08600021236031802E
:102CE00062B6104607F016FE2846012107F050FE96
:102CF00088B172B6134A1368CBB113490C6874B12A
:102D0000124D1460002208602A8062B61846BDE8A1
:102D1000704007F0FFBD70BD236062B6E4E7086055
:102D200062B670BD06480B60028062B6DCE70749F8
:102D300010600B8062B670BD08F5FF1F14F5FF1F11
:102D4000F4F4FF1F00F5FF1F0CF5FF1F04F5FF1F34
:102D5000334B344A1868344940F400402DE9F00FF1
:102D60001860106840F0020010601A6842F0020219
:102D70001A600B68002B4FDB2C4B1B68002B4BDBC6
:102D80002B4A4FF0864313601368002BFCDBDFF8FF
:102D9000CCA0DFF8CC90DFF8CC80DFF8CCC0254F9A
:102DA000254E264B264D274C27482849284A47F2CE
:102DB000540BCAF800B04FF0000AC9F800A04FF059
:102DC0000109C8F80090DFF8A480CCF800804FF427
:102DD000803CC7F800C01F4F376008F180481E4E86
:102DE0002E60C4F800A005F5DF35C0F8009004F5AA
:102DF000DF34C1F80080C2F800C01F605E6003F5D8
:102E0000DF3305F5FC7504F59C7403F5BC734FF4D2
:102E1000C060186028602060BDE8F00F704700BFF8
:102E20003C8004404080044000F0024080F00240BA
:102E300000F102400CF0024010F0024090F002401D
:102E400014F00240E0F0024084F0024088F00240BA
:102E50008CF002401B0F0100000F0F0F04F1024025
:102E600060F0024004F0024008F002400300000756
:102E7000F8B5314D0121284607F02CFE2F4A304B82
:102E8000002414601C60FFF763FF2E4B2A792E4844
:102E90002E494FF4C0661E602B681E6818601869C2
:102EA000196102F180424FF48071D88AD98202F50B
:102EB0000432D88BD98302204FF0FF3101266FF006
:102EC000010C4FF0060E8F275C715C729C72DC72F5
:102ED0001C731C755C751C765C769C76DC7683F8BE
:102EE0000DC09E71B3F81CC0DE719973D97318714F
:102EF000A3F81CE018721470177007F08FFD2B797F
:102F0000134A1449144C10700B705A11216813485D
:102F1000134D920002F1604203F01F0741F012418D
:102F200002F561421033BE4041F00101216040F8DA
:102F300023501660F8BD00BFF8F4FF1F08F5FF1F0F
:102F400000F5FF1F04B004408CA5FF1F20F00240D5
:102F500010F5FF1F1B80004000F0024000A8FF1F7B
:102F6000B92B000002480349034A0AF0C1BD00BF63
:102F7000F8F4FF1F592A000078ADFF1F02480349EB
:102F8000034A0AF0B5BD00BF18F5FF1F592A00001B
:102F900078ADFF1F02480349034A0AF0A9BD00BFEC
:102FA00020F5FF1F592A000078ADFF1F0248034992
:102FB000034A0AF09DBD00BF28F5FF1F592A0000F3
:102FC00078ADFF1F38B50446C06D0C23002584F88A
:102FD0006D3484F86E3484F86F3484F8703484F877
:102FE0006654256510B107F095FCE565206E18B1B3
:102FF00007F090FC0023236638BD00BFF8B500F150
:103000001806044630460F4600F098FE054618B1F3
:1030100094F86F34FF2B10D0214A13882BB95E200F
:10302000002500F09BFD2846F8BD013B9BB21380B4
:10303000002BF4D000252846F8BD0137D4F87834A9
:103040007F029F42C4F8747421D0002384F8663450
:1030500072B65E2000F068FD114BD4F874141A8823
:10306000304601321A8000F04FFE62B694F87024A8
:10307000D4F8741484F86D24002384F86E24C4F802
:103080007814A4F86A34A4F868342846F8BD94F893
:103090006634012BD9D0022384F86634D8E700BF08
:1030A00030F5FF1F70B500F118050446284600F002
:1030B00045FE20B372B600230C22E06D266EE36558
:1030C000236684F8663484F86D2484F86F2462B62D
:1030D00008B107F01FFC16B1304607F01BFC28466C
:1030E00000F020FE064B1A8822B95E20BDE8704031
:1030F00000F034BD013A92B21A80002AF5D070BDBA
:1031000030F5FF1F38B5044672B690F86D340C2BBD
:1031100025D000230C2280F86634256EC06DE3654F
:10312000236684F86D2484F86F2462B608B107F032
:10313000F1FB15B1284607F0EDFB04F1180000F093
:10314000F1FD084B1A8822B95E20BDE8384000F036
:1031500005BD013A92B21A80002AF5D038BD62B698
:1031600038BD00BF30F5FF1F10B5034672B690F8AA
:103170006D240C2A1DD000220C21C06D1C6EDA6556
:103180001A6683F86D1462B608B107F0C3FB14B178
:10319000204607F0BFFB084B1A8822B95E20BDE825
:1031A000104000F0DBBC013A92B21A80002AF5D040
:1031B00010BD62B610BD00BF30F5FF1F2DE9F04114
:1031C0000446B0F8685400295CD090F86D340C2B9C
:1031D00053D8012202FA03F341F2F3021A40002A03
:1031E00050D160350544180705F106024DD45B0740
:1031F00043D5236DE06D994234BF0E461E46991BA0
:103200000835216503E00235002E00F08980B4F80E
:10321000642015F8027C15F801CC531C9BB200EB1E
:10322000420247EA0C277F2BA4F86430A6F102067D
:103230009780E8D901460022204607F08FFB012243
:103240002046E16D07F08AFBE06D07F063FB236D1C
:10325000206E04F166021E44AD1A00232665A4F810
:103260006854E36510B107F055FB266D16B90C23C1
:1032700084F86D340120BDE8F0810C2384F86E34AD
:1032800084F86D340020BDE8F081236D94F871045A
:10329000994234BF0D461D465B1B236508B3E16DA3
:1032A000B4F86400A66B01EB4007BE801646276E9B
:1032B00092F8018016F802CB421C92B207EB400054
:1032C0007F2A4CEA0827A4F86420A5F1020587802C
:1032D0002ED82DB9F3B184F871542846BDE8F08199
:1032E0003246023D1678577809D19BB1022346EA4F
:1032F000072684F87134A6632846BDE8F081E16DA5
:10330000B4F8640001EB400C46EA07260232ACF840
:103310000460CBE70C2384F86D340020BDE8F08115
:103320000029AFD10C2384F86D340846BDE8F08144
:103330000022204607F012FB0027E06D07F0EAFAB2
:1033400001222046216EE76507F008FB206E07F09A
:10335000E1FA236D276604F166021D44B61A25655D
:10336000A4F86864002D85D181E700BF836B9AB211
:10337000012A01D000207047C26B4AF644418A42BC
:1033800022D045F222618A421BD042F611318A4294
:10339000F0D10F4904221B0C012B04D0022BE9D1E0
:1033A000490842F00102B0F84630082B04D0102B37
:1033B000E0D1490842F00202816580F86E240120C4
:1033C000704704490422E6E703490022E3E700BF0F
:1033D00034EE35171AF79A0B8D7BCD052DE9F04F9A
:1033E0008BB00F460446FFF75DFE72B6A04E5E201E
:1033F00000F09AFB35889F4901233A4602A801351F
:10340000358000F045FD0AAB9DF80C0053F8137DA4
:103410000499D3F804C0D3F808E01D7B9DF814800C
:10342000099B20772162C4F82570C4F829C0C4F82C
:103430002DE084F83150636302A884F8248004F1FD
:10344000180704F2662500F049FC384629464FF477
:10345000007200F053FCA4F86A0462B6B4F86A344F
:103460004FF0000B4FF0140C0C20FF210822C4F881
:1034700050C084F86E0484F87014A4F868B484F81A
:103480006CB484F866B484F86F24A3B14FF4007967
:103490002B4690464D4601979946083A032A0ED886
:1034A000DFE802F092643923B4F86814521B6B18F9
:1034B0002265A4F8683400200BB0BDE8F08F019FAE
:1034C000384600F03BFC002840F0BC803388684A56
:1034D00023B1013B9BB21380002BECD15E2000F0A6
:1034E0003DFB00200BB0BDE8F08F226DAA42DBD877
:1034F000B4F86814C4F8508011440A239144AD1AFA
:1035000084F86CB4A4F8681484F86F34002DD2D019
:1035100094F86F24C1E7236D94F86C149D4234BF76
:10352000AA469A4604F1380052460844494605F036
:1035300051FC94F86C14B4F86824236D514452443F
:10354000CAEB030384F86C14A4F868242365002BE9
:10355000B1D1A16B4848E26B22658142D144CAEBEC
:10356000050575D00B2384F86F34CFE7236D94F8ED
:103570006C149D4234BFAA469A4604F13800524664
:103580000844494605F026FC94F86C14B4F8682405
:10359000236D51445244CAEB030784F86C14A4F819
:1035A00068242765002F86D12046FFF7DFFE00281C
:1035B00085D00A22D144CAEB0505C4F8508084F8AE
:1035C0006C7484F86F24A1E7236D94F86C149D4209
:1035D00034BFAA469A4604F1380052460844494688
:1035E00005F0F8FB94F86C14B4F86824236D51448A
:1035F0005244CAEB030384F86C14A4F868242365CE
:10360000002B7FF458AFA26B1C498A427FF457AF5E
:10361000226C1B4882427FF452AF626C19498A4285
:103620007FF44DAFA26CA2F1100108293FF647AF1D
:103630000921D144CAEB0505226584F86C3484F86D
:103640006F1463E794F86F34FF2B7FF43FAF33E7D9
:1036500094F86E1484F871340120FF23626584F8B5
:103660006D1484F8701484F8660484F86F344DE7A0
:1036700030F5FF1F50F5FF1F6461746152494646E3
:1036800057415645666D742090F86D34072B05D868
:10369000436D826DA2FB03231846704700207047DC
:1036A00090F86D34072B94BF406D0020704700BF29
:1036B000F8B590F86D340C2B044603D090F86F34B5
:1036C000FF2B00D0F8BD07F0DBF8E0650028F9D04B
:1036D00094F86D34072B02D8DA0700F19A800023A2
:1036E0002366B4F86A14B4F868240023891A99424E
:1036F000A4F8643005DD2046FFF760FD002840F0A7
:10370000878094F86D340C2B1AD094F86634022B11
:103710006AD84FF40072A4F86A24002B00F0848069
:10372000022B18BF114600F0A0800023A4F86834D3
:103730002046FFF743FD78B194F86D340C2BC1D1CE
:103740004B4B1A88002A49D15E2000F007FA0C235F
:1037500084F86E3484F86D34E06D00B3B4F86460BE
:10376000CEB17F2E0BD877000023C7F5807700EB12
:1037700046061D46F2180233BB429580FAD1014637
:103780000022204607F0EAF894F86D34072B01D8A0
:10379000DB0764D5E06D07F0BDF80023E365206E1C
:1037A00000288FD0B4F864609EB17F2E0BD87700CC
:1037B0000023C7F5807700EB46061D46F21802335A
:1037C000BB429580FAD101460122204607F0C6F897
:1037D000206E07F09FF800232366F8BD013A92B2ED
:1037E0001A80002AB0D0B2E704F11805284600F08C
:1037F000E1F90028A4D004F1660128464FF40072D4
:1038000000F07CFA81B2A4F86A14002998D08CE701
:10381000F8BD07F035F8206600287FF462AFE06D50
:10382000BDE8F84007F076B804F26625294604F1B1
:10383000180000F063FA022382B2A4F86A2484F824
:103840006634294604F1660005F0C4FAB4F86A1437
:10385000032384F8663400293FF472AF65E72046FD
:10386000E16D012207F07AF894E704F26625E8E7B3
:1038700030F5FF1F90F830302DE9F04107460BB9C5
:10388000BDE8F08106F0FCFF80460028F8D0F96919
:103890003B6A99422BD9CC1A29D003F58072B869BA
:1038A0009142184408F1040135D2224601F0E2FFAA
:1038B0003B6AFA6A2344224464087F2C3B62FA6222
:1038C0000BD86600002308EB4405C6F580761C463D
:1038D000EA180233B3429480FAD1384641460022B6
:1038E00007F03CF84046BDE8F04107F013B8104B34
:1038F0001A8852B95E2000F031F9002387F8303081
:103900004046BDE8F04107F005B8013A92B21A808E
:10391000002AEFD0F1E74FF4807201F0ABFF3B6A71
:10392000FA6A03F5807302F580723B62FA62D4E7AB
:1039300030F5FF1F002380F8303062B6054B1A883F
:103940001AB1013A92B21A8012B95E2000F006B99B
:10395000704700BF30F5FF1F002380F830308362CE
:10396000C3627047F0B50E4685B0044672B690F853
:103970003030002B31D162B6194D5E2000F0D4F802
:103980002B883146013368462B8002F06BFF6B4673
:1039900007CB04F118071E88A061BE817960BA6068
:1039A000A06940B10022E369E2620120A36284F8C9
:1039B000300005B0F0BD2B882BB95E2000F0CEF8AA
:1039C000002005B0F0BD013B9BB22B80002BF0D155
:1039D0005E2000F0C3F80020F3E7FFF7ABFFCBE772
:1039E00030F5FF1FF0B50F4685B01646044672B697
:1039F00090F83030002B37D162B61D4D5E2000F0BC
:103A000093F82B883946013368462B8002F02AFF51
:103A10006B4607CB04F1180C1F88A061ACF80C7042
:103A2000CCF80410CCF80820A06958B1E3692662EC
:103A300000229E1B0123E262A662184684F8303001
:103A400005B0F0BD2B882BB95E2000F087F8002070
:103A500005B0F0BD013B9BB22B80002BF0D15E2066
:103A600000F07CF80020F3E7FFF764FFC5E700BF34
:103A700030F5FF1F72B690F830300BB1FFF75ABF28
:103A800062B67047826A024BA2FB03231846704756
:103A9000C6BDE602184A194B19491A48F0B417680E
:103AA000194E1A4D1A4C47F4805717601E60DD609E
:103AB0001C6118600B78D90718D402F53F521C32EC
:103AC0004FF4107111609A0754BF124A124A5B07F3
:103AD0004FF4007154BF114B114B116054BF4FF4A0
:103AE00010724FF400721A60F0BC70470D4A4FF428
:103AF00000711160E7E700BF3C80044000C0024055
:103B0000CCFAFF1F00001F8001401F000110003889
:103B1000011000781CB004400CC0044014B00440F4
:103B200004C0044008C004405E2870B410D84309A3
:103B30000849094A51F823501678012400F01F0063
:103B400004FA00F005439C40344341F823501470BC
:103B500070BC704734F5FF1F4CF5FF1F5E2810B492
:103B600014D843090B4A00F01F0052F823400121EA
:103B700001FA00F024EA000042F8230030B9064AB6
:103B8000107801FA03F320EA030313705DF8044B85
:103B9000704700BF34F5FF1F4CF5FF1F10B582B012
:103BA00002AB026803F8011D546819460122A047C0
:103BB00002B010BDC06938B18169C26847F6FF73B1
:103BC000881A984228BF1846704700BF38B5C369A5
:103BD000044663B100251D7192B2C06901F048FA34
:103BE000E269127912B101232846237138BD0122FE
:103BF0002271184638BD00BF00B5C06983B030B12E
:103C00000DF10701012200F0D5FF012804D04FF08B
:103C1000FF3003B05DF804FB9DF8070003B05DF8CA
:103C200004FB00BF10B50446C06982B040B10DF17D
:103C30000701012200F0BEFF012803D04FF0FF3042
:103C400002B010BDE0699DF80740C168013901F07C
:103C500089F8204602B010BDC06908B101F0B4B8BF
:103C6000704700BF2DE9F04104464FF47A731348C2
:103C7000A360002320602371237324200D46904607
:103C800009F06EFFE061B0B1074605F1200E28682B
:103C90006968AA68EB683E460FC610357545374619
:103CA000F5D128683060414604F10D000C220AF07D
:103CB000BBFE002363762046BDE8F081F81F0100BB
:103CC0004FF47A720449826000220160027102732B
:103CD000C2614273704700BFF81F0100014B0360CF
:103CE000704700BFF81F01000D307047C06920B158
:103CF0008079012894BF002001207047C06908B571
:103D000008B100F057FF08BDC06908B520B101F047
:103D100029F8003018BF012008BD00BFC06900B1FC
:103D20008069704710B50446C06930B100F0B6FE36
:103D3000E06909F01DFF0023E36110BDC06918B1FF
:103D40008079003018BF0120704700BF38B50A469F
:103D50000121044600F03EFB08B9002038BD04F103
:103D6000100528462146012201F014FC40B104F15F
:103D70003800294600F0F6FE003018BF012038BD9B
:103D800002462146284601F005FC0028EFD100201C
:103D900038BD00BF2DE9F04F99B04FF0000A3B4EFF
:103DA0008DF81CA00546103106A8934601930446E1
:103DB0008DF81EA08DF840A08DF842A006960F96B3
:103DC000174600F0CFFE0DF13C082F2138460AF0CF
:103DD00073FCC7EB000903465FFA89F9394602A86C
:103DE00023B33B782F2B1FD0B9F10C0F28BF4FF016
:103DF0000C094A460AF018FE18AB4B44404603F83B
:103E000058AC00F04BFE01234046214602AA01F0C7
:103E100023F903462046002B30D000F03FFE234616
:103E20004F4444469846D0E70137CEE7A369009354
:103E3000019B206994F804A094F8059094F80680FA
:103E4000D4F808C0E268217DCBEB070BC3F800B0C3
:103E5000E769009B246A286128462E6085F804A043
:103E600085F8059085F80680C5F808C0EA602975D0
:103E7000AB61EF612C6219B0BDE8F08F28462B7161
:103E80002E60AB7119B0BDE8F08F00BF18200100A3
:103E90002DE9F04F9DB080461D4601A86B461446A3
:103EA000FFF778FF009AA15C1444002944D09DF8E4
:103EB0000A30374E0A9600218DF82C108DF82E10FE
:103EC000002B32D00AA801A922462B4601F0C4F8E3
:103ED00058B301A800F0E2FD15F0060F53D1109B76
:103EE0009DF82CB09DF82DA09DF82EC00D9D9DF83D
:103EF0003CE0119F139622460C9E0E9C199340465F
:103F0000129B8DF850B013A98DF851A08DF852C0B6
:103F10001596169517948DF860E01A971B93FFF786
:103F2000A1FE40461DB0BDE8F08F4046FFF7C8FE39
:103F300040461DB0BDE8F08F9DF80810049E144B5C
:103F40009DF809909DF80AC0039F059D9DF818E013
:103F5000079C8DF8501013931696089B099E0D4AE6
:103F60008DF85190404613A98DF852C015971795BA
:103F70008DF860E019941A931B96FFF773FE404684
:103F80001DB0BDE8F08F0AA8109900F0EBFEA6E77F
:103F900018200100881B01002DE9F04D80469EB0DD
:103FA0000C461646E06904A900F09AFE002846DD9A
:103FB0009DF81000002842D0E528F3D02E28F1D03B
:103FC0009DF81B0000F0080000F0FF050028E9D173
:103FD00004A869461D4F8DF834508DF836500C9763
:103FE00000F06AFDE16933466A460CA801F034F836
:103FF00028B3139B9DF834B09DF835A09DF836C0CA
:104000000F9E109D9DF844E0129C15971C930E9FE7
:10401000149B8DF858B06A46404615A98DF859A0F2
:104020008DF85AC01797189619958DF868E01B946B
:104030001D93FFF717FE40461EB0BDE8F08D4046C9
:10404000FFF73EFE40461EB0BDE8F08D182001008F
:1040500010B50446FFF74AFE18B1E36900229A60E2
:10406000DA6010BD084B094A9A63022100221961E7
:104070005A719A719A721A7383F8302083F83C202F
:1040800083F83E20704700BF50F5FF1F1820010045
:104090001E4B1F4A30B41A60C2070FD519684FF083
:1040A000004441F48061FF221960DC6219465A63C2
:1040B000CB6A164A002BFBDA936B0138052821D90D
:1040C0000321124C134A0023013399426263A0F189
:1040D0000200F9DC50B10D4A0E4D1446D36A13F0BC
:1040E000F00FFBD065630238A36BF7D141B1074AEB
:1040F0001046D36A13F0F00FFBD00139836BF8D16F
:1041000030BC70474108DCD1E4E700BF00C002408A
:1041100000041F80FFFF009005281DD8DFE800F095
:1041200003030D1217080F4B0F4A1A60FFF7B2BCBA
:104130000C4B0E4A1A60FFF7ADBC0A4B0C4A1A60D2
:10414000FFF7A8BC074B0B4A1A60FFF7A3BC054B4F
:10415000094A1A60FFF79EBC024B084A1A60FFF733
:1041600099BC00BFB0F5FF1F000001B80430003853
:1041700001100038032000380100023806500138D1
:1041800008B50121007905F0B5FB0E4B1A7802B98C
:1041900008BD0D4A127800211970002AF8D0D00706
:1041A00003D50A490A4B09681960910703D50749E5
:1041B000084B496819605307EAD5044A064B9268D0
:1041C0001A6008BDB4F5FF1F4CF5FF1F40F5FF1F37
:1041D00000E100E004E100E008E100E038B5044659
:1041E000008940F20123984205D92046FFF7C8FF15
:1041F0000023A37138BDC0F50070023040F20225E3
:10420000FFF746FF2581F0E770B4204B1A7822B102
:104210000079002170BC05F06DBB1D491D4A0C786A
:10422000126801251D7004B372B60B78DC0707D540
:1042300019491A4C0E682468194D34402C600C60E2
:10424000990707D5174C154926684968144D314020
:10425000216069605B0707D51349104B0D689B68A7
:104260000F4C2B400B60A36062B6104BD968914293
:10427000CED00F4C1C600F49DA6042F080441C61C4
:1042800019600079002170BC05F034BBB4F5FF1F44
:104290004CF5FF1FB0F5FF1F80E100E034F5FF1F74
:1042A00040F5FF1F84E100E088E100E000C002402B
:1042B00001401F0000001F801048114AF0B4076839
:1042C0001646BFB24FF00045FF24136843F48063E5
:1042D0001360D5625463D36A002BFCDAB36BDBB294
:1042E000FF2B07D003689BB2DB1B8B42EDDB00206A
:1042F000F0BC70470120F0BC704700BF88F9FF1F79
:1043000000C002402DE9F041837905460F469046F2
:10431000002B5AD12846FFF777FF4FF496712846B5
:10432000FFF7CAFF2A4B18684FF0004140F4806045
:1043300047F040021860D96218465A63C36A002BDE
:10434000FCDA234C18204FF00042266828FA00F3CC
:1043500046F48066DBB22660E2626363E36A002BA8
:10436000FCDA083810F1080FEFD167B3082F0CBF43
:104370008721FF21164B1A684FF0004042F48062FB
:104380001A60D8621A465963D36A002BFCDA104AC5
:10439000002716464FF00044FF21136843F4806362
:1043A0001360D4625163D36A002BFCDAB36BD8B2CA
:1043B0001B06E87201D4BDE8F0810137B7F5807FB4
:1043C000EBD1BDE8F0819521D4E7FFF707FFA1E726
:1043D00000C002402DE9F84304460023904E0271CC
:1043E000884610462373A372A37163710121376855
:1043F00005F080FA2079012105F090FA2079012159
:1044000005F078FA874B1A6842F480521A60062049
:10441000FFF782FE844B854A1D781268BFB215B340
:1044200072B61978CD070BD58148824DD0F800C0FF
:104430002D68DFF814E20CEA0505CEF8005005609F
:1044400088070BD57C4D7B48D5F800C04068DFF865
:10445000F8E10CEA00002860CEF804004D0700F1F6
:10446000978062B61D78754BD968914207D0744821
:1044700018607449DA6042F08040186119606F4A30
:104480004FF00A094FF00040FF21136843F48063A6
:104490001360D0625163D36A002BFCDA09F1FF3359
:1044A00013F0FF09F1D18DB1E80703D5664A674BD8
:1044B00012681A60A90703D5634A654B52681A60EF
:1044C0006A0703D5604A634B92681A602046FFF77B
:1044D0009BFE05E03368DB1B9BB2B3F5FA6F62D835
:1044E00000210A462046FFF70DFF01280546E0722D
:1044F000F0D1204608214FF4D572FFF703FF4307A0
:1045000023D52573002505E03368DB1B9BB2B3F58B
:10451000FA6F4FD8372100222046FFF7F3FE2046DE
:1045200029212A46FFF7EEFEE0720028ECD1237B1A
:10453000022B41D02046FFF723FE4FF001094046F1
:10454000FFF7EAFD4846BDE8F8833C4A042094465C
:104550004FF0004EFF25136843F480631360C2F8E8
:104560002CE05563D36A002BFCDADCF83810431ECC
:10457000C9B213F0FF00E172EDD1AA294FF0020396
:1045800014D063712046FFF7FBFD4846BDE8F88371
:1045900031482849D0F800E089682B4D0EEA010126
:1045A0000160A9605DE701236371EBE723734FF0BE
:1045B0008045AFE70823E4E702463A212046FFF7AB
:1045C000A1FE50BB1D4B19684FF0004041F48061C3
:1045D000FF221960D86219465A63CB6A174A002B2A
:1045E000FBDA936B154A03F0C003C02B04BF03230F
:1045F0002373032116464FF00045FF20136843F450
:1046000080631360D5625063D36A002BFCDA0139F2
:1046100011F0FF01B36BF1D18CE706236371B1E7B1
:1046200088F9FF1F3C8004404CF5FF1FB0F5FF1FC9
:1046300080E100E034F5FF1F84E100E000C00240AB
:1046400001401F0000001F8040F5FF1F00E100E057
:1046500004E100E008E100E088E100E01649174AC3
:10466000F8B50F681646BFB24FF00045FF24136837
:1046700043F480631360D5625463D36A002BFCDA81
:10468000B36BDBB2FF2BC3720BD10B689BB2DB1B8E
:10469000B3F5967FEBDD0F234371FFF771FD00202B
:1046A000F8BDFE2B05D00D234371FFF769FD0020F7
:1046B000F8BD0120F8BD00BF88F9FF1F00C002400F
:1046C0002DE9F0411E4605461446002B61D01344E7
:1046D000B3F5007F13DC837913B103688B425BD0A1
:1046E0002B7B2960032B18BF49020A46284611215B
:1046F000FFF708FE074600287ED003236B7128468B
:10470000FFF73EFD0020BDE8F081904617463C448F
:10471000069F069B2744BB421AD24049DFF804C1DA
:1047200008461C46CA6A12F0F00FFBD0C0F834C02D
:10473000836B6370C3F3072323700234A742F1D85D
:10474000069CE3433B4423F0010302331C440694DC
:10475000069A4744BA420ED23049069C0846CA6AB5
:1047600012F0F00FFBD0836B6370C3F30723237049
:104770000234A742F3D82B89AA7A33449BB22B8107
:1047800012B1B3F5007F04D3AB7913B12846FFF71C
:1047900025FD0120BDE8F08103899342A0D8204681
:1047A000FFF776FC1D4B1E4A1A60F207344614D5FB
:1047B0001968069C4FF0004041F48061FF221960A7
:1047C000D8621946601C5A63CB6A144A002BFBDA84
:1047D000936B069A06901370741E052C16D94FF031
:1047E00006086FF0050703220C480E490023013329
:1047F00093424163FBDB8AE72846FFF72FFF00283F
:104800003FF47DAF01232F81AB71C8E762083FF40D
:104810007CAF57007F424FEA4208E5E700C0024004
:1048200000041F80FFFF009000B583B04FF40073B9
:1048300000920022FFF744FF03B05DF804FB00BFC5
:10484000F8B5314E336843F480654FF0004335606E
:104850003446F3621D467163334602F50077E16A20
:104860000029FCDA1E68117846F480661E60DD625D
:104870005963E16A0029FCDA1E685178023246F475
:104880008066BA421E60DD625963E8D11E49CA6A79
:104890001D4B002AFBDA1A684FF0004442F4806294
:1048A000FF211A60DC621A465963D36A1649002B4D
:1048B000FBDA0C684FF0004244F48064FF230C6084
:1048C000CA620C464B63E36A0F4A002BFBDA11689D
:1048D0004FF0004441F48061FF231160D46211461F
:1048E0005363CB6A084A002BFBDA936BDBB203F00D
:1048F0001F02052AC37205D011234371FFF740FC44
:104900000020F8BD0120F8BD00C0024070B504468B
:10491000154631B9122343712046FFF731FC0020C0
:1049200070BD037B032B18BF49020A461821FFF70D
:10493000E9FC064630B1042320466371FFF720FCF2
:10494000002070BD2A462046FE21FFF779FF00288F
:10495000E2D020464FF41671FFF7AEFC10B91523D4
:104960006371D9E7324620460D21FFF7CBFCB8B979
:104970000D4B19684FF0004041F48061FF2219602F
:10498000D86219465A63CB6A074A002BFBDA936B4D
:1049900013F0FF0F04D12046FFF7F2FB012070BD9A
:1049A00014236371B8E700BF00C00240014B024A04
:1049B0001A607047B0F5FF1F0320003838B590F932
:1049C0000530002B044603DBBDE8384000F042BC54
:1049D0000069012100F068FCF8B1A379257D0F4A38
:1049E000012B02EB451598BFA3690D4A98BFEB61F7
:1049F000E36912686B831B0CAB8232B105F11800BE
:104A000005F1160190472B8B6B82637903F07F03CE
:104A10006371BDE8384000F01DBC38BDC4F5FF1F10
:104A2000B8F5FF1F10B500F1080204460121006A25
:104A300000F020FD50B1E3693BB96279A368E361FE
:104A400062F07F036371012010BD012010BD00BF23
:104A500070B50646FFF7E6FF98B1336AB1681A7C75
:104A60001C795D69023991407CB1013D0D4402E041
:104A700014F0FF0407D0601900F03AFC013C002854
:104A8000F6D1002070BD336A1A7CB3694FF400710F
:104A900001FA02F21344B361012070BD10B58379AD
:104AA00004460BB9002010BDFFF788FF0028F9D09D
:104AB0000023A371012010BD002370B41C462E26D4
:104AC000C25C202ADDB204D0082D09D0651C0A552D
:104AD000ECB201330B2BF3D100230B5570BC7047A4
:104AE0000E550134E4B2C25CF0E700BF70B400239D
:104AF0002022CA5401330B2BFBD101380025072695
:104B000010F8014F2CB32E2C1ED0154A01E0A34201
:104B100017D012F8013F002BF9D1AE421ED3A4F1F9
:104B200021025D2A1AD8A4F16102192A05F10103B4
:104B300098BF203C0D44DBB298BFE4B22C701D46F8
:104B4000DEE7002070BC70470A2EFAD008250A263E
:104B5000D6E70878203818BF0120F3E71846F1E7B8
:104B60001F20010038B5837904460D462BB991F812
:104B70002020102A03D0202A10D0002038BD022285
:104B8000C36182714B8C5B018361002301206071E2
:104B900023752562A360E360236138BD032383711D
:104BA000496AC16104F11802284600F0F1FB0028AF
:104BB000EBD1E2E72DE9F04F85B08379039205460A
:104BC0008B4613B14279D20705D44FF6FF7000B27D
:104BD00005B0BDE8F08F8269C6680399921B9142C7
:104BE00051D8039900296ED0022BDFF8E890DFF846
:104BF000E880DFF8E8A0039FC6F308043ED0286AE7
:104C00000379013B03EA5623DBB2002C59D1002B78
:104C100057D1002E4BD1EA69AA60067C4169023A5D
:104C2000B2400B449818C4F500766B79B742CCBFFC
:104C3000B6B23E465B0629D4B6F5007F26D00021E9
:104C400000F032FB0028C0D004EB09029019824228
:104C500009D014465B4614F8011B03F8011B84427B
:104C6000F9D1A41AA344EB68BF1BBFB21E44EE6087
:104C70004FB3AB79022BC6F30804C0D12B6A586A34
:104C800000EB5620CFE792B20392AAE7D8F80030A3
:104C90009842D4D00146CDF800B02246DAF80000A0
:104CA0003346FFF70DFD00288FD0B344DBE72A46DB
:104CB00052F8081F029300F037FB029B002884D0B3
:104CC000286AAA68A9E7039A90B200B205B0BDE8C5
:104CD000F08F00BFC4F5FF1FE4ADFF1FC0F5FF1F3D
:104CE00038B58379012B05460C4616D9C368DA0618
:104CF00013D1284621462022FFF75CFF40B220282E
:104D000009D1237863B1E52BF3D02E2BF1D0E37AD0
:104D10001B0703D5EDE7002805DAFF2040B238BDB8
:104D2000184640B238BD002040B238BD30B5837956
:104D3000012B83B0044607D90DF107010122C56894
:104D4000FFF738FF012802D0002003B030BDE36830
:104D5000034A05F4F0701F331044E36003B030BD24
:104D6000C4F5FF1FF8B5044680790F4600B3A36968
:104D70008B421ED3022818D00FB3236AE2681B7C33
:104D8000511E09337D1ED940DD40A94213D9E36984
:104D9000A36004F1080605E0206AA16800F0C4FAE7
:104DA000013D80B13246002DF6D1E7600120F8BD0B
:104DB000F8BD0020F8BD002AE9D06D1AE9E7A76028
:104DC000E7600120F8BDF8BD83790BB1FFF7F6BDB0
:104DD00018467047F0B58379012B83B004460D4621
:104DE00003D00023184603B0F0BD427902F002025E
:104DF00002F0FF0692B182698A42F2D3002AF1D012
:104E0000E668FFF7AFFF0028EBD0206A55B9E169EB
:104E100000F098FB0028E4D0E56115E03346184621
:104E200003B0F0BDA16801AA00F07EFA0028D8D036
:104E3000206A174B90F8207001994FF6F872102FE6
:104E400008BF1346994215D36279A379A56162F030
:104E50007F026271002BC4D02046FFF7AFFD00280F
:104E6000BFD02046B54234BF29463146FFF77AFF0E
:104E70000346B7E700F066FB0028B2D0206AA168BD
:104E80006FF0704200F0B4FA0028DDD1A9E700BF4E
:104E9000F8FFFF0F38B51D4B03EB41130446D87ADA
:104EA00010F0110F154602D012F0420F1CD1184A13
:104EB000217512682261998A5A8B42EA0141E161A7
:104EC000D87A10F018000DD1DB69A3610123A3711A
:104ED00005F00F03002163716B06A160E1600FD440
:104EE000012038BD102801D0002038BD206A04F10F
:104EF000180200F04DFA0028F6D00423A371E7E76A
:104F00002046BDE83840FFF765BF00BFC4F5FF1F6E
:104F1000E4ADFF1F2DE9F04F85B080460E461046E8
:104F200001A99A46FFF7E2FD002866D00023326A05
:104F3000C8F8202019461F46B360F360DFF81491CB
:104F40000AE0E52D01A821464FF00B0212D009F02E
:104F5000B3F8002863D0F168B3698B4249D9304671
:104F6000C1F3431BFFF7E2FE0446002845D0057855
:104F7000002DE6D137B9D9F8003088F814B0C8F858
:104F8000103025780127002DE5D10AF01203122BED
:104F900033D1D8F81000012100F086F968B398F8F1
:104FA00014402A4B03EB441400212022204609F030
:104FB00017F901AB03CB264A1D8812689B78206045
:104FC00061602581A372002A33D004F1100004F13E
:104FD0000E019047238AE28963822383E28200F0F4
:104FE00039F950B14046524698F81410FFF752FF75
:104FF00004E00AF01203122B03D0002005B0BDE834
:10500000F08F002FC5D1B379022BF6D03046FFF7D1
:105010001FFD0028F1D00D4C88F81470C4E70AF089
:105020003003302BE9D0404659465246FFF732FF55
:10503000E4E7082321202821A273E373207461741C
:105040004FF4006242F62103C6E700BFC4F5FF1F1C
:10505000B8F5FF1FE4ADFF1F10B484791CB1002028
:105060005DF8044B70475DF8044BFFF753BF00BF7A
:105070002DE9F04F837985B0012B05468A460192D0
:1050800005D001232B71002005B0BDE8F08F4379D6
:105090009907F6D55B0700F19680EC68019B002B21
:1050A00000F09C805F4FDFF890819B4635E0002C3C
:1050B0003DD1A96800296BD1EA69002A7AD0AA609B
:1050C000017C4069C4F50076B6B2023A8A4009EB29
:1050D00000035E4503EB02012BD8B6F5007F29D112
:1050E000D8F800308B4204BF4FF0FF33C8F80030CF
:1050F0004D4B52461868FFF709FC0028C1D00AF54D
:10510000007A4FF40074EB68C6EB0B0B1C441FFADB
:105110008BFBEC60BBF1000F60D0286A0379013B88
:1051200003EA542313F0FF09C4F30804BFD0AA68AC
:10513000C6E75E461CB9EA68AB699A4215D20846D2
:10514000012100F0B1F800289BD0E01981198842B4
:105150001CD00346544614F8012B03F8012B8B4254
:10516000F9D11B1A9A443446CDE7009100F072F849
:105170000099002885D02D4BC8F800101A78E01946
:10518000811942F0010288421A70E2D13446BAE72E
:1051900003AA00F0C9F800283FF476AF286A244B30
:1051A00090F82060039A4FF6F871102E18BF194638
:1051B0008A4284D32846FFF735FC00283FF461AFCC
:1051C000286AAA687CE7EC68A9698C423FF466AF5C
:1051D000FFF7C8FD00283FF454AF5EE7AB69A34278
:1051E00014D26B79AC6143F080036B711A0709D557
:1051F000AB79002B3FF445AF2846FFF7DFFB0028D3
:105200003FF43FAF019805B0BDE8F08F094B1B6834
:1052100033B1019B23B16B7943F080036B71E5E7F8
:105220006B79E3E7C4F5FF1FC0F5FF1FC4F7FF1F4D
:10523000F8FFFF0FB8F5FF1FE4ADFF1F00B583B007
:1052400002AB012203F8011D1946FFF711FF03B05D
:105250005DF804FB70B50F4C23780BB9012070BDCD
:105260000D4D0E4B286819680D4AFFF74FFB0028BB
:10527000F5D00C4E316819B900232370012070BDA0
:105280002868074AFFF742FB0028E8D00023336074
:10529000F2E700BFC4F7FF1FC0F5FF1FE4ADFF1F1B
:1052A000C4F5FF1FBCF5FF1F70B50D4D2B68834281
:1052B00004460E460DD0FFF7CDFF08B9002070BDA3
:1052C000084B094A18682146FFF7AEFA0028F5D0C6
:1052D0002C60064B1A7816431E70012070BD00BF6B
:1052E000E4ADFF1FC0F5FF1FC4F5FF1FC4F7FF1F8C
:1052F00010B50446FFF7AEFF78B1084B002103F567
:10530000007203F8011F9342FBD1054B05491A783F
:105310000C6042F001021A70012010BDC3F5FF1F9E
:10532000C4F7FF1FE4ADFF1FC36801338B4270B5A4
:1053300004460D4616461DD390F82030124AC16926
:105340001268102B0CBF280AE8090844904205D0C7
:105350000021FFF7A9FF68B194F82030102B0BD083
:1053600005F07F05094B53F8253023F07043336077
:10537000012070BD002070BDEDB2044B33F8153034
:105380003360012070BD00BFE4ADFF1FC4F5FF1FF7
:105390002DE9F04782B002ADDFF8508045F8041DDA
:1053A000044691464FF0000A4FF400774FF6F87626
:1053B0000CE094F82030227C0199102B14BF434656
:1053C000334607FA02F29942924408D220462A460E
:1053D000FFF7AAFF0028ECD102B0BDE8F08701205A
:1053E000C9F800A002B0BDE8F08700BFF8FFFF0FCA
:1053F0000129F8B50C46054617462CD9C368013378
:10540000994228D890F82030164AC1691268102BAA
:105410000CBF260AE6090E44964206D0304600210B
:10542000FFF742FFC0B195F82030102B15D004F0E3
:105430007F040D4B43F824700C4B2A7E1978012A07
:1054400041F0010188BFAA68197082BF084BB618E5
:105450001E600120F8BD0020F8BDE4B2024B23F825
:105460001470E9E7E4ADFF1FC4F5FF1FC4F7FF1F89
:10547000BCF5FF1F2DE9F04F146883B091468346B9
:10548000884664B301344FF0000ADBF80C305F1C2F
:105490000BB32646002506E01C461E46DBF80C3002
:1054A0000135AB4217D9A74238BF022421465846DE
:1054B00001AA38BF2646FFF737FF631C991B50B17E
:1054C000019A002AE8D1414510D01C46DBF80C3087
:1054D0000135AB42E7D8002003B0BDE8F08F4B1E8A
:1054E000D3F1000A04685AEB030ACEE75846214676
:1054F0006FF07042FFF77CFF0028ECD0B44203D875
:105500000BE0B54209D92C46651E2246294658466D
:10551000FFF76EFF0028F4D1DDE7D9F8001049B994
:10552000C9F80060BAF1000F02D00136CBF8006074
:105530000120D1E758463246FFF75AFF0028EFD145
:10554000C9E700BFF0B5022383B00546104F0360E2
:105550000C464FF6F8760CE02846FFF749FF88B175
:1055600095F82030019C102B14BF3B4633469C42DB
:105570000BD2214601AA2846FFF7D6FE214600227B
:105580000028E9D1002003B0F0BD012003B0F0BD38
:10559000F8FFFF0FF8B53C4B144605461960CAB139
:1055A000042A01D90020F8BD00200146FFF77CFE47
:1055B0000028F7D0354B03EB041404F5D474A37919
:1055C0005B06EFD1D4F81230632BEBD9D4F80E4040
:1055D000002CE7D020460021FFF766FE0028E1D02E
:1055E0002A4AB2F80B30B3F5007FDBD1117C0029D9
:1055F000D8D0D389002BD5D0567B002ED2D0002313
:1056000029762E712B74012703E009290B46297492
:10561000C8D007FA03F0B04203F10101F5D1D08AF6
:105620001A4900B9486AD189A8602144E961B2F8F1
:105630001160177C6E84760107FB001006F2FF11E3
:1056400000EB512169616862B2F813000F4E00B996
:10565000306A611A014421FA03F340F6F4718B4277
:10566000EB600BD94FF6F4718B4285BFD36A6B6246
:105670001023202385F820300120F8BD0C2385F865
:1056800020300120F8BD00BFC0F5FF1FC4F5FF1F8B
:105690002DE9F00F6748684B0678684CDFF8BC814D
:1056A000DFF8BCC1664F67491A462EB372B690F850
:1056B000009019F0010F08D0634EDFF88CA1356817
:1056C0003E6835400D60CAF8005019F0020F08D04E
:1056D0005E4EDFF878A135687E6835404D60CAF8C7
:1056E000005019F0040F06D0DCF80050BE683540B9
:1056F0008D60CCF8005062B6DE68B6F1384F00F02D
:105700009480DFF86091C3F800904FF03849C3F8F7
:105710000C904F4EDFF840A14FF07849C3F810903D
:105720001E609AF8009098F800A054F839604FF085
:10573000010B1AF0020F86F800B14FF0004A3CD07E
:105740007026C3F82CA05E63DE6A002EFCDA4FF0F0
:10575000004A0026D2F838B0C2F82CA05663DE6AA0
:10576000002EFCDA54F839A00678D2F838904FF0C1
:10577000010B5FFA89F98AF880B0A6B1F50704D564
:10578000DFF8E4A00D68CAF80050B50704D5DFF8CB
:10579000DCA04D68CAF80050750704D5DFF8D0A02A
:1057A0008D68CAF8005019F0800F3FF47EAF294B86
:1057B00000221A70BDE8F00F70470526C3F82CA030
:1057C0005E63DE6A002EFCDA4FF0004A0026D2F853
:1057D00038B0C2F82CA05663DE6A002EFCDA54F80A
:1057E00039A00678D2F838904FF0010B5FFA89F9AA
:1057F0008AF880B0A6B1F50704D5DFF86CA00D6873
:10580000CAF80050B50704D5DFF860A04D68CAF8A3
:105810000050750704D5DFF858A08D68CAF800500D
:1058200019F0010F7FF441AFC1E70B4D95F80090DF
:1058300079E700BF4CF5FF1F00C002407C28010043
:1058400034F5FF1F40F5FF1F80E100E084E100E038
:1058500000001F80C9F7FF1FE8ADFF1FC8F7FF1F3B
:1058600088E100E001401F0000E100E004E100E009
:1058700008E100E02DE9F04F87B00546009100985F
:105880000021914608F0ACFC9C4803789C480178C4
:105890000591D3B172B6994A1378D90707D5994AB9
:1058A000994916680968994C3140216011609A073E
:1058B00007D59749944A0E685268944C32400A6062
:1058C00062605B0700F1CC8162B6924BDA68B2F19C
:1058D000384F09D090491960904A4FF038444FF042
:1058E0007841DC6019611A608D4ADFF848821378CC
:1058F0000393002B40F020818A4C98F8001001940B
:10590000059A059E834C02F00800C0B202900298EE
:105910004FF0004206F00106234617460496002881
:1059200073D009EB050000F1FF3C8CEA050C1CF07C
:105930007E4C08D025F07E4ACAF1007ACAEB090CE9
:105940000AEB0500D1468246019E56F831104FF011
:10595000010081F80001049900295BD00326E2626E
:105960006663E16A0029FCDA290C41F08051986BEA
:10597000DA625963E16A0029FCDAA9B241F0805188
:10598000986BDA625963E16A0029FCDA996BB9F124
:10599000000F57D02068009D40F480602978206077
:1059A000B9F1010BE262616300F0A0800099AB44A1
:1059B0004E78E06A0028FCDA986B1D6845F4806533
:1059C0001D60DF625E6301F8010B5945F0D1E16AA9
:1059D0000029FCDA996B8BF8001098F80000019E02
:1059E000504D56F830104FF0010681F88060009E4F
:1059F0004E4400960121BCF1000F26D0029898F881
:105A00000010E146554600288BD109EB050ADDF868
:105A100008C099E7C5F3074141F0805141F4407156
:105A2000E2626163E16A0029FCDAA9B241F08051C7
:105A3000986BDA625963E16A0029FCDA996BB9F173
:105A4000000FA7D198F80000C9E7039A002A35D0C3
:105A500055F830202F4B82F800114FF000410622FC
:105A6000D96219465A63CB6A2A4A002BFBDA019C99
:105A7000926B54F83030012283F880202823013BB8
:105A80007FF4FDAF059D6C0700F1E4807A21019B56
:105A900053F830201F4B01254FF0004482F800518D
:105AA000DC621A465963D36A1A49002BFBDA019A61
:105AB00052F830308A6B012283F880200F4C237813
:105AC0008BB1D90703D51149174A096811609A07A4
:105AD00003D50E49154A496811605B0703D50B4A87
