:1000000000800020BD010000D99500009D950000F2
:100010009D9500009D9500009D9500009D95000018
:100020009D9500009D9500009D950000D9950000CC
:10003000D99500009D950000D99500008D95000090
:10004000D9950000D9950000D9950000D9950000F8
:10005000D9950000D9950000D9950000D9950000E8
:10006000D9950000D9950000D9950000D9950000D8
:10007000D9950000D9950000D9950000D9950000C8
:10008000D9950000D9950000D9950000D9950000B8
:10009000D9950000D9950000D9950000D9950000A8
:1000A0002D4C00003D4C0000D9950000D995000072
:1000B000D9950000D9950000D9950000D995000088
:1000C000D9950000D9950000D9950000D995000078
:1000D000D9950000D9950000D9950000D995000068
:1000E000D9950000D9950000D9950000D995000058
:1000F000D99500007DB30000D995000075B80000C7
:10010000D995000091BC0000D9950000D995000058
:10011000D9950000D9950000D9950000D995000027
:10012000D9950000D9950000D9950000D995000017
:10013000D9950000D9950000D9950000D995000007
:10014000D9950000D9950000D9950000D9950000F7
:100150000DAC000025AC00003DAC000055AC00002B
:10016000D9950000E19D0000D9950000D9950000C7
:10017000D9950000D9950000D9950000D9950000C7
:10018000D9950000D9950000D9950000D9950000B7
:10019000D9950000D9950000D9950000D9950000A7
:1001A000D9950000D9950000D9950000D995000097
:1001B000D9950000D9950000A1AA000010B56A4B9E
:1001C0004CF220521A804DF628121A8000BF00BF50
:1001D00009F006FA4FF01062644B1A60644A083363
:1001E0001A60644A04331A60A3F530432C3B1B6841
:1001F00013F4807F06D100225F4B1A604FF4A8529F
:10020000043B1A605D4B1B7813F0080F04D05B4B66
:100210001A7842F008021A702A22594B1A70594B68
:10022000594A9A420DD2131D584CE41A24F0030483
:1002300004340023104656495A581A500433A34236
:10024000FAD1544B544A9A4280F08980131F534983
:10025000C91A21F003011A1D1144002243F8042F8A
:100260008B42FBD17BE05A581A500433B3F5DE7F42
:10027000F9D14B4B80214B4A03F8011B9342FBD130
:10028000494B4A4A1A600A22494B1A702422A3F6A3
:10029000FF731A70A022013B1A7006331A7812F00D
:1002A000020FFBD0434B1A7812F0100FFBD1414BD9
:1002B0001A7802F00C02082AFAD103223E4B1A7077
:1002C000462201331A7001331A7812F0200FFBD046
:1002D000384B1A7812F0400FFBD04FF08272374B38
:1002E0001A60092204331A602022354B1A70063333
:1002F0001A7802F00C020C2AFAD1324A324B1A60F8
:10030000324A334B1A600722043B1A60314A03F524
:1003100051631A6062B609F025FC174B1B6813F095
:10032000010F05D02C4809F083FB2C4A2C4B1A6096
:100330002C4B1B7813F0400F0AD0294B1A68274B1F
:100340009A4205D1244809F073FB0022244B1A601D
:100350000DF060F909F04AF90AF056FDFEE70023B6
:10036000124821497FE700BF0E200540308004403D
:10037000823F04000100002B14D0034002D007404C
:1003800000E00740FCBBFF1F60ADFF1FFFBBFF1F6E
:100390002027010088F4FF1FFCBBFF1F83F4FF1F11
:1003A00000E400E05FE400E008ED00E000A8FF1FCB
:1003B0000050064006400640044006404480044089
:1003C00000400640C010050004800440BFD4010076
:1003D00014E000E000002020BBF0E255A5C3945AD1
:1003E0001CE0034000F0074000000000FFFFFFFF9B
:1003F000FFFFFFFFFFFFFFFFFFFFFFFFFFFFFFFF0D
:10040000FFFFFFFFFFFFFFFFFFFFFFFFFEFFFFFFFD
:1004100010B5054C237833B9044B13B10448AFF33E
:1004200000800123237010BDFCBBFF1F00000000F3
:100430001827010008B5064B1BB106480649AFF363
:1004400000800648036813B1054B03B1984708BD07
:10045000000000001827010000BCFF1FFCBBFF1FAD
:10046000000000000122014B1A707047BAC9FF1F3B
:100470000122014B1A707047ACECFF1F08B502480F
:1004800006F072FA08BD00BF6CCAFF1F10B5044623
:10049000034A40F8182B04F075FD204610BD00BF3C
:1004A000381A010010B504460AF0A4FC204610BD1D
:1004B0000F4B03604172026100230372C36039B1C4
:1004C0001946026942F823100133427A9A42F8DC55
:1004D000084B1A680AB9186004E053690BB11A4650
:1004E000FBE75061002343618380C380704700BFF6
:1004F0000015010040F2FF1F144B036004234372F8
:1005000000F12803036100230372C36019460269E6
:1005100042F823100133427A9342F8DB0C4B1A68FD
:100520000AB9186004E053690BB11A46FBE7506141
:10053000002343618380C380064B03604FF4803304
:100540008361C36103624362704700BF001501000D
:1005500040F2FF1F181A010010B504460F4B03604C
:100560000023437203610372C3600D4B1A680AB91A
:10057000186004E053690BB11A46FBE7546100238D
:100580006361A380E3802046064B40F8183B04F0EB
:10059000EBFC204602F032FC204610BD00150100A5
:1005A00040F2FF1F381A010010B504460E4B0360DD
:1005B0000023437203610372C3600C4B1A680AB9CB
:1005C000186004E053690BB11A46FBE7546100233D
:1005D0006361A380E380064A2260A361204603F0A2
:1005E000D7F8204610BD00BF0015010040F2FF1FE4
:1005F000481A0100034B40F2FF12DA809A805A80B9
:100600001A80704734EBFF1F08B5002008F092FFF6
:10061000422811D1012008F08DFF0D280ED10220B3
:1006200008F088FF2A280BD1032008F083FF8028D8
:1006300014BF0020012008BD002008BD002008BD17
:10064000002008BD70B50424084E204608F072FF53
:100650000546601C08F06EFF331900EB052023F8F7
:10066000040C02340C2CF0D170BD00BF34EBFF1F22
:1006700008B5064806F09CF920B1044806F0AAF92E
:1006800080B200E0002000B208BD00BF6CCAFF1FAE
:100690001C4B1B6813F0400F0CD11B4B1A681B4BF3
:1006A0001B68D31A642B05D9174B1A68174B1A60AD
:1006B00001207047164B1B6813F0200F0CD1124B12
:1006C0001A68124B1B68D31A642B05D90E4B1A6893
:1006D0000E4B1A60022070470E4B1B6813F4803FCC
:1006E0000CD1094B1A68094B1B68D31A642B07D924
:1006F000054B1A68054B1A600320704700207047AD
:1007000000207047D0F00F4048F1FF1FBCC9FF1F09
:1007100090F00F4050F00F4038B5134B1880002276
:10072000124B23F81020124B53F82030DD8D5C88DB
:100730001048214606F05EF90F4A1346B72103F828
:10074000021B04EBC51101EB410001EB80010B48DA
:1007500001440C684868C2F8024058600A7A1A726C
:100760000122074B1A7038BD8EDDFF1FA4BCFF1F8E
:100770004CCDFF1F6CCAFF1F90ADFF1FC0DDFF1FD8
:10078000C0C9FF1F2DE9F84304462D4F57F820300C
:10079000DE8DB3F8009009EB46094FEA49091FFACC
:1007A00089F9DFF8D080274D58F829002946002222
:1007B00002F09AF809F101091FFA89F958F829009D
:1007C0002946002202F090F857F8243086F0010202
:1007D00002F00102DA8500255D801B48294606F0FB
:1007E00009F91A4B23F8145057F824309D80184B00
:1007F0001A68184B1A602CB9174B1D800122174B31
:100800001A8005E00022164B1A800122154B1A802F
:10081000154A1346B72103F8021BF10101EB062626
:1008200001EB8601114E0E4430687168C2F8020077
:100830005960327A1A7201220D4B1A70BDE8F883A2
:100840004CCDFF1FB6B81D006CCAFF1FA4BCFF1F14
:1008500048F1FF1F30EBFF1F58CDFF1F2CEBFF1F90
:1008600070EBFF1F88DDFF1F90ADFF1FC0DDFF1F76
:10087000C0C9FF1FA4ADFF1F10B52D4B23F81010EA
:1008800001290DD011B102292CD04CE0294B1A8836
:10089000294B53F822302948598806F0ABF842E03A
:1008A000254C54F820302548996806F0A3F8214BD0
:1008B0001B8854F823305A88D88D21490B46B72419
:1008C00003F8024B02EBC01202EB420002EB800283
:1008D0001C48024414685068C1F802405860127AFB
:1008E0001A7220E0144C54F820301448D96806F0ED
:1008F00081F8104B1B8854F823305A88D88D104942
:100900000B46B72403F8024B02EBC01202EB420085
:1009100002EB80020B48024414685068C1F80240A0
:100920005860127A1A720122074B1A7010BD00BF6C
:10093000A4BCFF1F8EDDFF1F4CCDFF1F6CCAFF1F25
:1009400090ADFF1FC0DDFF1FC0C9FF1F70B503883A
:10095000C68D174A32F813204280B721154A11700C
:100960000022828033B91146134A11800121134AB3
:10097000118005E00021124A11800121114A1180E5
:1009800003EB46035E00104D104C55F8260021463F
:10099000002201F0A9FF013655F826002146002269
:1009A00001F0A2FF0A4B1A680A4B1A6070BD00BF23
:1009B000BCD8FF1F90ADFF1F58CDFF1F2CEBFF1FB2
:1009C00070EBFF1F88DDFF1FA4ADFF1F1EF40400A6
:1009D00048F1FF1F30EBFF1F08B54D4B1A88013857
:1009E000032800F29380DFE800F002264A86494B94
:1009F0001B6813F0400F0BD010460121FFF73CFF9E
:100A0000454B1A68454B1A600022454B1A8008BDB9
:100A1000414B1A68414B1B68D31AB3F57A7F75D9DD
:100A20000020FFF7AFFE3C4B1A683C4B1A600422D3
:100A30003B4B1A8008BD3B4B1B6813F0200F0BD0BB
:100A400010460221FFF718FF334B1A68334B1A6028
:100A50000022334B1A8008BD2F4B1A682F4B1B689E
:100A6000D31AB3F57A7F51D90120FFF78BFE2A4BB9
:100A70001A682A4B1A600422294B1A8008BD2A4B97
:100A80001B6813F4803F1ED0284B33F812305BB93B
:100A9000274B53F82200274B33F8122043889A4201
:100AA00006D0FFF753FF03E010460021FFF7E4FEF6
:100AB000194B1A68194B1A600022194B1A8001222F
:100AC0001D4B1A7008BD144B1968144B1B68CB1AC8
:100AD000B3F57A7F1AD982F0010202F001000C4BC3
:100AE0001880FFF719FE0C4B1A680C4B1A60042291
:100AF0000B4B1A8008BD084B1A68084B1B68D31AA9
:100B0000B3F57A7F02D90022054B1A8008BD00BFD9
:100B10008EDDFF1FD0F00F4048F1FF1FBCC9FF1F43
:100B2000B8C9FF1F90F00F4050F00F40A4BCFF1F4A
:100B30004CCDFF1FBCD8FF1FC0C9FF1F70B50446B6
:100B40000D463F4B53F82030DE8D01223D4B1A708D
:100B50003D4B33F8103093424AD013B1022B5BD097
:100B600070BD26B9394B1B88013B9BB203E0384B63
:100B70001B88013B9BB2002D13DA364A12883AB12A
:100B80003548002105F036FF0025324B1D800FE06F
:100B90001DB23148294605F02DFF01222D4B1A8048
:100BA00006E09D4204DD2C48002105F023FF0025CE
:100BB0002A4A931C05EBC61606EB460106EB810696
:100BC00027490E4430687168C2F80200C2F8061066
:100BD000327A1A721A4B53F824305B889D420CBF4C
:100BE000B72220221D4B1A701E4B23F8145070BDE3
:100BF000002905DA1848002105F0FCFE002506E072
:100C0000642904DD1448642105F0F4FE64250C4BCE
:100C100053F824309D6070BD002905DC0E48012189
:100C200005F0E8FE012506E0642904DD0A48642198
:100C300005F0E0FE6425024B53F82430DD6070BD02
:100C40004CCDFF1FC0C9FF1FA4BCFF1FB8D4FF1F9E
:100C50008ADDFF1F8CADFF1F6CCAFF1F90ADFF1F09
:100C6000C0DDFF1FBCD8FF1FF0B583B007460D489D
:100C700007F07EFF0B4C05260F25204631462A46FD
:100C80003B4607F0D5FD192200922046002178232B
:100C900007F030FE204607F071FF0028EDD103B0C9
:100CA000F0BD00BFF8DCFF1F30B585B0024602A8DA
:100CB0000D490DF05DFA0D4807F05AFF0B4C052564
:100CC000204629460F2202AB07F0B2FD19220092FE
:100CD00020460021782307F00DFE204607F04EFF46
:100CE0000028EDD105B030BD0C150100F8DCFF1F68
:100CF0002DE9F0410020422108F030FC01200D21B7
:100D000008F02CFC02202A2108F028FC0320802176
:100D100008F024FC0424DFF85880134F4FF4FA76CF
:100D200008EB040333F8045C3846FFF79DFF3046B8
:100D300008F004FF28B2FFF7B7FF304608F0FEFEC8
:100D40002046290A08F00AFC601CE9B208F006FCFB
:100D500002340C2CE4D10548FFF786FF4FF4FA70FB
:100D600008F0ECFEBDE8F081101501001C15010033
:100D700034EBFF1F10B4104B1A88104B53F822307D
:100D80005A88D88D0E490B46B72403F8024B02EB64
:100D9000C01202EB420002EB80020A4802441468CF
:100DA0005068C1F802405860127A1A720122064B4C
:100DB0001A705DF8044B70478EDDFF1F4CCDFF1F8E
:100DC00090ADFF1FC0DDFF1FC0C9FF1F70B582B00F
:100DD000104C2046104907F07FFD2046012107F006
:100DE000F3FE204607F0C4FE19250C4E0095204660
:100DF00005212A46782307F07DFD204605212D2276
:100E0000334607F015FD204607F0B8FE0028EDD167
:100E100002B070BDF8DCFF1F141B01002415010097
:100E200070B58AB02F4D304C02A8294622880DF0AB
:100E30009FF904A8294662880DF09AF906A8294668
:100E4000A2880DF095F908A82946E2880DF090F9DE
:100E5000264807F08DFE254C254E264D20460021C4
:100E60000822334607F0E4FC0D22009220460021C0
:100E7000782307F03FFD2046052119222B4607F075
:100E8000D7FC20465021192202AB07F0D1FC2046A6
:100E900005212322184B07F0CBFC204650212322AA
:100EA00004AB07F0C5FC204605212D22134B07F0AB
:100EB000BFFC204650212D2206AB07F0B9FC20468E
:100EC000052137220E4B07F0B3FC20465021372274
:100ED00008AB07F0ADFC204607F050FE0028BDD15E
:100EE0000AB070BD0C15010034EBFF1FF8DCFF1FCA
:100EF000341501004C150100541501005C1501006A
:100F0000641501002DE9F84F2948FFF7ADFE4FF4B5
:100F1000FA7008F013FEDFF8AC904FF000084FF0C5
:100F2000000BDFF8A4A01DE0384608F01FFA0BF014
:100F300041FE014628460BF089FD0546304608F083
:100F4000FDFD013CA4B2002CEED1284651460BF029
:100F500039FF0CF06FF829F8020F08F10108B8F119
:100F6000040F06D0C8245D46124B18F80370032600
:100F7000DAE7FFF755FF4FF4FA7008F0DFFD0024C1
:100F8000152506E0284608F087FD10B9FFF7B0FEEA
:100F900004E0204608F080FD0028F3D1064B1A68D3
:100FA000064B1A600122064B1A70BDE8F88F00BF8D
:100FB0006C1501000815010048F1FF1FBCC9FF1F97
:100FC000C0C9FF1F32EBFF1F000048432DE9F84F57
:100FD0000446858DB0F804A0B0F82E900788B0F9CB
:100FE00010208368134423EAE373632BA8BF6323B1
:100FF0004361C26902FB03FB05EB47081FFA88F84F
:101000004FEA890608EB06021B4B53F822001B49E6
:10101000012201F069FCB9F1000F0FD06388803321
:1010200003EB430203EB8203154A52F828001549EB
:1010300019442BF0FF0202F001FC06E0124B53F8BA
:1010400028004FEA6B2101F0EFFE85F0010505F065
:10105000010505EB47073E44074B53F826000B49B3
:10106000002201F041FCA585BAF1010F14BF032352
:101070000223A380BDE8F88FA4ADFF1F5D74D105E6
:101080007CADFF1FB8BCFF1FD4ADFF1FB6B81D005D
:1010900008B5134B1B889BB273B1124B1868838839
:1010A0000BB1FFF793FF00230F4A13800C4A138004
:1010B0000E4B1A680E4B1A600E4B1B889BB273B115
:1010C000084B586883880BB1FFF780FF00230A4A5A
:1010D0001380084A1380054B1A68084B1A6008BD34
:1010E00020ECFF1F4CCDFF1F2CEBFF1F48F1FF1F13
:1010F000ECC9FF1F8CDDFF1F88DDFF1F90DDFF1F88
:1011000070B588B00022A14B1A70A14B19888CB21F
:1011100022B2A04B53F822301A899E89DB8D0BB185
:101120008C1CA4B29C4D02A8294612B20DF020F8E6
:1011300004A8294632B20DF01BF824B2974B53F89D
:10114000242006AB1068516803C3FFF7A1FF904B42
:101150001A88934B33F81230012B5FD01BB1022B4E
:1011600000F0B7800FE18F4807F002FD8D4C8E4EE6
:101170008E4DFFF78DFF10220092204600210422A1
:10118000812307F0ABFEFFF783FF204607F03AFD0F
:10119000FFF77EFF204605210F2206AB07F048FB34
:1011A000FFF776FF204641210F22334607F040FB30
:1011B000FFF76EFF204607F015FDFFF769FF1922C4
:1011C000009220460021812307F094FBFFF760FF87
:1011D000204605212D222B4607F02AFBFFF758FF5A
:1011E000204664212D2202AB07F022FBFFF750FFBF
:1011F000204605213C226E4B07F01AFBFFF748FF03
:10120000204664213C2204AB07F012FBFFF740FFAD
:10121000204607F0B3FC0028ABD1B4E0614807F0EA
:10122000A7FC604C604E614DFFF732FF2046052160
:101230000F2206AB07F0FCFAFFF72AFF20464121F8
:101240000F22334607F0F4FAFFF722FF192200922B
:1012500020460021812307F04DFBFFF719FF1022E4
:101260000092204600212222812307F037FEFFF75B
:101270000FFF204607F0C6FCFFF70AFF20460521B6
:101280002D222B4607F0D4FAFFF702FF20466421F7
:101290002D2202AB07F0CCFAFFF7FAFE204607F04A
:1012A000A1FCFFF7F5FE204605213C22404B07F04C
:1012B000BFFAFFF7EDFE204664213C2204AB07F0A5
:1012C000B7FAFFF7E5FE204607F058FC0028ABD13F
:1012D00059E0344807F04CFC324C334E334DFFF7A5
:1012E000D7FE204605210F2206AB07F0A1FAFFF733
:1012F000CFFE204641210F22334607F099FAFFF72F
:10130000C7FE1922009220460021812307F0F2FA3D
:10131000FFF7BEFE204605212D222B4607F088FA56
:10132000FFF7B6FE204664212D2202AB07F080FABB
:10133000FFF7AEFE102200922046002132228123C8
:1013400007F0CCFDFFF7A4FE204607F05BFCFFF79B
:101350009FFE204605213C22154B07F069FAFFF756
:1013600097FE204664213C2204AB07F061FAFFF7A8
:101370008FFE204607F036FCFFF78AFE204607F076
:10138000FDFB0028ABD108B070BD00BFC0C9FF1F76
:101390008EDDFF1F4CCDFF1F0C150100C4ADFF1FDC
:1013A000A4BCFF1FF8DCFF1F90ADFF1F7C150100E0
:1013B0008815010038B5134A137883F0010303F050
:1013C00001031370A3B1104B1C88FFF751F90546B8
:1013D0001CB12046FFF700FB03E0FFF759F90A4B69
:1013E000188055B1094B18782946FFF7A7FB04E090
:1013F000074B1B780BB1FFF783FE0022054B1A70D9
:1014000038BD00BFC0EAFF1FB8C9FF1F8EDDFF1F38
:10141000C0C9FF1FBAC9FF1F08B5114B1968114B8E
:101420001B68114A1268891A9A6A914217D99A8DD3
:1014300082F0010202F00102DB8D02EB83020B4B12
:1014400053F822000A49002201F04EFA044B1A68B0
:10145000084B1A600123084A1380084A138008BD0C
:1014600048F1FF1F4CCDFF1FECC9FF1FA4ADFF1FAC
:10147000B6B81D0054CDFF1F2CEBFF1F58CDFF1F2A
:1014800008B5124B1968124B5B68124A1268891A28
:101490009A6A914219D9DA8D9B8D03F00103002BD2
:1014A00014BF0223032303EB82020B4B53F82200E9
:1014B0000A49002201F018FA044B1A68084B1A6016
:1014C0000123084A1380084A138008BD48F1FF1F12
:1014D0004CCDFF1F90DDFF1FA4ADFF1FB6B81D0050
:1014E000BCDDFF1F88DDFF1F70EBFF1F70B5154BC4
:1014F00053F82040B4F91250E3681D4425EAE5751D
:10150000632DA8BF6325A369AB4219D0A5616069AB
:10151000C0F16400236A03FB00F00BF04BFB0A49A7
:101520000BF09CFB064628460BF044FB0146304678
:101530000BF094FB0BF058FD0128B8BF0120A0620E
:1015400070BD00BF4CCDFF1F0AD7233C38B51E4BE2
:101550001C78022C2DD80134E4B21C4B33F8145003
:101560001B4B185D07F002FF281AC31001339BB212
:10157000032C18D8DFE804F002060A11154A126895
:10158000138210E0134A526813820CE0114A126869
:1015900053820020FFF7AAFF05E00E4A52685382EB
:1015A0000120FFF7A3FF084B1C8000220A4B1A7092
:1015B00038BD064B1C88102007F0D8FE201AC31037
:1015C00001339BB20024D9E722ECFF1F34EBFF1F4D
:1015D000081501004CCDFF1FACECFF1F08B5164BE2
:1015E0001B68DA8D32BB154A1168154A12688A1ACF
:1015F000322A1FD99A88022A0ED19A8D82F00102CE
:1016000002F001020F4B53F8220001F045FD0A4B96
:101610001B6801229A800AE0084A11680A4A126887
:10162000891A9A6A6432914284BF01229A80002208
:10163000064B1A8008BD00BF4CCDFF1F48F1FF1FAD
:1016400054CDFF1FD4ADFF1FECC9FF1F58CDFF1FA6
:1016500008B5174B5B68DA8D42BB164A1168164A0B
:1016600012688A1A322A21D99A88022A10D19B8DAF
:1016700003F00103002B14BF022203220F4B53F887
:10168000220001F009FD0A4B5B6801229A800AE002
:10169000084A11680A4A1268891A9A6A64329142A1
:1016A00084BF01229A800022064B1A8008BD00BF29
:1016B0004CCDFF1F48F1FF1FBCDDFF1FD4ADFF1F46
:1016C00090DDFF1F70EBFF1F2DE9F04704461D4B17
:1016D0001A681D4B1B68D31AB3F5967F30D903885F
:1016E000C58DED01ADB24688EDB906EB460906EBB6
:1016F0008909164A91445B001FFA83F8144F57F882
:10170000280001F0CFFB08F1010A57F82A0001F088
:10171000C9FB57F82800494601F0EEFB57F82A00AC
:10172000494601F0E9FB35440A4B53F82530E361A3
:10173000094B53F8253023620023A3850123A3809E
:10174000BDE8F08748F1FF1F30EBFF1FB8BCFF1F5B
:10175000D4ADFF1FF8D8FF1FBCD4FF1F08B5FFF79B
:1017600097FC1E4B1B880BB9FFF756FEFFF790FC4A
:101770001B4B1B880BB9FFF783FEFFF789FC194B46
:101780001B7813F0FF0F01D0FFF714FEFFF780FC6A
:10179000154B1B7813F0FF0F01D0FFF7D7FEFFF7B3
:1017A00077FC124B1B880BB1FFF718FFFFF770FC9B
:1017B0000F4B1B880BB1FFF74BFFFFF769FC0D4B7D
:1017C000186883880BB9FFF77FFFFFF761FC094BAF
:1017D000586883880BB9FFF777FF08BD2CEBFF1F14
:1017E00088DDFF1FBAC9FF1FACECFF1F58CDFF1FDC
:1017F00070EBFF1F4CCDFF1F08B5FFF7AFFFFCE7F5
:101800002DE9F0078146002214461D49134664263F
:10181000DFF874801B4DDFF874C057583C80575870
:10182000A7F802905758BB8052F801A0CAF80830B8
:10183000CAF80C60CAF81430CAF81830AAF8103088
:10184000AAF8123058F82070CAF81C7055F82070A9
:10185000CAF8207055F8207006FB07F7CAF8287000
:10186000DCF80070CAF82470AAF82C30AAF82E30E0
:1018700001340432022CD0D1BDE8F007704700BF1C
:101880004CCDFF1FBCD4FF1FF8D8FF1FA0ADFF1F1A
:1018900008B5062006F034F908BD00BF2DE9F04177
:1018A000C0B080460D46002103F086FB0023AB60EC
:1018B000404603F095FB064630B3802E34BF3446D5
:1018C000802440466946A2B203F06EFBAB686A68AA
:1018D000E118914203D993420BD2D71A00E0274670
:1018E0002868184420A93A4605F080F9AA683A44C5
:1018F000AA60684620A922460CF060F908B10020D1
:1019000005E0361BD9D101E0012000E0012040B004
:10191000BDE8F0812DE9F04395B000263D4B1E80D7
:10192000DFF808913C4FDFF80881B4B204A84021E9
:101930006A4606F02DFC002865D004F1800505EB11
:10194000450E05EB8E0E09EB0E0404AB07CB49F8F0
:101950000E006160A2601B782373384604A901F071
:1019600039FF00980BF022F941460BF077F90BF0A4
:1019700061FB2A4B43F82500384601F097FF0090A1
:101980000BF014F941460BF069F90BF053FB244BB3
:1019900043F82500384601F001FF9DF810208DF82E
:1019A00004202E2A18BF002314D106E004AA9A5C52
:1019B00001A95A542E2A0DD100E0002314AA134481
:1019C000202203F84C2C03F84B2C03F84A2C03F884
:1019D000492C0AE0A2F14104E4B2192C02D82032C9
:1019E00001A95A540133092BE0D10E4C05EB4503F4
:1019F00005EB8305621901AB03CB605151601B7885
:101A00001372013691E7084B1C80204615B0BDE8E3
:101A1000F08300BFB2EFFF1F3CEBFF1FF8D8FF1FA2
:101A2000BCD4FF1FC0DDFF1F8ADDFF1FB8BCFF1F36
:101A30000AD7233C03782E2B0CD06BB10246012031
:101A400012F8013F2E2B08D03BB1013080B208289C
:101A5000F6D1704700207047002070472DE9F04F05
:101A6000D7B005229B4B5A804FF4FA7008F066F805
:101A7000994B1B88B3B19948FFF7F6F84FF47A7089
:101A800008F05CF89648FFF7EFF806A89549964AE3
:101A9000012303F087FB00230193DFF890A2DFF816
:101AA00090B208E09148FFF7DFF84FF47A7008F041
:101AB00045F8002469E10EA806A9012203F002FC02
:101AC0000EA803F0B3FA88B9019B3BB98848FFF729
:101AD000CBF84FF4FA6008F031F846E18548FFF79B
:101AE000C3F84FF4FA7008F029F83EE10EA803F0AD
:101AF0004FFA0546FFF79EFF044602382844514638
:101B00000CF0D6FB18B90EA803F084FA39E12B7853
:101B10005F2B03D10EA803F07DFA32E12C4420465E
:101B200075490CF0C5FB18B90EA803F073FA28E14B
:101B3000204672490CF0BCFB002840F012810EA830
:101B400003F04EFA8146284606F0CEF9002863D00D
:101B50006B4C23685B6820466A49222298472046DE
:101B600009F076F916A8294606F00AF9169B002B0B
:101B70002FD0179C0EA803F033FAA04229D1604C55
:101B800023685B682046604925229847204609F073
:101B90005FF90EA816A9FFF781FE78B123685B688C
:101BA00020465A4918229847204609F051F90EA8B4
:101BB00003F030FA019B01330193E2E0504C2368BB
:101BC0005B682046524915229847204609F040F9A3
:101BD00015E04B4C23685B6820464E491522984718
:101BE000204617990A22002309F042F923685B680E
:101BF0002046494906229847204609F029F9404CD9
:101C000023685B68204645491D229847204609F015
:101C10001FF9284606F0AAF928464946002206F090
:101C2000B1F9002800F0868002A8294606F0A8F83D
:101C3000049C3B48FFF718F84FF4FA7007F07EFF5A
:101C40002846FFF711F84FF4FA7007F077FF029B70
:101C500000936BB3B9F1000F23D00026DFF8A0800A
:101C60000EA816A94FF4807203F09EF90546039F53
:101C70000319BB4203D9A74209D93F1B00E007461D
:101C80000098204416A93A4605F0A8FA3C442E4490
:101C9000D8F800305B684046594601229847B14564
:101CA000DED8019B01330193154809F0D1F852E0C9
:101CB000134C23685B6820461A4925229847204622
:101CC00009F0C6F81848FEF7CFFF4FF47A7007F016
:101CD00035FF40E0A4BCFF1F30CAFF1FAC15010058
:101CE000BC1501003CEDFF1FD4150100D815010003
:101CF000E8150100F81501000C160100141601008A
:101D000088F2FF1F1C160100401601006816010032
:101D1000841601009C160100B4160100BC160100D7
:101D2000DC160100EC160100141701000416010076
:101D3000D0150100174C23685B682046164917220E
:101D40009847204609F084F81448FEF78DFF4FF4B9
:101D50007A7007F0F3FE0EA803F05CF9322007F06A
:101D6000EDFE0EA803F00EF9A5E60EA803F00AF9A1
:101D700006A803F04FF9019B9CB206A803F002F9F4
:101D800003E00EA803F0FEF895E6204657B0BDE844
:101D9000F08F00BF88F2FF1F241701001417010005
:101DA00010B5FFF75BFE0446064B00221A805A80EE
:101DB0004FF4FA6007F0C2FE034B1A68034B1A6037
:101DC000204610BDA4BCFF1F48F1FF1FBCC9FF1F68
:101DD0002DE9F043A5B004A803F0C6F80CA88F497C
:101DE0008F4A012303F0DEF98E4C9DF834302371C5
:101DF0000E9BA3609DF83C30237324AB53F8535DD6
:101E000058689968C4F80D50C4F81100C4F815104A
:101E10001B7B6376139BE3610CA803F0B3F814A853
:101E20002146012203F04EFA9DF854308DF814300B
:101E3000169B06939DF85C308DF81C3024AB53F84C
:101E4000330D59689A68CDF81D00CDF82110CDF8F2
:101E500025201B7B8DF829301B9B0B9314A803F0C6
:101E600091F8714D714F724EB3E0012007F066FE9C
:101E70008AE023785F2B03D1012007F05FFE83E027
:101E800004EB08006B490CF013FA00287CD16A4976
:101E90002B8803EB430203EB82028B18D4F800C0BB
:101EA000D4F804E0A06841F802C0C3F804E09860E8
:101EB000227B1A73DFF890814046214601F092F8A8
:101EC000052007F03BFE404601F04AFBB5F80090C4
:101ED0000AF06CFE39460AF0C1FE0BF0ABF80AF0CE
:101EE00065FE31460AF0BAFE0BF0A4F8534B43F8F6
:101EF0002900404601F028FBB5F800900AF056FE94
:101F000031460AF0ABFE0BF095F84D4B43F8290033
:101F1000404601F03BF823788DF804302E2B18BF93
:101F2000002214D106E014F8013F01A953542E2BCE
:101F30000DD100E0002224AB1A44202302F88C3C8F
:101F400002F88B3C02F88A3C02F8893C0AE0A3F1D3
:101F50004100C0B2192802D8203301A953540132DC
:101F6000092AE0D12A88DFF8E4C002EB420E02EB36
:101F70008E0E0CEB0E0401AB03CB4CF80E0061602F
:101F80001B78237201322A8004A803F043F81CA8AE
:101F90002449012203F096F99DF874308DF814302D
:101FA0001E9B06939DF87C308DF81C3024AB53F8B3
:101FB000130D59689A68CDF81D00CDF82110CDF8A1
:101FC00025201B7B8DF82930239B0B931CA802F046
:101FD000D9FF04A803F02AF890B12B887F2B0FD8E3
:101FE00004A802F0D5FF0446FFF724FD804602381E
:101FF000204414490CF05CF900287FF43AAF34E730
:10200000084C204603F0BCF9204603F003F804A86E
:1020100002F0B8FF25B0BDE8F08300BF3CEDFF1F24
:10202000D415010048BCFF1FB8D4FF1F6666663F89
:102030000AD7233C0C160100B8BCFF1FF8D8FF1FBD
:10204000BCD4FF1F3C17010090CAFF1FC0DDFF1F5B
:1020500038B5322007F072FD002007F001F90A20A0
:1020600007F02AF9202007F053F90520022107F094
:1020700021FD0820022107F01DFD1520022107F097
:1020800019FD0D20022107F015FD0020022107F0A7
:1020900011FD0620012107F00DFD1022AB4B1A6047
:1020A000AB48232108F0DCFBAA4B1A7842F005026A
:1020B0001A70A948A949AA4A06F046FDFEF786FE0D
:1020C0004FF47A7007F03AFDA6480A2102F0B8FFF3
:1020D00048B9A54D4FF47A742846FEF7C5FD204651
:1020E00007F02CFDF8E7A14A00239361D361136246
:1020F00053629F4A9361D36113625362FFF7C8FB37
:102100009C4B1880152007F0C7FC28B9994B1B88F9
:10211000002B40F00B8106E0964B1B881BB1FFF7AC
:10212000F9FB944B1880FFF753FE9348934943F60D
:10213000972208F047FE92489249934A08F042FEDF
:1021400030200BF08FFA914C206030200BF08AFA8F
:1021500060600020FFF754FB05208D49022207F044
:1021600007FC08208B49022207F002FC8A4C012060
:102170002146042207F0FCFB02202146042207F03E
:10218000F7FB002007F088FC08B9FEF7BBFEFEF75E
:102190003BFA10B1FEF756FA01E0FEF72BFA7B4B43
:1021A0001B685C6A20467D490AF014FF002840F055
:1021B000F780204600210AF0EFFE002840F0BB80A7
:1021C00020464FF08F410AF049FD0AF00DFF674BA2
:1021D0009861204671490AF0FDFE002840F0EE802B
:1021E000204600210AF0D8FE002840F0DD8020467D
:1021F0004FF08F410AF032FD0AF0F6FE5B4BD861DA
:10220000204666490AF0E6FE002840F0E6802046B7
:1022100000210AF0C1FE002840F0D48020464FF093
:102220008F410AF01BFD0AF0DFFE504B186220467A
:102230005A490AF0CFFE30B9204600210AF0ACFE20
:1022400020B1002402E0554C00E0544C20464FF0F1
:102250008F410AF003FD0AF0C7FE444B58624B4B16
:102260005B685C6A20464D490AF0B4FE002840F0E5
:10227000B980204600210AF08FFE002840F0B68089
:1022800020464FF08F410AF0E9FC0AF0ADFE384BD2
:102290009861204641490AF09DFE002840F0B78031
:1022A000204600210AF078FE002840F0A780204652
:1022B0004FF08F410AF0D2FC0AF096FE2C4BD86109
:1022C000204636490AF086FE002840F0AF802046BE
:1022D00000210AF061FE002840F09D8020464FF06A
:1022E0008F410AF0BBFC0AF07FFE214B18622046AA
:1022F0002A490AF06FFE30B9204600210AF04CFE50
:1023000020B1002402E0254C00E0244C20464FF090
:102310008F410AF0A3FC0AF067FE154B58624FF498
:102320007A7007F00BFCFEF725FD38BDFFF738FD8E
:10233000104B1880F0E600220C4B9A61204617499A
:102340000AF048FE002876D12EE000BFC4F00F400E
:102350000082FF1F6AF2FF1FF8DCFF1FC8B2FF1FD9
:10236000818200003CEDFF1F4417010034CAFF1FAB
:1023700014CDFF1F30CAFF1F68BCFF1F710400008F
:1023800074DDFF1F650400005FE316004CCDFF1FE6
:1023900061ADFF1F6DADFF1F7D04000000FEFF4615
:1023A0002E4A2F4B9A6109E000222D4BDA6120461C
:1023B0002C490AF00FFE002841D103E0274A284BA0
:1023C000DA610AE00022264B1A62204625490AF00B
:1023D00001FE00287FF439AF33E7204A204B1A6210
:1023E000204C33E71D4A204B9A6110E000221E4B1F
:1023F0009A6120461B490AF0EDFD28BB00221A4BCA
:10240000DA61204617490AF0E5FD08BB03E0134AEC
:10241000154BDA610AE00022134B1A62204611497B
:102420000AF0D8FD00283FF46CAF6EE70B4A0E4B64
:102430001A620C4C6AE7094A094BDA61CDE7074A90
:10244000074B1A62074C01E7044A074BDA61EDE7D4
:10245000024A054B1A62034C58E700BF0000FF7F99
:1024600034CAFF1F00FEFF4614CDFF1F2DE9F84FB1
:1024700007F026F8B24C204602F076FDDFF86883BC
:102480002046B04942460BF0B5F8AF4C2046FEF767
:1024900063F8AE4D2046294642460BF0ABF8AC48F7
:1024A000FEF75AF8AA48294642460BF0A3F8A94875
:1024B000FEF752F8A748294642460BF09BF8A6487B
:1024C000FEF74AF8A448294642460BF093F8A34881
:1024D000FEF76AF8A248FEF767F8A248FEF764F82C
:1024E000A148FEF761F8DFF804934846012109F19D
:1024F0002402FDF7DDFF9D4EC9F800604FF0FF3567
:10250000C9F818509A48012100F12402FDF7D0FFC4
:10251000974B1E609D619748012100F12402FDF751
:10252000C7FF944B1E609D619348012100F1240276
:10253000FDF7BEFF904B1E609D61DFF8B4A25046D0
:1025400001210AF12402FDF7B3FFCAF80060CAF8BE
:102550001850DFF8A0B2584601210BF12402FDF714
:10256000A7FFCBF80060CBF818508448012100F198
:102570002402FDF79DFF814B1E609D618048012173
:1025800000F12402FDF794FF7D4B1E609D617D4F9D
:102590003846FDF7B1FF7C4E3046FDF7ADFF7B4D71
:1025A0002846022105F11802FDF782FF784B2B60C7
:1025B000284600F08DFB77480460C0F804900024A2
:1025C00004724472C46008F03DFA7348604B0360C3
:1025D000674B436004724472C46008F033FA6F487A
:1025E0005C4B0360634B436004724472C46008F048
:1025F00029FA6B48584B03605F4B43600472447286
:10260000C46008F01FFA6748544B0360C0F804A088
:1026100004724472C46008F015FA6348504B0360BA
:10262000C0F804B004724472C46008F00BFA5F484A
:102630004C4B0360514B436004724472C46008F019
:1026400001FA5B48484B03604D4B4360047244728F
:10265000C46008F0F7F95748C0F80090476004726A
:102660004472C46008F0EEF95348414B0360476080
:1026700004724FF0010980F80990C46008F0E2F993
:102680004E48C0F800A0476004724FF0020A80F87C
:1026900009A0C46008F0D6F94948C0F800B0476006
:1026A00004724FF0030B80F809B0C46008F0CAF957
:1026B0004448304B0360466004724472C46008F0C2
:1026C000C1F941482C4B03604660047280F80990C0
:1026D000C46008F0B7F93D48284B036046600472B7
:1026E00080F809A0C46008F0ADF93948244B0360B4
:1026F0004660047280F809B0C46008F0A3F9354858
:102700000760456004724472C46008F09BF9324867
:1027100006604560047280F80990C46008F092F980
:102720002E484946524604F001F92D48047080268F
:1027300046732C4D294642460AF05CFF5CE000BF20
:1027400048BCFF1F854F000090CAFF1F8D0400008A
:102750005CCDFF1FD0CFFF1F44D2FF1F3CEBFF1FFC
:1027600074EBFF1FA8EBFF1FDCEBFF1F081A010033
:1027700024ECFF1F4CECFF1F74ECFF1FC4C9FF1FAC
:1027800094DDFF1F34CAFF1F14CDFF1FE4EAFF1FB3
:10279000281A0100F0C9FF1F00CAFF1F10CAFF1F3F
:1027A00020CAFF1F10ECFF1F54DDFF1FA8BCFF1F36
:1027B00044DDFF1FE8D8FF1FC4EAFF1FD4EAFF1F54
:1027C00080CAFF1F64DDFF1F04CDFF1F9CECFF1FAD
:1027D00018BCFF1F38BCFF1F28BCFF1F6CCAFF1F9F
:1027E00074DDFF1FA504000078ADFF1FC0D8FF1FD8
:1027F0007CBCFF1F04EBFF1F04480470467329468E
:1028000042460AF0F7FEBDE8F88F00BF68BCFF1F24
:102810002DE9F04F83B0019084693CB9002108F0A4
:10282000E1F800285AD008F0A7F857E0B4F1FF3FCC
:102830000FD10198002108F0D5F8044600284DD0AA
:1028400001982146002208F0B7F8204608F094F8D5
:1028500044E00198002108F0D1F8804600283DD0DE
:10286000019BD3F81CC093F8209000231D4F9B467A
:102870004FF0FF3A4E46200EC4F30F2108EB03023F
:10288000B2F90450C1F5803E37F91090013037F9A4
:10289000100001FB00F109FB0E11091401FB05F109
:1028A000C913918026B1E243944506D2644407E0FF
:1028B000A44504D2CCEB040402E0544600E05C469C
:1028C0000233B3F5807FD6D1019B9C611846414607
:1028D000002208F071F8404608F04EF803B0BDE859
:1028E000F08F00BFF817010072B6836913B9012396
:1028F000836105E0B3F1FF3F04BF6FF00103836123
:10290000C16180F8202062B6704700BF10B5044650
:1029100008F062F9204610BD08B503480349044A8F
:102920000AF068FE08BD00BFB0ECFF1F0D290000D3
:1029300078ADFF1F08B503480349044A0AF05AFE60
:1029400008BD00BFB8ECFF1F0D29000078ADFF1FC8
:1029500010B400F58074036831FB03F231FB13F30C
:1029600002F30F0203F30F03C2EA034340F8043BF0
:102970008442F0D15DF8044B704700BF70B400F59D
:102980008076B2F5803F11D10023C258CC5892FA1C
:1029900014F2C250C2185468CD186D6894FA15F438
:1029A00054600833B3F5807FEFD112E051F8043B57
:1029B00032FB03F532FB13F305F30F0503F30F03AB
:1029C000C5EA0343046893FA14F440F8044B8642C2
:1029D000ECD170BC704700BF2DE9F0418046054640
:1029E000002426466EB94046214608F007F8064600
:1029F000A8B1A969B1F5803F11D00430FFF7A8FF55
:102A00000DE04046214607F0EDFF074638B1301D86
:102A1000391DAA69FFF7B2FF384607F0ADFF013450
:102A20000435042CDED13EB140463146002207F089
:102A3000C3FF304607F0A0FFBDE8F08108B50348AA
:102A40000349044A0AF0D6FD08BD00BFC0ECFF1FD1
:102A50000D29000078ADFF1F70B5344B1A6812685D
:102A60001979334B1970334B9A420CD2324B1B7885
:102A70006BB14FF08042314B1A60314D05F58074D7
:102A800005F5007508E02E4C04F5807504E02C4D2A
:102A900005F5807405F500752A4B1868D8B12A4BE6
:102AA000198800EB4103043333F8022B24F8042B7C
:102AB000A542F9D840317F2902D8234B19800FE075
:102AC0000026214B1E8007F057FF204B1A681D4936
:102AD0000A601E6004E0002324F8043BA542FBD8F2
:102AE000FE3C1B4B1868D8B11A4B198800EB410308
:102AF000043333F8022B24F8042BA542F9D84031D3
:102B00007F2902D8134B198070BD0024114B1C8003
:102B100007F032FF104B1A680D490A601C6070BD47
:102B2000002324F8043BA542FBD870BDCCECFF1F6A
:102B30001F8000408CA6FF1FE4ECFF1F08E200E0AE
:102B40008CA5FF1FDCECFF1FC8ECFF1FE8ECFF1F8C
:102B5000D4ECFF1FD8ECFF1FE0ECFF1F10B50446BC
:102B6000002107F03FFF0146E0B172B61E4B1B6823
:102B700033B91D4B186000221C4B1A8062B611E05D
:102B80001B4A12681AB91A4B186062B60AE0164856
:102B90000260174A11600021144A118062B618467B
:102BA00007F0EAFE2046012107F01CFF0246D0B1E3
:102BB00072B6104B186828B91A6000220E4B1A80A2
:102BC00062B610BD0D4B1B681BB90C4B1A6062B688
:102BD00010BD08490B60094B1A600022064B1A8091
:102BE00062B607F0C9FE10BDDCECFF1FC8ECFF1F8A
:102BF000E8ECFF1FD4ECFF1FD8ECFF1FE0ECFF1F39
:102C000030B4254B1A6842F400421A60234A116816
:102C100041F0020111601A6842F002021A60204B72
:102C20001B68002B36DB1F4B1B68002B32DB4FF081
:102C300086421D4B1A6047F2540204331A60002486
:102C4000A43B1C6001205C3B1860184A04331A60E6
:102C50004FF4803104331960154A04331A60154B60
:102C6000154D2B60CC352C60144C2060144C15484D
:102C700004600430016014490A60144A13604FF480
:102C8000C06302F5DF3202F5BA72136004321360DA
:102C90000C32136030BC70473C80044040800440DC
:102CA00000F0024080F0024000F102400300000703
:102CB0001B0F0100000F0F0F14F0024084F00240C0
:102CC0000300004788F0024090F0024094F0024078
:102CD00038B5314D2846012107F020FF00242F4B45
:102CE0001C602F4B1C60FFF78BFF4FF4C0622D4B15
:102CF0001A602B681A682C4A1A602B6802221A7113
:102D00005C7101219971D9711A725C729C72DC72CA
:102D10001C736FF001025A734FF0FF329A73DA732B
:102D20001A69224A1A611C755C75DA8A4FF480723E
:102D3000DA821C765C769C76DC76D98BDA839A8B89
:102D400006229A832B7903F1804303F504331C7028
:102D50008F221A7007F08EFE154B18702A79154BCA
:102D60001A70154A136843F0124343F001031360CD
:102D70002A7902F110011148114B43F82100531137
:102D80009B0003F1604303F5614302F01F02012140
:102D900001FA02F21A6038BDCCECFF1FDCECFF1F19
:102DA000D4ECFF1F04B004408CA5FF1F20F00240AC
:102DB000E4ECFF1F1B80004000F00240592A000095
:102DC00000A8FF1F08B503480349044A0AF012FC93
:102DD00008BD00BFCCECFF1F0D29000078ADFF1F20
:102DE00008B503480349044A0AF004FC08BD00BFC3
:102DF000ECECFF1F0D29000078ADFF1F10B5044655
:102E00000C2380F86B3280F86C3200230365C06DB0
:102E100018B107F0B1FD0023E365206E18B107F08B
:102E2000ABFD0023236610BDF8B504460F4600F144
:102E30001805284602F0FAF8064658B9184B1B88C0
:102E400023B1013B9BB2164A138033BB5E2001F0D5
:102E5000E3FF22E072B65E2001F0C4FF104B1A8837
:102E600001321A802846002102F0A6F862B6013726
:102E70007F02C4F870720023A4F86832A4F86632A6
:102E80000C2284F86C221422226584F86A32012311
:102E900084F86E32082384F86B323046F8BD00BFE8
:102EA000F4ECFF1F70B5044600F11805284602F047
:102EB000BDF8F0B172B6E06D0023E365266E2366BF
:102EC0000C2384F86B3262B608B107F055FD16B1D9
:102ED000304607F051FD284602F09CF8054B1B8850
:102EE00023B1013B9BB2034A138013B95E2001F06A
:102EF00093FF70BDF4ECFF1F30B589B004460D465A
:102F0000FFF7D0FF72B65E2001F06CFF1D4B1A88F0
:102F100001321A8068461C492A46012302F042F910
:102F20009DF804302377029B23629DF80C3084F8CF
:102F3000243008AB53F8135D58689968C4F82550DD
:102F4000C4F82900C4F82D101B7B84F83130079B8E
:102F50006363684602F016F862B604F1180002F0E6
:102F600065F8044650B9074B1B8823B1013B9BB25F
:102F7000044A138013B95E2001F04EFF204609B0C9
:102F800030BD00BFF4ECFF1F3CEDFF1F38B5044619
:102F900072B690F86B320C2B1FD0C06D0023E36526
:102FA000256E23660C2384F86B3262B608B107F0F5
:102FB000E3FC15B1284607F0DFFC04F1180002F02D
:102FC00029F8074B1B8823B1013B9BB2044A1380AD
:102FD00023B95E2001F020FF38BD62B638BD00BFC6
:102FE000F4ECFF1F30B589B004460D46FFF7CEFF65
:102FF00072B65E2001F0F6FE254B1A8801321A8067
:10300000684624492A46012302F0CCF89DF8043092
:103010002377029B23629DF80C3084F8243008ABA0
:1030200053F8135D58689968C4F82550C4F829000E
:10303000C4F82D101B7B84F83130079B636368460E
:1030400001F0A0FF62B604F1180001F0EFFF0546A1
:1030500058B90F4B1B8823B1013B9BB20C4A13801C
:1030600093B95E2001F0D8FE0EE00023A4F8683288
:10307000A4F866320C2284F86C221422226584F8AB
:103080006A32082384F86B32284609B030BD00BF8D
:10309000F4ECFF1F3CEDFF1F10B5034672B690F82D
:1030A0006B220C2A1BD0C06D0022DA651C6E1A66DA
:1030B0000C2283F86B2262B608B107F05DFC14B1F4
:1030C000204607F059FC074B1B8823B1013B9BB2FC
:1030D000044A138023B95E2001F09EFE10BD62B643
:1030E00010BD00BFF4ECFF1F836B9AB2012A2AD1F6
:1030F000C26B4AF644418A420AD045F222618A42B2
:1031000009D042F611318A421FD11349042204E04A
:103110001249002201E0124904221B0C012B04D0A9
:10312000022B14D1490842F00102B0F84630082BB6
:1031300004D0102B0DD1490842F00202816580F8BD
:103140006C2201207047002070470020704700204B
:1031500070470020704700BF40EE3517907BCD05CB
:1031600020F79A0B2DE9F84F0446B0F86662064442
:1031700066360D46002900F0C1814FF0080900278E
:10318000DFF890B3DFF890A302E0002D00F0B981E2
:1031900094F86B320C2B00F2A981DFE813F0B50133
:1031A000B501E8003601B501B501B501B5010D0065
:1031B0004F007F00CC00B501236D9D4234BFA8466F
:1031C000984604F1380094F86A3218443146424671
:1031D00005F09EFE94F86A32434484F86A32B4F8EB
:1031E00066324344A4F86632236DC8EB03032365BB
:1031F000002B40F09381A36B534540F07781236C03
:10320000C34A934240F07281636C02F15B4202F563
:10321000F11202F60F42934240F06881A36CA3F1D1
:103220001002082A00F262814644C8EB05052365B6
:1032300084F86A72092384F86B32A6E7236D9D42F5
:1032400034BFA846984604F1380094F86A3218440E
:103250003146424605F05CFE94F86A32434484F8F5
:103260006A32B4F866324344A4F86632236DC8EB80
:1032700003032365002B40F054812046FFF734FF01
:10328000002800F033814644C8EB0505C4F850908F
:1032900084F86A720A2384F86B3276E7236D9D42C4
:1032A00034BFA846984604F1380094F86A321844AE
:1032B0003146424605F02CFE94F86A32434484F8C5
:1032C0006A32B4F866324344A4F86632236DC8EB20
:1032D00003032365002B40F027814644C8EB050516
:1032E000E36B2365A36B5B4521D194F86E3263B128
:1032F00004F11800D4F8701201F05EFE84F86E72CA
:10330000226DD4F87032D31A236584F86D7294F864
:103310006C3284F86B3213F0010F05D007F0D0FA4D
:103320002066002800F00381236D63652DE70B23E1
:1033300084F86B3229E7236DAB4209D95B1B236507
:10334000B4F866321D44A4F866520020BDE8F88F38
:103350001E44ED1AB4F866221344A4F86632C4F889
:10336000509084F86A720A2384F86B320DE7236D5B
:103370009D4228BF1D465B1B2365023616F8021CC2
:1033800016F8010C023DE26DB4F8643003F1010C53
:10339000A4F864C002EB430341EA00229A80B4F827
:1033A00064307F2B24D92046E16D002207F004FB16
:1033B0002046E16D012207F0FFFAE06D07F0DCFA2C
:1033C0000023E365236D1D44256504F16603F71AA8
:1033D000A4F86672206E08B107F0CEFA236D002BB8
:1033E00040F0A8800C2384F86B320120BDE8F88FF0
:1033F0000236002DC2D1236D002B40F09E800C239D
:1034000084F86B320020BDE8F88F236D9D4228BF01
:103410001D465B1B236594F86D3243B1E36DB4F830
:10342000642003EB4202A36B938019E03E4633789D
:103430007278023D0BD1216D002951D043EA02235D
:10344000A363022384F86D320020BDE8F88F0236B2
:10345000E16DB4F8640001EB400143EA02238B8084
:10346000374617F8021B7078023D226EB4F86430BC
:103470005E1CA4F8646002EB430341EA00229A80D8
:10348000B4F864307F2B22D92046E16D002207F08A
:1034900093FAE06D07F070FA0026E6652046216E8B
:1034A000012207F089FA206E07F066FA2666236D7E
:1034B0001D44256504F16603FF1AA4F86672002D09
:1034C0003ED10C2384F86B320120BDE8F88F002D2B
:1034D000ACD1236D23B1002084F86D02BDE8F88FD4
:1034E0000C2384F86B320020BDE8F88F0C2384F89D
:1034F0006C3284F86B320020BDE8F88F0020BDE804
:10350000F88F0020BDE8F88F0020BDE8F88F00BFDD
:103510005741564564617461524946460020BDE8F2
:10352000F88F0020BDE8F88F0020BDE8F88F00205C
:10353000BDE8F88F0120BDE8F88F0020BDE8F88FC6
:103540000120BDE8F88F00BF90F86B32072B05D83B
:10355000836D426DA2FB032318467047002070471D
:1035600090F86B32072B94BF406D0020704700BF6E
:103570002DE9D847044690F86B320C2B00F0A98057
:1035800007F09EF9E065002800F0A38094F86B3204
:10359000072B0BD813F0010F08D007F091F9206624
:1035A00030B9E06D07F0E8F9BDE8D887002323665D
:1035B0000023A4F86430B4F86812B4F86632C91A6B
:1035C000002905DD2046FFF7CDFD002840F0818071
:1035D00094F86B320C2B2CD004F11806304601F015
:1035E00005FD30B304F166084FF400774FF0000991
:1035F000304641463A4601F0D7FC83B2A4F868321F
:10360000BBB1A4F8669294F86BA220461946FFF766
:10361000A9FD20B194F86B320C2B5AD109E094F833
:103620006B320C2B05D0BAF1070F12D9072BDFD95B
:103630000FE0294B1B8823B1013B9BB2264A138024
:1036400013B95E2001F0E8FB0C2384F86C3284F897
:103650006B32E36D1BB3B4F86420DAB113467F2AF2
:1036600007D80021E26D02EB430291800133802BE9
:10367000F8D12046E16D002207F09EF994F86B32F4
:10368000072B07D813F0010F04D12046E16D01226A
:1036900007F092F9E06D07F06FF90023E365236E00
:1036A000BBB1B4F864207AB113467F2A07D8002151
:1036B000226E02EB430291800133802BF8D1204629
:1036C000216E012207F078F9206E07F055F90023EA
:1036D0002366BDE8D88700BFF4ECFF1F70B5054630
:1036E00090F8303013F0FF0F4FD007F0E9F806469E
:1036F00000284AD0296AEB6999421FD201F58072ED
:10370000934232D25C1AA8690844311D224603F064
:103710006DFA2B6A23442B62EB6A2344EB62630845
:103720007F2B1DD904E022F8024F01337F2BFAD9F9
:1037300028463146002207F03FF90DE0134B1B8865
:1037400023B1013B9BB2114A138013B95E2001F0F3
:1037500063FB002385F83030304607F00DF970BD6B
:1037600006EB430202320024DDE7A8690844311D5C
:103770004FF4807203F03AFA2B6A03F580732B62E0
:10378000EB6A03F58073EB62D2E770BDF4ECFF1FC8
:10379000002380F83030C3628362704708B572B688
:1037A00090F8303013F0FF0F0FD0002380F8303046
:1037B00062B6074B1B8823B1013B9BB2044A1380BE
:1037C00023B95E2001F028FB08BD62B608BD00BF2A
:1037D000F4ECFF1F30B585B004460D46FFF7DEFF61
:1037E0005E2001F0FFFA144B1A8801321A806846F5
:1037F000294604F0C5FA6B4607CBA061E16122625D
:103800001B88A384A3696BB90B4B1B882BB1013BAD
:103810009BB2094A1380002063B95E2001F0FCFAD4
:10382000002007E0E369A3620023E362012084F83B
:103830003000FFE705B030BDF4ECFF1F70B584B079
:1038400004460D461646FFF7A9FF5E2001F0CAFAAE
:10385000154B1A8801321A806846294604F090FAFE
:103860006B4607CBA061E16122621B88A384A36938
:103870006BB90D4B1B882BB1013B9BB20A4A1380DD
:10388000002073B95E2001F0C7FA002009E0E36967
:103890009B1BA36226620023E362012084F83000B0
:1038A000FFE704B070BD00BFF4ECFF1F826A024B5B
:1038B000A2FB032318467047C8BDE6020369D3F88C
:1038C0003801D3F83431C01A704700BF704700BFC9
:1038D0000369D3F84422B2F5817F09D8D3F8442292
:1038E000501CC3F84402134483F83C110120704774
:1038F000012303710020704730B40369D3F84442B8
:10390000B4F5817F1ED8D3F84442C4F581740134E4
:10391000D3F844522B4403F59E73944202D2012201
:103920000271224632B18D1811F8014B03F8014B98
:10393000A942F9D10369D3F844121144C3F84412DF
:10394000104602E001230371002030BC704700BF25
:1039500038B50446084B0360036993F84822022AED
:1039600008D1D3F860522DB1284607F035F9284622
:1039700007F056FA204638BD581A010010B400224C
:1039800002714FF47A7484600273064A02604173D4
:103990004FF41A74044A04FB012101615DF8044BE1
:1039A000704700BF581A0100E4ADFF1F70B5044610
:1039B0000D46C3681B7813F0200F40F084808368A5
:1039C00080211970C3681221197090F84932012BB7
:1039D0000AD022B9002380F84832012070BD531E5E
:1039E000DBB2012B71D800E0012225B94FF08071C4
:1039F000374B196005E0012D03D14FF00071344BB6
:103A00001960022A5BD1D4F860624EB9082007F031
:103A100003FA0646002107F081F8C4F860627EB11F
:103A20003379102B0CD1304607F0D6F8304607F02A
:103A3000F7F90023C4F86032012084F8480270BD11
:103A400033689A8B92B2998B42F008029A83D4F829
:103A50006032204A2048002D08BF104619791031E5
:103A60001E4A42F821001A7953119B0003F160436A
:103A700003F5614302F01F02012101FA02F21A600C
:103A8000D4F860321B689A8B92B2998B42F0020292
:103A90009A83D4F86032002D1B7903F1804303F53B
:103AA00004334FF000021A7014BF97219621197049
:103AB00084F85622022384F84832012070BD012088
:103AC00084F8480270BD002070BD012070BD00BFA9
:103AD00000E100E02D4C00003D4C000000A8FF1F5D
:103AE00010B403469848814257D10D2A4DD8DFE8DB
:103AF00002F0070C11161B20252A2F34393E4347AC
:103B000059682C200870012043E05968242008706F
:103B100001203EE0596855200870012039E05968BD
:103B20004F200870012034E05968192008700120E6
:103B30002FE059681320087001202AE059684520B9
:103B40000870012025E059680D200870012020E050
:103B500059680B20087001201BE059680620087086
:103B6000012016E0596805200870012011E059680D
:103B70000220087001200CE059680120087008E05C
:103B8000596800200870012003E05A680020107076
:103B90000D22996904240C70B3E16C48814253D121
:103BA0000C2A49D8DFE802F0070C11161B20252A41
:103BB0002F34393E430059682C20087001203FE023
:103BC00059682420087001203AE059681E200870C6
:103BD000012035E059684F200870012030E0596815
:103BE0001520087001202BE059680F200870012073
:103BF00026E059680E200870012021E059680C2049
:103C0000087001201CE059680A200870012017E0A4
:103C1000596809200870012012E0596804200870D2
:103C200001200DE0596802200870012008E0596861
:103C300000200870012003E05A68002010700C2258
:103C4000996904240C705CE1414881424DD10B2AF2
:103C500043D8DFE802F0060B10151A1F24292E3373
:103C6000383D59682720087001203AE059685A20E9
:103C70000870012035E059681C200870012030E0F0
:103C800059688520087001202BE0596814200870BD
:103C9000012026E0596845200870012021E059687C
:103CA0000D20087001201CE059680B2008700120CD
:103CB00017E0596809200870012012E059680320B4
:103CC000087001200DE0596802200870012008E00A
:103CD000596800200870012003E05A680020107025
:103CE0000B22996904240C700BE11A4881424AD1D5
:103CF000092A40D8DFE802F0050A0F14191E233004
:103D0000353A596895200870012038E059685520E7
:103D10000870012033E059688520087001202EE0EA
:103D2000596815200870012029E05968452008705D
:103D3000012024E059680C20087001201FE0596818
:103D40000A20087001201AE000879303007E5603C2
:103D5000006CDC0200512502596805200870012022
:103D60000DE0596802200870012008E05968002021
:103D70000870012003E05A68002010700922996938
:103D800003240C70BDE06148814237D1072A2DD849
:103D9000DFE802F004090E13181D222759681F20BE
:103DA0000870012026E0596885200870012021E074
:103DB00059681420087001201CE0596845200870DB
:103DC000012017E059680B200870012012E05968A3
:103DD0000520087001200DE05968022008700120BC
:103DE00008E0596800200870012003E05A680020AC
:103DF00010700722996902240C7082E044488142C5
:103E00002CD1052A22D8DFE802F003080D12171C76
:103E100059681D20087001201CE0596814200870A2
:103E2000012017E0596843200870012012E059680A
:103E30000B20087001200DE0596803200870012054
:103E400008E0596800200870012003E05A6800204B
:103E500010700522996901240C7052E02D488142AE
:103E600021D1032A17D8DFE802F002070C115968A4
:103E700014200870012012E059680B2008700120FE
:103E80000DE0596803200870012008E059680020FF
:103E90000870012003E05A6800201070032299691D
:103EA00001240C702DE01C48814215D112B1012A69
:103EB00005D009E059680B200870012008E0596816
:103EC00000200870012003E05A68002010700122D1
:103ED000996900240C7014E0104881420CD122B979
:103EE0005A6800211170012002E05A680020107009
:103EF000996900220A7004E05968002008709969E5
:103F0000087083F84C225DF8044B704700366E0150
:103F10000024F40000127A0000093D0080841E0095
:103F2000F8B504469DF8180000284DD0E5682D78B6
:103F300015F0200F44D147E0012A0ED128B1002B03
:103F40005AD053E0132005F0B5FD012384F84A321E
:103F50003F4B1D60043B1D6060E028B1002B57D033
:103F600050E0102005F0A6FD002384F84A32394BBA
:103F70001D60043B1D6051E0012923D1042A0FD1AB
:103F800028B1002B52D04BE01D2005F093FD0423F7
:103F900084F84A32304B1E6004331E600120F8BDA5
:103FA00028B1002B4ED047E01A2005F083FD0323F3
:103FB00084F84A32294B1D60043B1D600120F8BD86
:103FC0000020F8BD0120F8BD002B40F2032508BFFA
:103FD0004FF4197540F2036640F26467002B08BF86
:103FE0003E4684F84B320029C6D1A5E712200221B3
:103FF00005F060FD0221A5E71220002105F05AFD21
:1040000000219FE71120022105F054FD0221A8E7BD
:104010001120002105F04EFD0021A2E70120F8BD8E
:104020001E20022105F046FD0221ADE71E200021E1
:1040300005F040FD0021A7E71F20022105F03AFD11
:104040000221B1E71F20002105F034FD0021ABE77C
:1040500004A004400CA0044000D004402CB0044054
:10406000F0B583B004469DF820009DF82C600D4605
:1040700029B931490F6847F040070F6006E0012970
:1040800004D12D490F6847F080070F6084F849225A
:10409000002184F84E123AB9636920221A7022680E
:1040A0001170E269117011E0626900283CD132E0C0
:1040B0005B00DBB21370E2694300DBB205E0400055
:1040C000C0B21070E2695B00DBB213700023009392
:1040D000204629469DF824209DF82830FFF720FF30
:1040E00094F84A32022B20460CBF14491449324638
:1040F000FFF7F6FC204629469DF83020FFF756FCD6
:1041000094F849321BB9A36880221A7012E0A368A0
:10411000C0221A700EE02021117022685B00DBB211
:104120001370E2690023D0E72821117022689842B9
:10413000BED8C4E703B0F0BD34800440000E2707AA
:10414000008793032DE9F04F83B082468B4690F8A9
:104150004A32042B4FD8DFE803F03134030609005C
:10416000172616242FE01E261D242CE01F261A24B5
:1041700029E02046494605F06BFC2B46013B7FF4C5
:10418000FDAF2046414605F063FC2B46013B7FF422
:10419000FDAF304605F080FC18B9013F17F0FF076E
:1041A000E7D100218AF84E129AF84A229AF84B3247
:1041B000009150465946FFF7B3FE1CE01226132427
:1041C00001E0112610249AF84B32002B304614BF20
:1041D0000221002105F06EFC2046012105F038FC8B
:1041E0002046012105F066FC0B274FF00009C82589
:1041F0004FF00108CDE703B0BDE8F08F2DE9F8439B
:10420000054688461646994605F076FC0746AB6893
:104210001A7812F0200F0ED0B4221A7032E0EC6837
:10422000247814F0200F06D1002385F84932AB68BA
:10423000B0221A7006E0002EF1D005F05DFCC01B24
:104240008642ECD8AB681B7813F0200F0ED12846BD
:104250004146FFF777FFEB681B7813F0200F05D17D
:10426000002385F84932AB68B0221A70AB681B781E
:1042700003F0200303F0FF0023B9042385F84E3236
:10428000BDE8F88395F84832013BDBB2012B20D81A
:1042900005F0B8F9124B134AB8F1000F18BF1346D6
:1042A0001B78984218DC0F2804DC012089F80000F4
:1042B000BDE8F8830A4B0B4AB8F1000F14BF9046D3
:1042C0009846A0F11003DBB288F800300120BDE869
:1042D000F8830120BDE8F8830120BDE8F88300BF22
:1042E00018E400E019E400E00369490083F83C1198
:1042F00003690122C3F8442200230371026982F892
:104300004E3270472DE9F04383B0054614461F46F0
:1043100000238DF80730D0F84432002B00F0C8801D
:104320000FB9D0F86472EB6812221A7028463A4628
:104330000DF10703FFF762FF002800F0B98095F840
:1043400048321BB19DF80720002A54D005F0D4FB59
:104350008146012385F84E3285F84D4200264FF004
:1043600002082BE02B69AA1992F83C211A70EC681C
:10437000217811F0020FFBD084F80080EB681978E7
:10438000C9B211F0100F09D0072385F84E32AB687F
:1043900080221A70EB6810221A701BE011F0010FD6
:1043A0000BD01EB9052385F84E3202E0062385F8AE
:1043B0004E32AB6880221A700CE00136D5F84432D8
:1043C0009E4207D2002FCDD005F096FBC9EB00002E
:1043D0008742C7D8D5F84432B3428CBF04230023A8
:1043E00085F84E3295F84D32012BAB680CBF802218
:1043F000B0221A705CE05A1ED2B2012A58D80122AB
:1044000085F84E2285F84D420022C5F84022022B45
:1044100014D1D5F84432042B18D80FE013689B68E8
:1044200033B9136800210120187259729972D97238
:10443000136800221A765A769A76DA76AB68F022FA
:104440001A702B6995F83C211A7031E0012385F828
:104450005632D5F8602205F59F70D5F84442033CEA
:1044600011680B68002308601168012008714B7106
:104470001168CB71116808724B728B72CB72116824
:104480006042C8601068C18BA1B2C1831268D08A33
:10449000D182D5F860222969106804690161106829
:1044A0000375437510688371B1F1804FB9D3B5E7D7
:1044B00003B0BDE8F08300BF036993F84E32043BBC
:1044C000042B0CD8DFE803F00910050703000120D6
:1044D000704703207047042070470420704700791C
:1044E000003018BF012070470220704790F84E320C
:1044F00013F0FF0F1BD090F84E32DBB2052B18D013
:1045000090F84E32DBB2062B15D090F84E32DBB26B
:10451000072B12D090F84E32DBB2042B0FD090F85C
:104520004E02C0B2082814BF0020012070470120AD
:10453000704701207047012070470120704701201B
:10454000704700BF70B5044615460AB9D0F86452EA
:1045500005F0D2FA06462046FFF7C8FF00283AD1F8
:10456000002DF8D005F0C8FA801B8542F3D805F07D
:10457000C3FA801B854210D894F84832022B0CD124
:1045800094F8563213F0FF0F07D02046FFF7AEFF26
:104590000028FAD0042384F84E3294F84E32DBB26D
:1045A000012B09D094F84E32DBB2022B04D094F8E0
:1045B0004E32DBB2032B02D1042384F84E32A02307
:1045C000013B7FF4FDAF94F84E3213F0FF0F14BFA0
:1045D0000020012070BD002DDFD0C8E7F8B50746E8
:1045E0000E461546069C084611461A462346FFF716
:1045F00089FE304629462246FFF7A4FF3846FFF7DA
:104600005BFFF8BDD0F83421D0F838319A4208D297
:10461000D0F834315A1CC0F83421184490F83000D6
:1046200070474FF0FF30704708B50069FFF7EAFFA9
:1046300008BD00BFD0F83421D0F838319A423DBFD0
:10464000D0F83431C01890F830004FF0FF30704788
:1046500008B50069FFF7EEFF08BD00BF38B5044696
:10466000C2681578EDB281680B78DBB213F0200FC9
:1046700000F0C38113F0100F00F0058190F856325E
:10468000DBB2022B04D090F85632DBB2032B4CD1B4
:10469000D4F860120B689B8B03F080039BB2002B55
:1046A00000F0808294F85632DBB2022B40F07A821E
:1046B0006EE2137813F0800FFBD00A79B54B1A70B5
:1046C000002384F85632D4F84432013BC4F8403217
:1046D0002369D4F84022224492F83C211A7020E049
:1046E000AD4B1A680B7901219940114219D0AB4AA0
:1046F0001370D4F860321A79A94B1A70002384F829
:10470000563215F0100F0CD0072384F84E32A368F0
:1047100080221A70E36812221A700023C4F8403213
:1047200038BDE36802221A7038BD90F84E32DBB211
:10473000012B56D115F0100F0DD0002380F8563202
:10474000072280F84E2280220A70C268122111705E
:10475000C0F8403238BD15F0010F0FD0002380F8AB
:104760005632D0F840321BB9052380F84E3202E0B1
:10477000062380F84E3280230B702EE0D0F84032B2
:104780000133C0F84032D0F8442293420AD30023C8
:1047900080F84E3290F84D32012B0CBF8023B023AD
:1047A0000B701AE090F85632DBB2012B0ED10223C7
:1047B00080F85632F1230B70D0F860321A79794BB9
:1047C0001A70036990F83D211A7006E00369D0F869
:1047D0004022024492F83C211A70E36802221A70C7
:1047E00038BD90F84E32DBB2022B36D115F0100FE7
:1047F00008D0072380F84E3280230B70C368122242
:104800001A7038BD15F0010F05D0052380F84E321F
:1048100080230B701DE090F85632DBB2012B0CD1D7
:10482000022380F85632E1230B70D0F860321A79F7
:104830005C4B1A7003691B780BE0032380F84E323F
:10484000D0F85032012B0CBFE823E0230B70036932
:104850001B78E36802221A7038BD90F84E32DBB242
:10486000042B0AD190F84D32012B0CBF8023B023CA
:104870000B70C36802221A7038BD80230B70C368A6
:1048800002221A7038BD90F85632DBB2022B04D0E7
:1048900090F85632DBB2032B56D1D4F860321A6846
:1048A000928B02F0800292B2002A00F08C8194F880
:1048B0005622D2B2022A40F086817AE11A79354B2B
:1048C0001A70002384F8563294F84E32DBB2042B6F
:1048D0001CBF002384F84E32A368B0221A70D4F8AB
:1048E0005032013BC4F83831D4F838315A1CC4F87E
:1048F000382122691278234483F8302094F84D320D
:10490000012B1DD12823013B7FF4FDAFA36880223A
:104910001A7015E0204A12681B7901219940114252
:104920000ED01F4A1370D4F860321A791B4B1A70DC
:10493000002384F8563284F84E32A36880221A701D
:10494000E36802221A7038BDD0F838210232D0F85C
:1049500050329A4200F03E8190F84E32DBB2042B86
:1049600004D190F85532002B00F03481D4F838216E
:104970000132D4F850329A4280F03A8194F84E32A3
:10498000DBB2042B40F0298194F85532002B40F023
:104990002F8122E11C8000402C8000401F800040BD
:1049A0001E8000401B800040002384F84E32A36824
:1049B000B0221A70D4F838315A1CC4F83821226950
:1049C0001278234483F8302094F84D32012B06D11D
:1049D0002823013B7FF4FDAFA36880221A7094F86E
:1049E0004E32DBB2042B04D194F85532002B00F088
:1049F0000981E36802221A7038BD15F0100F08D043
:104A00001023137015F0400F06D1C36802221A70EC
:104A100038BD15F0400F60D094F84E32DBB20A2B4F
:104A200004D1D4F85832002B40F0F08015F0040F78
:104A30001ED0092384F84E320023C4F84432A36800
:104A4000D0221A7023691B785B0884F84F32D4F89F
:104A50005C3203B19847D4F844320BB984F83C3146
:104A6000236994F83C211A700123C4F8403230E0E5
:104A7000002384F8543294F84A322BB91220684942
:104A8000032204F075FF16E0012B05D111206449C3
:104A9000032204F06DFF0EE0032B05D11E206149B7
:104AA000032204F065FF06E0042B04D11F205D49BA
:104AB000032204F05DFF0A2384F84E320023C4F879
:104AC0003831A368C0221A7023691B785B0884F808
:104AD0004F32E36802221A7038BD13F0100F20D055
:104AE00015F0010F15D1D0F84022D0F844329A4287
:104AF00008D2D0F840325A1CC0F84022034493F840
:104B00003C2100E0002223691A70A368D0221A70A9
:104B10003AE0C0230B7003691B78002380F84E3203
:104B200032E0002380F8543290F84A322BB9122038
:104B30003B49032204F01CFF16E0012B05D1112094
:104B40003749032204F014FF0EE0032B05D11E2089
:104B50003449032204F00CFF06E0042B04D11F208B
:104B60003049032204F004FF23691B78DAB2D4F839
:104B70003831B3F5817F07D8D4F83831591CC4F8DF
:104B80003811234483F83020E36802221A7038BDBC
:104B90000A79254B1A70A368F0221A70032384F84F
:104BA0005632BEE594F85632DBB2032B7FF498AD53
:104BB0007FE51A791C4B1A70A368E8221A70032348
:104BC00084F85632BCE694F85622D2B2032A7FF417
:104BD000A1AE73E6E8230B70C8E6D4F838315A1C4E
:104BE000C4F8382122691278234483F83020F6E68D
:104BF000002384F8553294F84E32DBB2042B7FF454
:104C0000D3AED4E6012384F85532F2E60023C4F88B
:104C10003431D4F83801D4F85832984706E700BF49
:104C2000F14C0000014D00001F80004008B5024813
:104C30000021FFF713FD08BDE4ADFF1F08B50248D2
:104C40000121FFF70BFD08BD4CB0FF1F10B5044656
:104C5000C3681B7813F0200F24D1002380F84E3254
:104C600090F84A321BB9122004F0CAFE10E0012B62
:104C700003D1112004F0C4FE0AE0032B03D11E204F
:104C800004F0BEFE04E0042B02D11F2004F0B8FEA5
:104C9000D4F8583253B30022C4F83421D4F8380180
:104CA000984710BD90F854320133DBB280F854328B
:104CB000012B03D890F84932012B17D094F84A32CF
:104CC0001BB9122004F09CFE10BD012B03D1112052
:104CD00004F096FE10BD032B03D11E2004F090FEBD
:104CE00010BD042B02D11F2004F08AFE10BD00BFAE
:104CF00008B502480021FFF7A9FF08BDE4ADFF1F7A
:104D000008B502480121FFF7A1FF08BD4CB0FF1F05
:104D100070B50B4E30460021FEF730FE094D0A4CAF
:104D200030462946224608F065FC084E30460121EF
:104D3000FEF724FE30462946224608F05BFC70BD93
:104D40000CEDFF1F5139000078ADFF1FF8ECFF1F7D
:104D5000184B1A6842F480521A60174B174A1A60AF
:104D6000174ADA6002F180421A61164A1A60164B3D
:104D70001B7813F0010F07BF4FF41072134B4FF461
:104D80000072134B1A60104B1B7813F0020F4FF494
:104D900000720CBF0F4B104B1A600B4B1B7813F0BB
:104DA000040F07BF4FF410720C4B4FF400720C4B02
:104DB0001A6070473C80044000C0024001401F0060
:104DC0000110003800001F806AF2FF1F18B0044075
:104DD00008C004401CB004400CC0044014B004409F
:104DE00004C0044030B45E2810D84309084A0121A9
:104DF00001FA03F514782C431470064A00F01F00E2
:104E0000814052F823400C4342F8234030BC7047A5
:104E100038EDFF1F20EDFF1F5E2815D8430900F075
:104E20001F00012202FA00F0084A52F8231021EA7A
:104E3000000042F8230038B9054A012101FA03F3C2
:104E4000117821EA03031370704700BF20EDFF1FA4
:104E500038EDFF1F10B582B002AB03F8011D0268E8
:104E6000546819460122A04702B010BD10B504468F
:104E7000C3691BB901230371002010BD0020187104
:104E8000E06992B201F00AFAE3691B7913B10123D8
:104E90002371002010BD00BF00B583B0C06960B1B0
:104EA0000DF10701012200F067FF01280CBF9DF8FA
:104EB00007004FF6FF7000B201E04FF0FF3003B083
:104EC0005DF804FB30B583B00446C06978B10DF1DC
:104ED0000701012200F050FF01280AD19DF8075078
:104EE000E069C168013901F02DF8284603E000208F
:104EF00001E04FF0FF3003B030BD00BF08B5C0691E
:104F000008B101F057F808BD2DE9F04104460E46FE
:104F10009046002303714FF47A7282600373114B41
:104F20000360242008F09EFBE061B8B135460746D7
:104F300006F1200E3E4628686968AA68EB680FC62D
:104F4000103537467545F5D12868306004F10D00FD
:104F500041460C2209F0BAFA002363762046BDE8E8
:104F6000F08100BF781A0100002202714FF47A71BB
:104F70008160027302490160C2614273704700BFE1
:104F8000781A0100014B0360704700BF781A0100D6
:104F90000D307047C3692BB19879012894BF002068
:104FA000012070470020704708B5C06910B100F0BB
:104FB000E3FE08BD002008BD08B5C06928B100F0B7
:104FC000C1FF003018BF012008BD002008BD00BF90
:104FD000C3690BB1D86870474FF0FF30704700BF0E
:104FE000C3690BB1986970470020704738B5044613
:104FF000C36963B1FFF7F4FF05462046FFF7E8FFFA
:10500000281A47F6FF73984228BF184638BD00207B
:1050100038BD00BF10B50446C06930B100F0F6FFDE
:10502000E06908F027FB0023E36110BDC36923B1E9
:105030009879003018BF012070470020704700BFEA
:1050400038B504460A46012100F03AFBB0B104F13C
:10505000100528462146012201F0CEFB28B928463A
:105060002146002201F0C8FB50B104F13800294666
:1050700000F058FE003018BF012038BD002038BDB8
:10508000002038BD2DE9F04F99B081469346019339
:1050900091F83C308DF81C30414A069291F83D3031
:1050A0008DF81D3091F83E308DF81E300B6C089352
:1050B0004B6C09938B6C0A9391F84C308DF82C3023
:1050C0000B6D0C934B6D0D938B6D0E9300238DF830
:1050D00040300F928DF842305C460FAE06AD4FF077
:1050E0002F089A462CE023782F2B01D1013427E09A
:1050F0003F1BFFB20C2F28BF0C2702A821463A46BF
:1051000009F0E4F918AB3B4403F858AC304600F022
:105110007DFF3046294602AA012301F029F840B953
:10512000002389F804301E4AC9F8002089F80630A7
:1051300032E03C44284600F069FF2B4635461E46C7
:105140002046414609F03AF807460028CBD1CBEB80
:105150000404019B1C602B7989F80430104BC9F8BA
:1051600000306B7989F80530AB7989F80630AB6887
:10517000C9F80830EB68C9F80C302B69C9F8103051
:105180002B7D89F81430AB69C9F81830EB69C9F880
:105190001C302B6AC9F82030484619B0BDE8F08FA2
:1051A000981A0100F0B5A7B0044615461F4602A89C
:1051B00001ABFFF767FF01996E186B5C1BBB9DF895
:1051C0000C308DF854303C4B14939DF80D308DF815
:1051D00055309DF80E308DF85630049B1693059B84
:1051E0001793069B18939DF81C308DF86430089B2C
:1051F0001A93099B1B930A9B1C93204614A92F4AC0
:10520000FFF782FE54E000218DF830102A4B0B93FB
:105210008DF832109DF80E1019B92046FFF7A4FE44
:1052200046E00239C9B201290AD80BA824493246FE
:105230003B4600F09DFF88B92046FFF795FE37E01A
:105240000BA802A932463B4600F092FF18B920464F
:10525000FFF78AFE2CE002A800F0D8FE17F0060F38
:1052600003D00BA8119900F06DFE9DF830308DF839
:105270007830114B1D939DF831308DF879309DF8C1
:1052800032308DF87A300D9B1F930E9B20930F9B2D
:1052900021939DF840308DF88830119B2393129B09
:1052A0002493139B259320461DA93246FFF72CFE1D
:1052B000204627B0F0BD00BF981A0100D4150100A8
:1052C00074EDFF1FF0B59FB006460D46174649E046
:1052D0009DF810401CB93046FFF746FE4BE0E52C28
:1052E00040D02E2C3ED09DF81B1011F0080F39D164
:1052F00000238DF83430214A0C928DF8363004A802
:10530000694600F0AFFC0CA8E9696A463B4600F02C
:105310002FFF18B39DF834308DF85830174B159384
:105320009DF835308DF859309DF836308DF85A306B
:105330000E9B17930F9B1893109B19939DF8443065
:105340008DF86830129B1B93139B1C93149B1D9329
:10535000304615A96A46FFF7D7FD0CE03046FFF747
:1053600003FE08E0E86904A900F0A4FD0028AFDC12
:105370003046FFF7F9FD30461FB0F0BD981A010026
:1053800010B50446FFF706FE18B1E36900229A60E3
:10539000DA6010BD084B00225A719A719A721A7322
:1053A0000221196183F8302083F83C200349996376
:1053B00083F83E20704700BF3CEDFF1F981A0100A4
:1053C000084B1A6842F480621A604FF00042DA62B9
:1053D000FF225A631A46D36A002BFCDA014B986B02
:1053E000C0B2704700C0024010B50446164A174BC1
:1053F0001A6010F0010F02D0FFF7E2FF013C052C0C
:1054000004D9032100231148114A02E06108F9D1AF
:1054100004E04263023C01338B42FADB4CB10B4A9D
:105420000B48D36A13F0F00FFBD05063936B023C30
:10543000F7D1002907DD054AD36A13F0F00FFBD03E
:10544000936B0139F8D110BD00041F8000C00240E9
:10545000FFFF0090064B1A6842F480621A604FF01A
:105460000042DA6258631A46D36A002BFCDA7047AE
:1054700000C0024008B505281CD8DFE800F003078B
:105480000B0F13170E4A0F4B1A6016E00C4A0D4B08
:105490001A6012E00C4A0B4B1A600EE00B4A094BE3
:1054A0001A600AE00A4A074B1A6006E0094A054BEF
:1054B0001A6002E0084A034B1A60FFF749FC08BD76
:1054C000000001B89CEDFF1F0110003803200038D8
:1054D00001000238043000380650013808B5007960
:1054E000012104F0B5FA114B1B78F3B100220F4BE8
:1054F0001A700F4B1B78C3B113F0010F03D00D4B83
:105500001A680D4B1A600A4B1B7813F0020F03D078
:10551000084B5A68094B1A60054B1B7813F0040FAF
:1055200003D0044B9A68064B1A6008BDA0EDFF1F1C
:1055300038EDFF1F2CEDFF1F00E100E004E100E06B
:1055400008E100E010B5244B1B78002B3ED101226E
:10555000214B1A70214B1A68214B1B78002B28D045
:1055600072B61F4B1B7813F0010F07D01D4B1C6840
:105570001D49096821401D4C21601960184B1B789A
:1055800013F0020F07D01A4B1C68174949682140D5
:10559000164C61601960124B1B7813F0040F07D092
:1055A000144B1C68104989682140104CA160196097
:1055B00062B6114BDB68934208D00F4B0F4919605C
:1055C000DA6042F080421A610D4A1A6000790021C7
:1055D00004F03EFA10BD00BFA0EDFF1F9CEDFF1FC1
:1055E00038EDFF1F80E100E020EDFF1F2CEDFF1FD5
:1055F00084E100E088E100E000C0024001401F00BB
:1056000000001F8038B5044683797BB1008940F2E1
:105610000123984205D840F20225281AFFF7E4FE3C
:1056200025812046FFF75AFF0023A37138BD00BF34
:1056300070B50E46084B1C681D46A4B2FFF7C0FEAD
:10564000FF2805D02B689BB21B1BB342F6DB01E0A1
:10565000012070BD002070BD48F1FF1FF8B5054660
:105660000F461646FFF7CEFF2846FFF76BFF28468A
:105670004FF49671FFF7DCFF47F04000FFF7EAFEBA
:10568000182426FA04F0C0B2FFF7E4FE083C14F137
:10569000080FF6D127B1082F0CBF8720FF2000E0AC
:1056A0009520FFF7D7FE0024FFF78AFEE87210F07E
:1056B000800F03D00134B4F5807FF5D1F8BD00BF71
:1056C0002DE9F04F83B004460191002303738372E8
:1056D000837143710271834B1F681046012104F0EE
:1056E000B7F92079012104F0E5F92079012104F0CE
:1056F000AFF97D4B1A6842F480521A600620FFF71A
:10570000B9FE7A4B1A687A4B1B78002B28D072B6F8
:10571000774B1B7813F0010F07D0764B186876494A
:1057200009680140754801601960714B1B7813F0DE
:10573000020F07D0724B18686F49496801406F48E3
:10574000416019606A4B1B7813F0040F07D06D4B52
:10575000186869498968014068488160196062B6C3
:10576000694BDB68934200F0AF80674B6749196073
:10577000DA6042F080421A61654A1A60A4E0284665
:10578000FFF768FE013E16F0FF06F8D1584B1B7874
:10579000C3B113F0010F03D0584B1A685D4B1A6068
:1057A000534B1B7813F0020F03D0544B5A685A4BDB
:1057B0001A604F4B1B7813F0040F03D04F4B9A68BD
:1057C000564B1A602046FFF7BDFE4FF00008DFF889
:1057D00014A11FFA87F90AE0DAF800309BB2C9EB8E
:1057E0000303B3F5FA6F02DD0123637168E020461D
:1057F00041464246FFF732FF0546E0720128EBD1F1
:10580000204608214FF4D572FFF728FF10F0040F4F
:1058100002D00123237310E04FF00408FFF7D0FDFE
:10582000E07208F1FF3313F0FF08F7D1AA2802D085
:105830000223637144E002232373237B022B14BFF2
:105840004FF0000A4FF0804A4FF037094FF0000840
:10585000DFF890B00AE0DBF800309BB2BAB29B1AD6
:10586000B3F5FA6F02DD0823637129E0204649464B
:105870004246FFF7F3FE204629215246FFF7EEFE8F
:10588000E0720028E7D1237B022B11D120463A2178
:105890000022FFF7E3FE10B10623637110E0FFF76B
:1058A0008FFD00F0C000C02811D1032323730EE048
:1058B0002046FFF713FE0198FFF7DCFD2E460DE0B2
:1058C0002046FFF70BFE09E00A26FF2557E7FFF702
:1058D00077FDFFF775FDFFF773FDE9E7304603B08D
:1058E000BDE8F08F48F1FF1F3C8004409CEDFF1F96
:1058F00038EDFF1F80E100E020EDFF1F2CEDFF1FC2
:1059000084E100E088E100E000C0024001401F00A7
:1059100000001F8000E100E004E100E008E100E099
:1059200070B504460E4B1D681E46ADB208E03368E4
:105930009BB25B1BB3F5967F02DD0F23637108E01A
:10594000FFF73EFDE072FF28F1D0FE2806D00D23C0
:1059500063712046FFF7C2FD002070BD012070BDBD
:1059600048F1FF1FF8B505460C4617461E46002BAA
:1059700000F089801344B3F5007F7FDC83792BB17D
:1059800003688B4202D10389934216D92C602B7B8A
:10599000032B18BF6402284611212246FFF75EFE42
:1059A00010B103236B7169E02846FFF7B9FF0028A7
:1059B00064D000232B810123AB713846FFF714FD1F
:1059C0003046334A334B1A6016F0010F07D0069A5F
:1059D000541CFFF7F5FC069B1870701E06940528F2
:1059E00004D9032700232B492B4A02E04708F9D1A9
:1059F00003E04A6301339F42FBDCA0EB4700069AB9
:105A00001044824219D214462249DFF88CC0CA6A77
:105A100012F0F00FFBD0C1F834C08B6BC3F3072238
:105A2000227063700234A042F1D8069AD343034433
:105A300023F0010302331A44069200EB4700069B51
:105A400098420DD91C461349CA6A12F0F00FFBD0D8
:105A50008B6BC3F30722227063700234A042F3D829
:105A60002B8933449BB22B81AA7A12B1B3F5007F04
:105A70000BD32846FFF7C6FD0120F8BD2846FFF7E7
:105A80002DFD0020F8BD0120F8BD0120F8BD00BFAC
:105A900000041F8000C00240FFFF009000B583B0EB
:105AA000009200224FF40073FFF75CFF03B05DF833
:105AB00004FB00BFF8B50646214B186840F480602F
:105AC00018604FF00040D8625963114602F5007724
:105AD0000446DA6A002A0FDBFBE7DA6A002A14DBE5
